{
  "contractName": "MyNFT",
  "abi": [
    {
      "inputs": [],
      "stateMutability": "nonpayable",
      "type": "constructor"
    },
    {
      "anonymous": false,
      "inputs": [
        {
          "indexed": true,
          "internalType": "address",
          "name": "owner",
          "type": "address"
        },
        {
          "indexed": true,
          "internalType": "address",
          "name": "approved",
          "type": "address"
        },
        {
          "indexed": true,
          "internalType": "uint256",
          "name": "tokenId",
          "type": "uint256"
        }
      ],
      "name": "Approval",
      "type": "event"
    },
    {
      "anonymous": false,
      "inputs": [
        {
          "indexed": true,
          "internalType": "address",
          "name": "owner",
          "type": "address"
        },
        {
          "indexed": true,
          "internalType": "address",
          "name": "operator",
          "type": "address"
        },
        {
          "indexed": false,
          "internalType": "bool",
          "name": "approved",
          "type": "bool"
        }
      ],
      "name": "ApprovalForAll",
      "type": "event"
    },
    {
      "anonymous": false,
      "inputs": [
        {
          "indexed": true,
          "internalType": "address",
          "name": "previousOwner",
          "type": "address"
        },
        {
          "indexed": true,
          "internalType": "address",
          "name": "newOwner",
          "type": "address"
        }
      ],
      "name": "OwnershipTransferred",
      "type": "event"
    },
    {
      "anonymous": false,
      "inputs": [
        {
          "indexed": true,
          "internalType": "bytes32",
          "name": "role",
          "type": "bytes32"
        },
        {
          "indexed": true,
          "internalType": "bytes32",
          "name": "previousAdminRole",
          "type": "bytes32"
        },
        {
          "indexed": true,
          "internalType": "bytes32",
          "name": "newAdminRole",
          "type": "bytes32"
        }
      ],
      "name": "RoleAdminChanged",
      "type": "event"
    },
    {
      "anonymous": false,
      "inputs": [
        {
          "indexed": true,
          "internalType": "bytes32",
          "name": "role",
          "type": "bytes32"
        },
        {
          "indexed": true,
          "internalType": "address",
          "name": "account",
          "type": "address"
        },
        {
          "indexed": true,
          "internalType": "address",
          "name": "sender",
          "type": "address"
        }
      ],
      "name": "RoleGranted",
      "type": "event"
    },
    {
      "anonymous": false,
      "inputs": [
        {
          "indexed": true,
          "internalType": "bytes32",
          "name": "role",
          "type": "bytes32"
        },
        {
          "indexed": true,
          "internalType": "address",
          "name": "account",
          "type": "address"
        },
        {
          "indexed": true,
          "internalType": "address",
          "name": "sender",
          "type": "address"
        }
      ],
      "name": "RoleRevoked",
      "type": "event"
    },
    {
      "anonymous": false,
      "inputs": [
        {
          "indexed": true,
          "internalType": "address",
          "name": "from",
          "type": "address"
        },
        {
          "indexed": true,
          "internalType": "address",
          "name": "to",
          "type": "address"
        },
        {
          "indexed": true,
          "internalType": "uint256",
          "name": "tokenId",
          "type": "uint256"
        }
      ],
      "name": "Transfer",
      "type": "event"
    },
    {
      "inputs": [],
      "name": "ADMIN_ROLE",
      "outputs": [
        {
          "internalType": "bytes32",
          "name": "",
          "type": "bytes32"
        }
      ],
      "stateMutability": "view",
      "type": "function"
    },
    {
      "inputs": [],
      "name": "DEFAULT_ADMIN_ROLE",
      "outputs": [
        {
          "internalType": "bytes32",
          "name": "",
          "type": "bytes32"
        }
      ],
      "stateMutability": "view",
      "type": "function"
    },
    {
      "inputs": [
        {
          "internalType": "uint256",
          "name": "",
          "type": "uint256"
        }
      ],
      "name": "allTokens",
      "outputs": [
        {
          "internalType": "uint256",
          "name": "tokenId",
          "type": "uint256"
        },
        {
          "internalType": "string",
          "name": "tokenName",
          "type": "string"
        },
        {
          "internalType": "address",
          "name": "owner",
          "type": "address"
        },
        {
          "internalType": "string",
          "name": "tokenURI",
          "type": "string"
        },
        {
          "internalType": "uint8",
          "name": "rareza",
          "type": "uint8"
        },
        {
          "internalType": "uint256",
          "name": "precio",
          "type": "uint256"
        },
        {
          "internalType": "bool",
          "name": "enVenta",
          "type": "bool"
        }
      ],
      "stateMutability": "view",
      "type": "function"
    },
    {
      "inputs": [
        {
          "internalType": "address",
          "name": "to",
          "type": "address"
        },
        {
          "internalType": "uint256",
          "name": "tokenId",
          "type": "uint256"
        }
      ],
      "name": "approve",
      "outputs": [],
      "stateMutability": "nonpayable",
      "type": "function"
    },
    {
      "inputs": [
        {
          "internalType": "address",
          "name": "owner",
          "type": "address"
        }
      ],
      "name": "balanceOf",
      "outputs": [
        {
          "internalType": "uint256",
          "name": "",
          "type": "uint256"
        }
      ],
      "stateMutability": "view",
      "type": "function"
    },
    {
      "inputs": [
        {
          "internalType": "uint256",
          "name": "tokenId",
          "type": "uint256"
        }
      ],
      "name": "getApproved",
      "outputs": [
        {
          "internalType": "address",
          "name": "",
          "type": "address"
        }
      ],
      "stateMutability": "view",
      "type": "function"
    },
    {
      "inputs": [
        {
          "internalType": "bytes32",
          "name": "role",
          "type": "bytes32"
        }
      ],
      "name": "getRoleAdmin",
      "outputs": [
        {
          "internalType": "bytes32",
          "name": "",
          "type": "bytes32"
        }
      ],
      "stateMutability": "view",
      "type": "function"
    },
    {
      "inputs": [
        {
          "internalType": "bytes32",
          "name": "role",
          "type": "bytes32"
        },
        {
          "internalType": "address",
          "name": "account",
          "type": "address"
        }
      ],
      "name": "grantRole",
      "outputs": [],
      "stateMutability": "nonpayable",
      "type": "function"
    },
    {
      "inputs": [
        {
          "internalType": "bytes32",
          "name": "role",
          "type": "bytes32"
        },
        {
          "internalType": "address",
          "name": "account",
          "type": "address"
        }
      ],
      "name": "hasRole",
      "outputs": [
        {
          "internalType": "bool",
          "name": "",
          "type": "bool"
        }
      ],
      "stateMutability": "view",
      "type": "function"
    },
    {
      "inputs": [
        {
          "internalType": "address",
          "name": "owner",
          "type": "address"
        },
        {
          "internalType": "address",
          "name": "operator",
          "type": "address"
        }
      ],
      "name": "isApprovedForAll",
      "outputs": [
        {
          "internalType": "bool",
          "name": "",
          "type": "bool"
        }
      ],
      "stateMutability": "view",
      "type": "function"
    },
    {
      "inputs": [],
      "name": "name",
      "outputs": [
        {
          "internalType": "string",
          "name": "",
          "type": "string"
        }
      ],
      "stateMutability": "view",
      "type": "function"
    },
    {
      "inputs": [],
      "name": "owner",
      "outputs": [
        {
          "internalType": "address",
          "name": "",
          "type": "address"
        }
      ],
      "stateMutability": "view",
      "type": "function"
    },
    {
      "inputs": [
        {
          "internalType": "uint256",
          "name": "tokenId",
          "type": "uint256"
        }
      ],
      "name": "ownerOf",
      "outputs": [
        {
          "internalType": "address",
          "name": "",
          "type": "address"
        }
      ],
      "stateMutability": "view",
      "type": "function"
    },
    {
      "inputs": [
        {
          "internalType": "address",
          "name": "",
          "type": "address"
        },
        {
          "internalType": "uint256",
          "name": "",
          "type": "uint256"
        }
      ],
      "name": "ownerTokens",
      "outputs": [
        {
          "internalType": "uint256",
          "name": "tokenId",
          "type": "uint256"
        },
        {
          "internalType": "string",
          "name": "tokenName",
          "type": "string"
        },
        {
          "internalType": "address",
          "name": "owner",
          "type": "address"
        },
        {
          "internalType": "string",
          "name": "tokenURI",
          "type": "string"
        },
        {
          "internalType": "uint8",
          "name": "rareza",
          "type": "uint8"
        },
        {
          "internalType": "uint256",
          "name": "precio",
          "type": "uint256"
        },
        {
          "internalType": "bool",
          "name": "enVenta",
          "type": "bool"
        }
      ],
      "stateMutability": "view",
      "type": "function"
    },
    {
      "inputs": [],
      "name": "renounceOwnership",
      "outputs": [],
      "stateMutability": "nonpayable",
      "type": "function"
    },
    {
      "inputs": [
        {
          "internalType": "bytes32",
          "name": "role",
          "type": "bytes32"
        },
        {
          "internalType": "address",
          "name": "account",
          "type": "address"
        }
      ],
      "name": "renounceRole",
      "outputs": [],
      "stateMutability": "nonpayable",
      "type": "function"
    },
    {
      "inputs": [
        {
          "internalType": "bytes32",
          "name": "role",
          "type": "bytes32"
        },
        {
          "internalType": "address",
          "name": "account",
          "type": "address"
        }
      ],
      "name": "revokeRole",
      "outputs": [],
      "stateMutability": "nonpayable",
      "type": "function"
    },
    {
      "inputs": [
        {
          "internalType": "address",
          "name": "from",
          "type": "address"
        },
        {
          "internalType": "address",
          "name": "to",
          "type": "address"
        },
        {
          "internalType": "uint256",
          "name": "tokenId",
          "type": "uint256"
        }
      ],
      "name": "safeTransferFrom",
      "outputs": [],
      "stateMutability": "nonpayable",
      "type": "function"
    },
    {
      "inputs": [
        {
          "internalType": "address",
          "name": "from",
          "type": "address"
        },
        {
          "internalType": "address",
          "name": "to",
          "type": "address"
        },
        {
          "internalType": "uint256",
          "name": "tokenId",
          "type": "uint256"
        },
        {
          "internalType": "bytes",
          "name": "_data",
          "type": "bytes"
        }
      ],
      "name": "safeTransferFrom",
      "outputs": [],
      "stateMutability": "nonpayable",
      "type": "function"
    },
    {
      "inputs": [
        {
          "internalType": "address",
          "name": "operator",
          "type": "address"
        },
        {
          "internalType": "bool",
          "name": "approved",
          "type": "bool"
        }
      ],
      "name": "setApprovalForAll",
      "outputs": [],
      "stateMutability": "nonpayable",
      "type": "function"
    },
    {
      "inputs": [],
      "name": "symbol",
      "outputs": [
        {
          "internalType": "string",
          "name": "",
          "type": "string"
        }
      ],
      "stateMutability": "view",
      "type": "function"
    },
    {
      "inputs": [
        {
          "internalType": "string",
          "name": "",
          "type": "string"
        }
      ],
      "name": "tokenExists",
      "outputs": [
        {
          "internalType": "bool",
          "name": "",
          "type": "bool"
        }
      ],
      "stateMutability": "view",
      "type": "function"
    },
    {
      "inputs": [],
      "name": "tokenId",
      "outputs": [
        {
          "internalType": "uint256",
          "name": "",
          "type": "uint256"
        }
      ],
      "stateMutability": "view",
      "type": "function"
    },
    {
      "inputs": [
        {
          "internalType": "address",
          "name": "from",
          "type": "address"
        },
        {
          "internalType": "address",
          "name": "to",
          "type": "address"
        },
        {
          "internalType": "uint256",
          "name": "tokenId",
          "type": "uint256"
        }
      ],
      "name": "transferFrom",
      "outputs": [],
      "stateMutability": "nonpayable",
      "type": "function"
    },
    {
      "inputs": [
        {
          "internalType": "address",
          "name": "newOwner",
          "type": "address"
        }
      ],
      "name": "transferOwnership",
      "outputs": [],
      "stateMutability": "nonpayable",
      "type": "function"
    },
    {
      "inputs": [
        {
          "internalType": "address",
          "name": "account",
          "type": "address"
        }
      ],
      "name": "grantAdminRole",
      "outputs": [],
      "stateMutability": "nonpayable",
      "type": "function"
    },
    {
      "inputs": [],
      "name": "getMyTokens",
      "outputs": [
        {
          "components": [
            {
              "internalType": "uint256",
              "name": "tokenId",
              "type": "uint256"
            },
            {
              "internalType": "string",
              "name": "tokenName",
              "type": "string"
            },
            {
              "internalType": "address",
              "name": "owner",
              "type": "address"
            },
            {
              "internalType": "string",
              "name": "tokenURI",
              "type": "string"
            },
            {
              "internalType": "uint8",
              "name": "rareza",
              "type": "uint8"
            },
            {
              "internalType": "uint256",
              "name": "precio",
              "type": "uint256"
            },
            {
              "internalType": "bool",
              "name": "enVenta",
              "type": "bool"
            }
          ],
          "internalType": "struct MyNFT.NFT[]",
          "name": "",
          "type": "tuple[]"
        }
      ],
      "stateMutability": "view",
      "type": "function"
    },
    {
      "inputs": [],
      "name": "getAllTokens",
      "outputs": [
        {
          "components": [
            {
              "internalType": "uint256",
              "name": "tokenId",
              "type": "uint256"
            },
            {
              "internalType": "string",
              "name": "tokenName",
              "type": "string"
            },
            {
              "internalType": "address",
              "name": "owner",
              "type": "address"
            },
            {
              "internalType": "string",
              "name": "tokenURI",
              "type": "string"
            },
            {
              "internalType": "uint8",
              "name": "rareza",
              "type": "uint8"
            },
            {
              "internalType": "uint256",
              "name": "precio",
              "type": "uint256"
            },
            {
              "internalType": "bool",
              "name": "enVenta",
              "type": "bool"
            }
          ],
          "internalType": "struct MyNFT.NFT[]",
          "name": "",
          "type": "tuple[]"
        }
      ],
      "stateMutability": "view",
      "type": "function"
    },
    {
      "inputs": [
        {
          "internalType": "string",
          "name": "_tokenName",
          "type": "string"
        },
        {
          "internalType": "string",
          "name": "_tokenURI",
          "type": "string"
        },
        {
          "internalType": "uint8",
          "name": "_rareza",
          "type": "uint8"
        }
      ],
      "name": "mintToken",
      "outputs": [],
      "stateMutability": "nonpayable",
      "type": "function"
    },
    {
      "inputs": [
        {
          "internalType": "uint256",
          "name": "_tokenId",
          "type": "uint256"
        }
      ],
      "name": "comprarNFT",
      "outputs": [],
      "stateMutability": "payable",
      "type": "function"
    },
    {
      "inputs": [
        {
          "internalType": "uint256",
          "name": "_tokenId",
          "type": "uint256"
        },
        {
          "internalType": "uint256",
          "name": "_nuevoPrecio",
          "type": "uint256"
        }
      ],
      "name": "ponerEnVenta",
      "outputs": [],
      "stateMutability": "nonpayable",
      "type": "function"
    },
    {
      "inputs": [
        {
          "internalType": "uint256",
          "name": "_tokenId",
          "type": "uint256"
        },
        {
          "internalType": "string",
          "name": "_newTokenURI",
          "type": "string"
        }
      ],
      "name": "updateTokenURI",
      "outputs": [],
      "stateMutability": "nonpayable",
      "type": "function"
    },
    {
      "inputs": [
        {
          "internalType": "uint256",
          "name": "_tokenId",
          "type": "uint256"
        }
      ],
      "name": "deleteToken",
      "outputs": [],
      "stateMutability": "nonpayable",
      "type": "function"
    },
    {
      "inputs": [
        {
          "internalType": "uint256",
          "name": "_tokenId",
          "type": "uint256"
        }
      ],
      "name": "tokenURI",
      "outputs": [
        {
          "internalType": "string",
          "name": "",
          "type": "string"
        }
      ],
      "stateMutability": "view",
      "type": "function"
    },
    {
      "inputs": [
        {
          "internalType": "bytes4",
          "name": "interfaceId",
          "type": "bytes4"
        }
      ],
      "name": "supportsInterface",
      "outputs": [
        {
          "internalType": "bool",
          "name": "",
          "type": "bool"
        }
      ],
      "stateMutability": "view",
      "type": "function"
    }
  ],
  "bytecode": "0x6080604052600160085534801562000015575f80fd5b506040518060400160405280600581526020017f4d794e46540000000000000000000000000000000000000000000000000000008152506040518060400160405280600381526020017f4e46540000000000000000000000000000000000000000000000000000000000815250815f908162000092919062000572565b508060019081620000a4919062000572565b5050505f620000b8620001a160201b60201c565b90508060075f6101000a81548173ffffffffffffffffffffffffffffffffffffffff021916908373ffffffffffffffffffffffffffffffffffffffff1602179055508073ffffffffffffffffffffffffffffffffffffffff165f73ffffffffffffffffffffffffffffffffffffffff167f8be0079c531659141344cd1fd0a4f28419497f9722a3daafe3b4186f6b6457e060405160405180910390a350620001695f801b33620001a860201b60201c565b6200019b7fa49807205ce4d355092ef5a8a18f56e8913cf4a201fbe287825b095693c2177533620001a860201b60201c565b62000656565b5f33905090565b620001ba8282620001be60201b60201c565b5050565b620001d08282620002aa60201b60201c565b620002a657600160065f8481526020019081526020015f205f015f8373ffffffffffffffffffffffffffffffffffffffff1673ffffffffffffffffffffffffffffffffffffffff1681526020019081526020015f205f6101000a81548160ff0219169083151502179055506200024b620001a160201b60201c565b73ffffffffffffffffffffffffffffffffffffffff168173ffffffffffffffffffffffffffffffffffffffff16837f2f8788117e7eff1d82e926ec794901d17c78024a50270940304540a733656f0d60405160405180910390a45b5050565b5f60065f8481526020019081526020015f205f015f8373ffffffffffffffffffffffffffffffffffffffff1673ffffffffffffffffffffffffffffffffffffffff1681526020019081526020015f205f9054906101000a900460ff16905092915050565b5f81519050919050565b7f4e487b71000000000000000000000000000000000000000000000000000000005f52604160045260245ffd5b7f4e487b71000000000000000000000000000000000000000000000000000000005f52602260045260245ffd5b5f60028204905060018216806200038a57607f821691505b602082108103620003a0576200039f62000345565b5b50919050565b5f819050815f5260205f209050919050565b5f6020601f8301049050919050565b5f82821b905092915050565b5f60088302620004047fffffffffffffffffffffffffffffffffffffffffffffffffffffffffffffffff82620003c7565b620004108683620003c7565b95508019841693508086168417925050509392505050565b5f819050919050565b5f819050919050565b5f6200045a620004546200044e8462000428565b62000431565b62000428565b9050919050565b5f819050919050565b62000475836200043a565b6200048d620004848262000461565b848454620003d3565b825550505050565b5f90565b620004a362000495565b620004b08184846200046a565b505050565b5b81811015620004d757620004cb5f8262000499565b600181019050620004b6565b5050565b601f8211156200052657620004f081620003a6565b620004fb84620003b8565b810160208510156200050b578190505b620005236200051a85620003b8565b830182620004b5565b50505b505050565b5f82821c905092915050565b5f620005485f19846008026200052b565b1980831691505092915050565b5f62000562838362000537565b9150826002028217905092915050565b6200057d826200030e565b67ffffffffffffffff81111562000599576200059862000318565b5b620005a5825462000372565b620005b2828285620004db565b5f60209050601f831160018114620005e8575f8415620005d3578287015190505b620005df858262000555565b8655506200064e565b601f198416620005f886620003a6565b5f5b828110156200062157848901518255600182019150602085019450602081019050620005fa565b868310156200064157848901516200063d601f89168262000537565b8355505b6001600288020188555050505b505050505050565b61597480620006645f395ff3fe608060405260043610610203575f3560e01c8063634282af11610117578063a22cb4651161009f578063c634b78e1161006e578063c634b78e14610769578063c87b56dd14610791578063d547741f146107cd578063e985e9c5146107f5578063f2fde38b1461083157610203565b8063a22cb465146106d5578063a2b30966146106fd578063b88d4fde14610725578063bda84a271461074d57610203565b806375b238fc116100e657806375b238fc146105f15780638da5cb5b1461061b57806391d148541461064557806395d89b4114610681578063a217fddf146106ab57610203565b8063634282af146105215780636352211e1461056357806370a082311461059f578063715018a6146105db57610203565b806328b600311161019a5780633f2f0712116101695780633f2f07121461044357806342842e0e1461046b5780635b3b136a146104935780636059eae1146104bd5780636297c16c146104f957610203565b806328b60031146103875780632a5c792a146103c95780632f2ff15d146103f357806336568abe1461041b57610203565b806317d70f7c116101d657806317d70f7c146102d157806318e97fd1146102fb57806323b872dd14610323578063248a9ca31461034b57610203565b806301ffc9a71461020757806306fdde0314610243578063081812fc1461026d578063095ea7b3146102a9575b5f80fd5b348015610212575f80fd5b5061022d60048036038101906102289190613ae1565b610859565b60405161023a9190613b26565b60405180910390f35b34801561024e575f80fd5b5061025761086a565b6040516102649190613bc9565b60405180910390f35b348015610278575f80fd5b50610293600480360381019061028e9190613c1c565b6108f9565b6040516102a09190613c86565b60405180910390f35b3480156102b4575f80fd5b506102cf60048036038101906102ca9190613cc9565b61097a565b005b3480156102dc575f80fd5b506102e5610a90565b6040516102f29190613d16565b60405180910390f35b348015610306575f80fd5b50610321600480360381019061031c9190613d90565b610a96565b005b34801561032e575f80fd5b5061034960048036038101906103449190613ded565b610b8b565b005b348015610356575f80fd5b50610371600480360381019061036c9190613e70565b610beb565b60405161037e9190613eaa565b60405180910390f35b348015610392575f80fd5b506103ad60048036038101906103a89190613cc9565b610c08565b6040516103c09796959493929190613ede565b60405180910390f35b3480156103d4575f80fd5b506103dd610da3565b6040516103ea9190614138565b60405180910390f35b3480156103fe575f80fd5b5061041960048036038101906104149190614158565b610fbd565b005b348015610426575f80fd5b50610441600480360381019061043c9190614158565b611023565b005b34801561044e575f80fd5b50610469600480360381019061046491906141c0565b6110a6565b005b348015610476575f80fd5b50610491600480360381019061048c9190613ded565b611534565b005b34801561049e575f80fd5b506104a7611553565b6040516104b49190614138565b60405180910390f35b3480156104c8575f80fd5b506104e360048036038101906104de9190614379565b6117a8565b6040516104f09190613b26565b60405180910390f35b348015610504575f80fd5b5061051f600480360381019061051a9190613c1c565b6117dd565b005b34801561052c575f80fd5b5061054760048036038101906105429190613c1c565b611e3e565b60405161055a9796959493929190613ede565b60405180910390f35b34801561056e575f80fd5b5061058960048036038101906105849190613c1c565b611fce565b6040516105969190613c86565b60405180910390f35b3480156105aa575f80fd5b506105c560048036038101906105c091906143c0565b61207a565b6040516105d29190613d16565b60405180910390f35b3480156105e6575f80fd5b506105ef61212e565b005b3480156105fc575f80fd5b50610605612267565b6040516106129190613eaa565b60405180910390f35b348015610626575f80fd5b5061062f61228b565b60405161063c9190613c86565b60405180910390f35b348015610650575f80fd5b5061066b60048036038101906106669190614158565b6122b3565b6040516106789190613b26565b60405180910390f35b34801561068c575f80fd5b50610695612317565b6040516106a29190613bc9565b60405180910390f35b3480156106b6575f80fd5b506106bf6123a7565b6040516106cc9190613eaa565b60405180910390f35b3480156106e0575f80fd5b506106fb60048036038101906106f69190614415565b6123ad565b005b348015610708575f80fd5b50610723600480360381019061071e9190614453565b612528565b005b348015610730575f80fd5b5061074b6004803603810190610746919061452f565b61263f565b005b61076760048036038101906107629190613c1c565b6126a1565b005b348015610774575f80fd5b5061078f600480360381019061078a91906143c0565b61286c565b005b34801561079c575f80fd5b506107b760048036038101906107b29190613c1c565b612902565b6040516107c49190613bc9565b60405180910390f35b3480156107d8575f80fd5b506107f360048036038101906107ee9190614158565b612a09565b005b348015610800575f80fd5b5061081b600480360381019061081691906145af565b612a6f565b6040516108289190613b26565b60405180910390f35b34801561083c575f80fd5b50610857600480360381019061085291906143c0565b612afd565b005b5f61086382612ca5565b9050919050565b60605f80546108789061461a565b80601f01602080910402602001604051908101604052809291908181526020018280546108a49061461a565b80156108ef5780601f106108c6576101008083540402835291602001916108ef565b820191905f5260205f20905b8154815290600101906020018083116108d257829003601f168201915b5050505050905090565b5f61090382612d1e565b610942576040517f08c379a0000000000000000000000000000000000000000000000000000000008152600401610939906146ba565b60405180910390fd5b60045f8381526020019081526020015f205f9054906101000a900473ffffffffffffffffffffffffffffffffffffffff169050919050565b5f61098482611fce565b90508073ffffffffffffffffffffffffffffffffffffffff168373ffffffffffffffffffffffffffffffffffffffff16036109f4576040517f08c379a00000000000000000000000000000000000000000000000000000000081526004016109eb90614748565b60405180910390fd5b8073ffffffffffffffffffffffffffffffffffffffff16610a13612d86565b73ffffffffffffffffffffffffffffffffffffffff161480610a425750610a4181610a3c612d86565b612a6f565b5b610a81576040517f08c379a0000000000000000000000000000000000000000000000000000000008152600401610a78906147d6565b60405180910390fd5b610a8b8383612d8d565b505050565b60085481565b610ac07fa49807205ce4d355092ef5a8a18f56e8913cf4a201fbe287825b095693c21775336122b3565b610aff576040517f08c379a0000000000000000000000000000000000000000000000000000000008152600401610af69061483e565b60405180910390fd5b610b0883612d1e565b610b47576040517f08c379a0000000000000000000000000000000000000000000000000000000008152600401610b3e906148a6565b60405180910390fd5b81816009600186610b5891906148f1565b81548110610b6957610b68614924565b5b905f5260205f2090600702016003019182610b85929190614af8565b50505050565b610b9c610b96612d86565b82612e43565b610bdb576040517f08c379a0000000000000000000000000000000000000000000000000000000008152600401610bd290614c35565b60405180910390fd5b610be6838383612f1f565b505050565b5f60065f8381526020019081526020015f20600101549050919050565b600a602052815f5260405f208181548110610c21575f80fd5b905f5260205f2090600702015f9150915050805f015490806001018054610c479061461a565b80601f0160208091040260200160405190810160405280929190818152602001828054610c739061461a565b8015610cbe5780601f10610c9557610100808354040283529160200191610cbe565b820191905f5260205f20905b815481529060010190602001808311610ca157829003601f168201915b505050505090806002015f9054906101000a900473ffffffffffffffffffffffffffffffffffffffff1690806003018054610cf89061461a565b80601f0160208091040260200160405190810160405280929190818152602001828054610d249061461a565b8015610d6f5780601f10610d4657610100808354040283529160200191610d6f565b820191905f5260205f20905b815481529060010190602001808311610d5257829003601f168201915b505050505090806004015f9054906101000a900460ff1690806005015490806006015f9054906101000a900460ff16905087565b60606009805480602002602001604051908101604052809291908181526020015f905b82821015610fb4578382905f5260205f2090600702016040518060e00160405290815f8201548152602001600182018054610e009061461a565b80601f0160208091040260200160405190810160405280929190818152602001828054610e2c9061461a565b8015610e775780601f10610e4e57610100808354040283529160200191610e77565b820191905f5260205f20905b815481529060010190602001808311610e5a57829003601f168201915b50505050508152602001600282015f9054906101000a900473ffffffffffffffffffffffffffffffffffffffff1673ffffffffffffffffffffffffffffffffffffffff1673ffffffffffffffffffffffffffffffffffffffff168152602001600382018054610ee59061461a565b80601f0160208091040260200160405190810160405280929190818152602001828054610f119061461a565b8015610f5c5780601f10610f3357610100808354040283529160200191610f5c565b820191905f5260205f20905b815481529060010190602001808311610f3f57829003601f168201915b50505050508152602001600482015f9054906101000a900460ff1660ff1660ff16815260200160058201548152602001600682015f9054906101000a900460ff16151515158152505081526020019060010190610dc6565b50505050905090565b610fd6610fc983610beb565b610fd1612d86565b6122b3565b611015576040517f08c379a000000000000000000000000000000000000000000000000000000000815260040161100c90614cc3565b60405180910390fd5b61101f828261316f565b5050565b61102b612d86565b73ffffffffffffffffffffffffffffffffffffffff168173ffffffffffffffffffffffffffffffffffffffff1614611098576040517f08c379a000000000000000000000000000000000000000000000000000000000815260040161108f90614d51565b60405180910390fd5b6110a2828261324a565b5050565b6110d07fa49807205ce4d355092ef5a8a18f56e8913cf4a201fbe287825b095693c21775336122b3565b61110f576040517f08c379a00000000000000000000000000000000000000000000000000000000081526004016111069061483e565b60405180910390fd5b600b8585604051611121929190614d9d565b90815260200160405180910390205f9054906101000a900460ff161561117c576040517f08c379a000000000000000000000000000000000000000000000000000000000815260040161117390614dff565b60405180910390fd5b60018160ff1610158015611194575060048160ff1611155b6111d3576040517f08c379a00000000000000000000000000000000000000000000000000000000081526004016111ca90614e67565b60405180910390fd5b5f6111dd82613325565b90506111eb336008546133a3565b5f6040518060e00160405280600854815260200188888080601f0160208091040260200160405190810160405280939291908181526020018383808284375f81840152601f19601f8201169050808301925050505050505081526020013373ffffffffffffffffffffffffffffffffffffffff16815260200186868080601f0160208091040260200160405190810160405280939291908181526020018383808284375f81840152601f19601f8201169050808301925050505050505081526020018460ff168152602001838152602001600115158152509050600981908060018154018082558091505060019003905f5260205f2090600702015f909190919091505f820151815f0155602082015181600101908161130b9190614e85565b506040820151816002015f6101000a81548173ffffffffffffffffffffffffffffffffffffffff021916908373ffffffffffffffffffffffffffffffffffffffff16021790555060608201518160030190816113679190614e85565b506080820151816004015f6101000a81548160ff021916908360ff16021790555060a0820151816005015560c0820151816006015f6101000a81548160ff0219169083151502179055505050600a5f3373ffffffffffffffffffffffffffffffffffffffff1673ffffffffffffffffffffffffffffffffffffffff1681526020019081526020015f2081908060018154018082558091505060019003905f5260205f2090600702015f909190919091505f820151815f015560208201518160010190816114349190614e85565b506040820151816002015f6101000a81548173ffffffffffffffffffffffffffffffffffffffff021916908373ffffffffffffffffffffffffffffffffffffffff16021790555060608201518160030190816114909190614e85565b506080820151816004015f6101000a81548160ff021916908360ff16021790555060a0820151816005015560c0820151816006015f6101000a81548160ff02191690831515021790555050506001600b88886040516114f0929190614d9d565b90815260200160405180910390205f6101000a81548160ff02191690831515021790555060085f81548092919061152690614f54565b919050555050505050505050565b61154e83838360405180602001604052805f81525061263f565b505050565b6060600a5f3373ffffffffffffffffffffffffffffffffffffffff1673ffffffffffffffffffffffffffffffffffffffff1681526020019081526020015f20805480602002602001604051908101604052809291908181526020015f905b8282101561179f578382905f5260205f2090600702016040518060e00160405290815f82015481526020016001820180546115eb9061461a565b80601f01602080910402602001604051908101604052809291908181526020018280546116179061461a565b80156116625780601f1061163957610100808354040283529160200191611662565b820191905f5260205f20905b81548152906001019060200180831161164557829003601f168201915b50505050508152602001600282015f9054906101000a900473ffffffffffffffffffffffffffffffffffffffff1673ffffffffffffffffffffffffffffffffffffffff1673ffffffffffffffffffffffffffffffffffffffff1681526020016003820180546116d09061461a565b80601f01602080910402602001604051908101604052809291908181526020018280546116fc9061461a565b80156117475780601f1061171e57610100808354040283529160200191611747565b820191905f5260205f20905b81548152906001019060200180831161172a57829003601f168201915b50505050508152602001600482015f9054906101000a900460ff1660ff1660ff16815260200160058201548152602001600682015f9054906101000a900460ff161515151581525050815260200190600101906115b1565b50505050905090565b600b818051602081018201805184825260208301602085012081835280955050505050505f915054906101000a900460ff1681565b6118077fa49807205ce4d355092ef5a8a18f56e8913cf4a201fbe287825b095693c21775336122b3565b611846576040517f08c379a000000000000000000000000000000000000000000000000000000000815260040161183d9061483e565b60405180910390fd5b61184f81612d1e565b61188e576040517f08c379a0000000000000000000000000000000000000000000000000000000008152600401611885906148a6565b60405180910390fd5b5f61189882611fce565b90505f5b600a5f8373ffffffffffffffffffffffffffffffffffffffff1673ffffffffffffffffffffffffffffffffffffffff1681526020019081526020015f2080549050811015611c385782600a5f8473ffffffffffffffffffffffffffffffffffffffff1673ffffffffffffffffffffffffffffffffffffffff1681526020019081526020015f20828154811061193457611933614924565b5b905f5260205f2090600702015f015403611c2557600a5f8373ffffffffffffffffffffffffffffffffffffffff1673ffffffffffffffffffffffffffffffffffffffff1681526020019081526020015f206001600a5f8573ffffffffffffffffffffffffffffffffffffffff1673ffffffffffffffffffffffffffffffffffffffff1681526020019081526020015f20805490506119d291906148f1565b815481106119e3576119e2614924565b5b905f5260205f209060070201600a5f8473ffffffffffffffffffffffffffffffffffffffff1673ffffffffffffffffffffffffffffffffffffffff1681526020019081526020015f208281548110611a3e57611a3d614924565b5b905f5260205f2090600702015f820154815f015560018201816001019081611a669190614fb0565b50600282015f9054906101000a900473ffffffffffffffffffffffffffffffffffffffff16816002015f6101000a81548173ffffffffffffffffffffffffffffffffffffffff021916908373ffffffffffffffffffffffffffffffffffffffff16021790555060038201816003019081611ae09190614fb0565b50600482015f9054906101000a900460ff16816004015f6101000a81548160ff021916908360ff16021790555060058201548160050155600682015f9054906101000a900460ff16816006015f6101000a81548160ff021916908315150217905550905050600a5f8373ffffffffffffffffffffffffffffffffffffffff1673ffffffffffffffffffffffffffffffffffffffff1681526020019081526020015f20805480611b9257611b91615095565b5b600190038181905f5260205f2090600702015f8082015f9055600182015f611bba9190613a23565b600282015f6101000a81549073ffffffffffffffffffffffffffffffffffffffff0219169055600382015f611bef9190613a23565b600482015f6101000a81549060ff0219169055600582015f9055600682015f6101000a81549060ff021916905550509055611c38565b8080611c3090614f54565b91505061189c565b5060096001600980549050611c4d91906148f1565b81548110611c5e57611c5d614924565b5b905f5260205f2090600702016009600184611c7991906148f1565b81548110611c8a57611c89614924565b5b905f5260205f2090600702015f820154815f015560018201816001019081611cb29190614fb0565b50600282015f9054906101000a900473ffffffffffffffffffffffffffffffffffffffff16816002015f6101000a81548173ffffffffffffffffffffffffffffffffffffffff021916908373ffffffffffffffffffffffffffffffffffffffff16021790555060038201816003019081611d2c9190614fb0565b50600482015f9054906101000a900460ff16816004015f6101000a81548160ff021916908360ff16021790555060058201548160050155600682015f9054906101000a900460ff16816006015f6101000a81548160ff0219169083151502179055509050506009805480611da357611da2615095565b5b600190038181905f5260205f2090600702015f8082015f9055600182015f611dcb9190613a23565b600282015f6101000a81549073ffffffffffffffffffffffffffffffffffffffff0219169055600382015f611e009190613a23565b600482015f6101000a81549060ff0219169055600582015f9055600682015f6101000a81549060ff021916905550509055611e3a826133c0565b5050565b60098181548110611e4d575f80fd5b905f5260205f2090600702015f91509050805f015490806001018054611e729061461a565b80601f0160208091040260200160405190810160405280929190818152602001828054611e9e9061461a565b8015611ee95780601f10611ec057610100808354040283529160200191611ee9565b820191905f5260205f20905b815481529060010190602001808311611ecc57829003601f168201915b505050505090806002015f9054906101000a900473ffffffffffffffffffffffffffffffffffffffff1690806003018054611f239061461a565b80601f0160208091040260200160405190810160405280929190818152602001828054611f4f9061461a565b8015611f9a5780601f10611f7157610100808354040283529160200191611f9a565b820191905f5260205f20905b815481529060010190602001808311611f7d57829003601f168201915b505050505090806004015f9054906101000a900460ff1690806005015490806006015f9054906101000a900460ff16905087565b5f8060025f8481526020019081526020015f205f9054906101000a900473ffffffffffffffffffffffffffffffffffffffff1690505f73ffffffffffffffffffffffffffffffffffffffff168173ffffffffffffffffffffffffffffffffffffffff1603612071576040517f08c379a000000000000000000000000000000000000000000000000000000000815260040161206890615132565b60405180910390fd5b80915050919050565b5f8073ffffffffffffffffffffffffffffffffffffffff168273ffffffffffffffffffffffffffffffffffffffff16036120e9576040517f08c379a00000000000000000000000000000000000000000000000000000000081526004016120e0906151c0565b60405180910390fd5b60035f8373ffffffffffffffffffffffffffffffffffffffff1673ffffffffffffffffffffffffffffffffffffffff1681526020019081526020015f20549050919050565b612136612d86565b73ffffffffffffffffffffffffffffffffffffffff1661215461228b565b73ffffffffffffffffffffffffffffffffffffffff16146121aa576040517f08c379a00000000000000000000000000000000000000000000000000000000081526004016121a190615228565b60405180910390fd5b5f73ffffffffffffffffffffffffffffffffffffffff1660075f9054906101000a900473ffffffffffffffffffffffffffffffffffffffff1673ffffffffffffffffffffffffffffffffffffffff167f8be0079c531659141344cd1fd0a4f28419497f9722a3daafe3b4186f6b6457e060405160405180910390a35f60075f6101000a81548173ffffffffffffffffffffffffffffffffffffffff021916908373ffffffffffffffffffffffffffffffffffffffff160217905550565b7fa49807205ce4d355092ef5a8a18f56e8913cf4a201fbe287825b095693c2177581565b5f60075f9054906101000a900473ffffffffffffffffffffffffffffffffffffffff16905090565b5f60065f8481526020019081526020015f205f015f8373ffffffffffffffffffffffffffffffffffffffff1673ffffffffffffffffffffffffffffffffffffffff1681526020019081526020015f205f9054906101000a900460ff16905092915050565b6060600180546123269061461a565b80601f01602080910402602001604051908101604052809291908181526020018280546123529061461a565b801561239d5780601f106123745761010080835404028352916020019161239d565b820191905f5260205f20905b81548152906001019060200180831161238057829003601f168201915b5050505050905090565b5f801b81565b6123b5612d86565b73ffffffffffffffffffffffffffffffffffffffff168273ffffffffffffffffffffffffffffffffffffffff1603612422576040517f08c379a000000000000000000000000000000000000000000000000000000000815260040161241990615290565b60405180910390fd5b8060055f61242e612d86565b73ffffffffffffffffffffffffffffffffffffffff1673ffffffffffffffffffffffffffffffffffffffff1681526020019081526020015f205f8473ffffffffffffffffffffffffffffffffffffffff1673ffffffffffffffffffffffffffffffffffffffff1681526020019081526020015f205f6101000a81548160ff0219169083151502179055508173ffffffffffffffffffffffffffffffffffffffff166124d7612d86565b73ffffffffffffffffffffffffffffffffffffffff167f17307eab39ab6107e8899845ad3d59bd9653f200f220920489ca2b5937696c318360405161251c9190613b26565b60405180910390a35050565b61253182612d1e565b612570576040517f08c379a0000000000000000000000000000000000000000000000000000000008152600401612567906148a6565b60405180910390fd5b3373ffffffffffffffffffffffffffffffffffffffff1661259083611fce565b73ffffffffffffffffffffffffffffffffffffffff16146125e6576040517f08c379a00000000000000000000000000000000000000000000000000000000081526004016125dd9061531e565b60405180910390fd5b5f60096001846125f691906148f1565b8154811061260757612606614924565b5b905f5260205f20906007020190506001816006015f6101000a81548160ff021916908315150217905550818160050181905550505050565b61265061264a612d86565b83612e43565b61268f576040517f08c379a000000000000000000000000000000000000000000000000000000000815260040161268690614c35565b60405180910390fd5b61269b848484846134c7565b50505050565b6126aa81612d1e565b6126e9576040517f08c379a00000000000000000000000000000000000000000000000000000000081526004016126e0906148a6565b60405180910390fd5b5f60096001836126f991906148f1565b8154811061270a57612709614924565b5b905f5260205f2090600702019050806006015f9054906101000a900460ff16612768576040517f08c379a000000000000000000000000000000000000000000000000000000000815260040161275f90615386565b60405180910390fd5b80600501543410156127af576040517f08c379a00000000000000000000000000000000000000000000000000000000081526004016127a6906153ee565b60405180910390fd5b5f6127b983611fce565b90506127c6813385612f1f565b8073ffffffffffffffffffffffffffffffffffffffff166108fc3490811502906040515f60405180830381858888f19350505050158015612809573d5f803e3d5ffd5b5033826002015f6101000a81548173ffffffffffffffffffffffffffffffffffffffff021916908373ffffffffffffffffffffffffffffffffffffffff1602179055505f826006015f6101000a81548160ff021916908315150217905550505050565b6128967fa49807205ce4d355092ef5a8a18f56e8913cf4a201fbe287825b095693c21775336122b3565b6128d5576040517f08c379a00000000000000000000000000000000000000000000000000000000081526004016128cc9061483e565b60405180910390fd5b6128ff7fa49807205ce4d355092ef5a8a18f56e8913cf4a201fbe287825b095693c2177582610fbd565b50565b606061290d82612d1e565b61294c576040517f08c379a0000000000000000000000000000000000000000000000000000000008152600401612943906148a6565b60405180910390fd5b600960018361295b91906148f1565b8154811061296c5761296b614924565b5b905f5260205f20906007020160030180546129869061461a565b80601f01602080910402602001604051908101604052809291908181526020018280546129b29061461a565b80156129fd5780601f106129d4576101008083540402835291602001916129fd565b820191905f5260205f20905b8154815290600101906020018083116129e057829003601f168201915b50505050509050919050565b612a22612a1583610beb565b612a1d612d86565b6122b3565b612a61576040517f08c379a0000000000000000000000000000000000000000000000000000000008152600401612a589061547c565b60405180910390fd5b612a6b828261324a565b5050565b5f60055f8473ffffffffffffffffffffffffffffffffffffffff1673ffffffffffffffffffffffffffffffffffffffff1681526020019081526020015f205f8373ffffffffffffffffffffffffffffffffffffffff1673ffffffffffffffffffffffffffffffffffffffff1681526020019081526020015f205f9054906101000a900460ff16905092915050565b612b05612d86565b73ffffffffffffffffffffffffffffffffffffffff16612b2361228b565b73ffffffffffffffffffffffffffffffffffffffff1614612b79576040517f08c379a0000000000000000000000000000000000000000000000000000000008152600401612b7090615228565b60405180910390fd5b5f73ffffffffffffffffffffffffffffffffffffffff168173ffffffffffffffffffffffffffffffffffffffff1603612be7576040517f08c379a0000000000000000000000000000000000000000000000000000000008152600401612bde9061550a565b60405180910390fd5b8073ffffffffffffffffffffffffffffffffffffffff1660075f9054906101000a900473ffffffffffffffffffffffffffffffffffffffff1673ffffffffffffffffffffffffffffffffffffffff167f8be0079c531659141344cd1fd0a4f28419497f9722a3daafe3b4186f6b6457e060405160405180910390a38060075f6101000a81548173ffffffffffffffffffffffffffffffffffffffff021916908373ffffffffffffffffffffffffffffffffffffffff16021790555050565b5f7f7965db0b000000000000000000000000000000000000000000000000000000007bffffffffffffffffffffffffffffffffffffffffffffffffffffffff1916827bffffffffffffffffffffffffffffffffffffffffffffffffffffffff19161480612d175750612d1682613523565b5b9050919050565b5f8073ffffffffffffffffffffffffffffffffffffffff1660025f8481526020019081526020015f205f9054906101000a900473ffffffffffffffffffffffffffffffffffffffff1673ffffffffffffffffffffffffffffffffffffffff1614159050919050565b5f33905090565b8160045f8381526020019081526020015f205f6101000a81548173ffffffffffffffffffffffffffffffffffffffff021916908373ffffffffffffffffffffffffffffffffffffffff160217905550808273ffffffffffffffffffffffffffffffffffffffff16612dfd83611fce565b73ffffffffffffffffffffffffffffffffffffffff167f8c5be1e5ebec7d5bd14f71427d1e84f3dd0314c0f7b2291e5b200ac8c7c3b92560405160405180910390a45050565b5f612e4d82612d1e565b612e8c576040517f08c379a0000000000000000000000000000000000000000000000000000000008152600401612e8390615598565b60405180910390fd5b5f612e9683611fce565b90508073ffffffffffffffffffffffffffffffffffffffff168473ffffffffffffffffffffffffffffffffffffffff161480612f0557508373ffffffffffffffffffffffffffffffffffffffff16612eed846108f9565b73ffffffffffffffffffffffffffffffffffffffff16145b80612f165750612f158185612a6f565b5b91505092915050565b8273ffffffffffffffffffffffffffffffffffffffff16612f3f82611fce565b73ffffffffffffffffffffffffffffffffffffffff1614612f95576040517f08c379a0000000000000000000000000000000000000000000000000000000008152600401612f8c90615626565b60405180910390fd5b5f73ffffffffffffffffffffffffffffffffffffffff168273ffffffffffffffffffffffffffffffffffffffff1603613003576040517f08c379a0000000000000000000000000000000000000000000000000000000008152600401612ffa906156b4565b60405180910390fd5b61300e838383613604565b6130185f82612d8d565b600160035f8573ffffffffffffffffffffffffffffffffffffffff1673ffffffffffffffffffffffffffffffffffffffff1681526020019081526020015f205f82825461306591906148f1565b92505081905550600160035f8473ffffffffffffffffffffffffffffffffffffffff1673ffffffffffffffffffffffffffffffffffffffff1681526020019081526020015f205f8282546130b991906156d2565b925050819055508160025f8381526020019081526020015f205f6101000a81548173ffffffffffffffffffffffffffffffffffffffff021916908373ffffffffffffffffffffffffffffffffffffffff160217905550808273ffffffffffffffffffffffffffffffffffffffff168473ffffffffffffffffffffffffffffffffffffffff167fddf252ad1be2c89b69c2b068fc378daa952ba7f163c4a11628f55a4df523b3ef60405160405180910390a4505050565b61317982826122b3565b61324657600160065f8481526020019081526020015f205f015f8373ffffffffffffffffffffffffffffffffffffffff1673ffffffffffffffffffffffffffffffffffffffff1681526020019081526020015f205f6101000a81548160ff0219169083151502179055506131eb612d86565b73ffffffffffffffffffffffffffffffffffffffff168173ffffffffffffffffffffffffffffffffffffffff16837f2f8788117e7eff1d82e926ec794901d17c78024a50270940304540a733656f0d60405160405180910390a45b5050565b61325482826122b3565b15613321575f60065f8481526020019081526020015f205f015f8373ffffffffffffffffffffffffffffffffffffffff1673ffffffffffffffffffffffffffffffffffffffff1681526020019081526020015f205f6101000a81548160ff0219169083151502179055506132c6612d86565b73ffffffffffffffffffffffffffffffffffffffff168173ffffffffffffffffffffffffffffffffffffffff16837ff6391f5c32d9c69d2a47ea670b442974b53935d1edc7fd64eb21e047a839171b60405160405180910390a45b5050565b5f60018260ff1603613341576706f05b59d3b20000905061339e565b60028260ff160361335c57670de0b6b3a7640000905061339e565b60038260ff160361337757671bc16d674ec80000905061339e565b60048260ff160361339257674563918244f40000905061339e565b6706f05b59d3b2000090505b919050565b6133bc828260405180602001604052805f815250613609565b5050565b5f6133ca82611fce565b90506133d7815f84613604565b6133e15f83612d8d565b600160035f8373ffffffffffffffffffffffffffffffffffffffff1673ffffffffffffffffffffffffffffffffffffffff1681526020019081526020015f205f82825461342e91906148f1565b9250508190555060025f8381526020019081526020015f205f6101000a81549073ffffffffffffffffffffffffffffffffffffffff0219169055815f73ffffffffffffffffffffffffffffffffffffffff168273ffffffffffffffffffffffffffffffffffffffff167fddf252ad1be2c89b69c2b068fc378daa952ba7f163c4a11628f55a4df523b3ef60405160405180910390a45050565b6134d2848484612f1f565b6134de84848484613663565b61351d576040517f08c379a000000000000000000000000000000000000000000000000000000000815260040161351490615775565b60405180910390fd5b50505050565b5f7f80ac58cd000000000000000000000000000000000000000000000000000000007bffffffffffffffffffffffffffffffffffffffffffffffffffffffff1916827bffffffffffffffffffffffffffffffffffffffffffffffffffffffff191614806135ed57507f5b5e139f000000000000000000000000000000000000000000000000000000007bffffffffffffffffffffffffffffffffffffffffffffffffffffffff1916827bffffffffffffffffffffffffffffffffffffffffffffffffffffffff1916145b806135fd57506135fc826137e5565b5b9050919050565b505050565b613613838361384e565b61361f5f848484613663565b61365e576040517f08c379a000000000000000000000000000000000000000000000000000000000815260040161365590615775565b60405180910390fd5b505050565b5f6136838473ffffffffffffffffffffffffffffffffffffffff16613a12565b156137d8578373ffffffffffffffffffffffffffffffffffffffff1663150b7a026136ac612d86565b8786866040518563ffffffff1660e01b81526004016136ce94939291906157e5565b6020604051808303815f875af192505050801561370957506040513d601f19601f820116820180604052508101906137069190615843565b60015b613788573d805f8114613737576040519150601f19603f3d011682016040523d82523d5f602084013e61373c565b606091505b505f815103613780576040517f08c379a000000000000000000000000000000000000000000000000000000000815260040161377790615775565b60405180910390fd5b805181602001fd5b63150b7a0260e01b7bffffffffffffffffffffffffffffffffffffffffffffffffffffffff1916817bffffffffffffffffffffffffffffffffffffffffffffffffffffffff1916149150506137dd565b600190505b949350505050565b5f7f01ffc9a7000000000000000000000000000000000000000000000000000000007bffffffffffffffffffffffffffffffffffffffffffffffffffffffff1916827bffffffffffffffffffffffffffffffffffffffffffffffffffffffff1916149050919050565b5f73ffffffffffffffffffffffffffffffffffffffff168273ffffffffffffffffffffffffffffffffffffffff16036138bc576040517f08c379a00000000000000000000000000000000000000000000000000000000081526004016138b3906158b8565b60405180910390fd5b6138c581612d1e565b15613905576040517f08c379a00000000000000000000000000000000000000000000000000000000081526004016138fc90615920565b60405180910390fd5b6139105f8383613604565b600160035f8473ffffffffffffffffffffffffffffffffffffffff1673ffffffffffffffffffffffffffffffffffffffff1681526020019081526020015f205f82825461395d91906156d2565b925050819055508160025f8381526020019081526020015f205f6101000a81548173ffffffffffffffffffffffffffffffffffffffff021916908373ffffffffffffffffffffffffffffffffffffffff160217905550808273ffffffffffffffffffffffffffffffffffffffff165f73ffffffffffffffffffffffffffffffffffffffff167fddf252ad1be2c89b69c2b068fc378daa952ba7f163c4a11628f55a4df523b3ef60405160405180910390a45050565b5f80823b90505f8111915050919050565b508054613a2f9061461a565b5f825580601f10613a405750613a5d565b601f0160209004905f5260205f2090810190613a5c9190613a60565b5b50565b5b80821115613a77575f815f905550600101613a61565b5090565b5f604051905090565b5f80fd5b5f80fd5b5f7fffffffff0000000000000000000000000000000000000000000000000000000082169050919050565b613ac081613a8c565b8114613aca575f80fd5b50565b5f81359050613adb81613ab7565b92915050565b5f60208284031215613af657613af5613a84565b5b5f613b0384828501613acd565b91505092915050565b5f8115159050919050565b613b2081613b0c565b82525050565b5f602082019050613b395f830184613b17565b92915050565b5f81519050919050565b5f82825260208201905092915050565b5f5b83811015613b76578082015181840152602081019050613b5b565b5f8484015250505050565b5f601f19601f8301169050919050565b5f613b9b82613b3f565b613ba58185613b49565b9350613bb5818560208601613b59565b613bbe81613b81565b840191505092915050565b5f6020820190508181035f830152613be18184613b91565b905092915050565b5f819050919050565b613bfb81613be9565b8114613c05575f80fd5b50565b5f81359050613c1681613bf2565b92915050565b5f60208284031215613c3157613c30613a84565b5b5f613c3e84828501613c08565b91505092915050565b5f73ffffffffffffffffffffffffffffffffffffffff82169050919050565b5f613c7082613c47565b9050919050565b613c8081613c66565b82525050565b5f602082019050613c995f830184613c77565b92915050565b613ca881613c66565b8114613cb2575f80fd5b50565b5f81359050613cc381613c9f565b92915050565b5f8060408385031215613cdf57613cde613a84565b5b5f613cec85828601613cb5565b9250506020613cfd85828601613c08565b9150509250929050565b613d1081613be9565b82525050565b5f602082019050613d295f830184613d07565b92915050565b5f80fd5b5f80fd5b5f80fd5b5f8083601f840112613d5057613d4f613d2f565b5b8235905067ffffffffffffffff811115613d6d57613d6c613d33565b5b602083019150836001820283011115613d8957613d88613d37565b5b9250929050565b5f805f60408486031215613da757613da6613a84565b5b5f613db486828701613c08565b935050602084013567ffffffffffffffff811115613dd557613dd4613a88565b5b613de186828701613d3b565b92509250509250925092565b5f805f60608486031215613e0457613e03613a84565b5b5f613e1186828701613cb5565b9350506020613e2286828701613cb5565b9250506040613e3386828701613c08565b9150509250925092565b5f819050919050565b613e4f81613e3d565b8114613e59575f80fd5b50565b5f81359050613e6a81613e46565b92915050565b5f60208284031215613e8557613e84613a84565b5b5f613e9284828501613e5c565b91505092915050565b613ea481613e3d565b82525050565b5f602082019050613ebd5f830184613e9b565b92915050565b5f60ff82169050919050565b613ed881613ec3565b82525050565b5f60e082019050613ef15f83018a613d07565b8181036020830152613f038189613b91565b9050613f126040830188613c77565b8181036060830152613f248187613b91565b9050613f336080830186613ecf565b613f4060a0830185613d07565b613f4d60c0830184613b17565b98975050505050505050565b5f81519050919050565b5f82825260208201905092915050565b5f819050602082019050919050565b613f8b81613be9565b82525050565b5f82825260208201905092915050565b5f613fab82613b3f565b613fb58185613f91565b9350613fc5818560208601613b59565b613fce81613b81565b840191505092915050565b613fe281613c66565b82525050565b613ff181613ec3565b82525050565b61400081613b0c565b82525050565b5f60e083015f83015161401b5f860182613f82565b50602083015184820360208601526140338282613fa1565b91505060408301516140486040860182613fd9565b50606083015184820360608601526140608282613fa1565b91505060808301516140756080860182613fe8565b5060a083015161408860a0860182613f82565b5060c083015161409b60c0860182613ff7565b508091505092915050565b5f6140b18383614006565b905092915050565b5f602082019050919050565b5f6140cf82613f59565b6140d98185613f63565b9350836020820285016140eb85613f73565b805f5b85811015614126578484038952815161410785826140a6565b9450614112836140b9565b925060208a019950506001810190506140ee565b50829750879550505050505092915050565b5f6020820190508181035f83015261415081846140c5565b905092915050565b5f806040838503121561416e5761416d613a84565b5b5f61417b85828601613e5c565b925050602061418c85828601613cb5565b9150509250929050565b61419f81613ec3565b81146141a9575f80fd5b50565b5f813590506141ba81614196565b92915050565b5f805f805f606086880312156141d9576141d8613a84565b5b5f86013567ffffffffffffffff8111156141f6576141f5613a88565b5b61420288828901613d3b565b9550955050602086013567ffffffffffffffff81111561422557614224613a88565b5b61423188828901613d3b565b93509350506040614244888289016141ac565b9150509295509295909350565b5f80fd5b7f4e487b71000000000000000000000000000000000000000000000000000000005f52604160045260245ffd5b61428b82613b81565b810181811067ffffffffffffffff821117156142aa576142a9614255565b5b80604052505050565b5f6142bc613a7b565b90506142c88282614282565b919050565b5f67ffffffffffffffff8211156142e7576142e6614255565b5b6142f082613b81565b9050602081019050919050565b828183375f83830152505050565b5f61431d614318846142cd565b6142b3565b90508281526020810184848401111561433957614338614251565b5b6143448482856142fd565b509392505050565b5f82601f8301126143605761435f613d2f565b5b813561437084826020860161430b565b91505092915050565b5f6020828403121561438e5761438d613a84565b5b5f82013567ffffffffffffffff8111156143ab576143aa613a88565b5b6143b78482850161434c565b91505092915050565b5f602082840312156143d5576143d4613a84565b5b5f6143e284828501613cb5565b91505092915050565b6143f481613b0c565b81146143fe575f80fd5b50565b5f8135905061440f816143eb565b92915050565b5f806040838503121561442b5761442a613a84565b5b5f61443885828601613cb5565b925050602061444985828601614401565b9150509250929050565b5f806040838503121561446957614468613a84565b5b5f61447685828601613c08565b925050602061448785828601613c08565b9150509250929050565b5f67ffffffffffffffff8211156144ab576144aa614255565b5b6144b482613b81565b9050602081019050919050565b5f6144d36144ce84614491565b6142b3565b9050828152602081018484840111156144ef576144ee614251565b5b6144fa8482856142fd565b509392505050565b5f82601f83011261451657614515613d2f565b5b81356145268482602086016144c1565b91505092915050565b5f805f806080858703121561454757614546613a84565b5b5f61455487828801613cb5565b945050602061456587828801613cb5565b935050604061457687828801613c08565b925050606085013567ffffffffffffffff81111561459757614596613a88565b5b6145a387828801614502565b91505092959194509250565b5f80604083850312156145c5576145c4613a84565b5b5f6145d285828601613cb5565b92505060206145e385828601613cb5565b9150509250929050565b7f4e487b71000000000000000000000000000000000000000000000000000000005f52602260045260245ffd5b5f600282049050600182168061463157607f821691505b602082108103614644576146436145ed565b5b50919050565b7f4552433732313a20617070726f76656420717565727920666f72206e6f6e65785f8201527f697374656e7420746f6b656e0000000000000000000000000000000000000000602082015250565b5f6146a4602c83613b49565b91506146af8261464a565b604082019050919050565b5f6020820190508181035f8301526146d181614698565b9050919050565b7f4552433732313a20617070726f76616c20746f2063757272656e74206f776e655f8201527f7200000000000000000000000000000000000000000000000000000000000000602082015250565b5f614732602183613b49565b915061473d826146d8565b604082019050919050565b5f6020820190508181035f83015261475f81614726565b9050919050565b7f4552433732313a20617070726f76652063616c6c6572206973206e6f74206f775f8201527f6e6572206e6f7220617070726f76656420666f7220616c6c0000000000000000602082015250565b5f6147c0603883613b49565b91506147cb82614766565b604082019050919050565b5f6020820190508181035f8301526147ed816147b4565b9050919050565b7f43616c6c6572206973206e6f7420616e2061646d696e000000000000000000005f82015250565b5f614828601683613b49565b9150614833826147f4565b602082019050919050565b5f6020820190508181035f8301526148558161481c565b9050919050565b7f546f6b656e20646f6573206e6f742065786973740000000000000000000000005f82015250565b5f614890601483613b49565b915061489b8261485c565b602082019050919050565b5f6020820190508181035f8301526148bd81614884565b9050919050565b7f4e487b71000000000000000000000000000000000000000000000000000000005f52601160045260245ffd5b5f6148fb82613be9565b915061490683613be9565b925082820390508181111561491e5761491d6148c4565b5b92915050565b7f4e487b71000000000000000000000000000000000000000000000000000000005f52603260045260245ffd5b5f82905092915050565b5f819050815f5260205f209050919050565b5f6020601f8301049050919050565b5f82821b905092915050565b5f600883026149b77fffffffffffffffffffffffffffffffffffffffffffffffffffffffffffffffff8261497c565b6149c1868361497c565b95508019841693508086168417925050509392505050565b5f819050919050565b5f6149fc6149f76149f284613be9565b6149d9565b613be9565b9050919050565b5f819050919050565b614a15836149e2565b614a29614a2182614a03565b848454614988565b825550505050565b5f90565b614a3d614a31565b614a48818484614a0c565b505050565b5b81811015614a6b57614a605f82614a35565b600181019050614a4e565b5050565b601f821115614ab057614a818161495b565b614a8a8461496d565b81016020851015614a99578190505b614aad614aa58561496d565b830182614a4d565b50505b505050565b5f82821c905092915050565b5f614ad05f1984600802614ab5565b1980831691505092915050565b5f614ae88383614ac1565b9150826002028217905092915050565b614b028383614951565b67ffffffffffffffff811115614b1b57614b1a614255565b5b614b25825461461a565b614b30828285614a6f565b5f601f831160018114614b5d575f8415614b4b578287013590505b614b558582614add565b865550614bbc565b601f198416614b6b8661495b565b5f5b82811015614b9257848901358255600182019150602085019450602081019050614b6d565b86831015614baf5784890135614bab601f891682614ac1565b8355505b6001600288020188555050505b50505050505050565b7f4552433732313a207472616e736665722063616c6c6572206973206e6f74206f5f8201527f776e6572206e6f7220617070726f766564000000000000000000000000000000602082015250565b5f614c1f603183613b49565b9150614c2a82614bc5565b604082019050919050565b5f6020820190508181035f830152614c4c81614c13565b9050919050565b7f416363657373436f6e74726f6c3a2073656e646572206d75737420626520616e5f8201527f2061646d696e20746f206772616e740000000000000000000000000000000000602082015250565b5f614cad602f83613b49565b9150614cb882614c53565b604082019050919050565b5f6020820190508181035f830152614cda81614ca1565b9050919050565b7f416363657373436f6e74726f6c3a2063616e206f6e6c792072656e6f756e63655f8201527f20726f6c657320666f722073656c660000000000000000000000000000000000602082015250565b5f614d3b602f83613b49565b9150614d4682614ce1565b604082019050919050565b5f6020820190508181035f830152614d6881614d2f565b9050919050565b5f81905092915050565b5f614d848385614d6f565b9350614d918385846142fd565b82840190509392505050565b5f614da9828486614d79565b91508190509392505050565b7f546f6b656e20616c7265616479206578697374730000000000000000000000005f82015250565b5f614de9601483613b49565b9150614df482614db5565b602082019050919050565b5f6020820190508181035f830152614e1681614ddd565b9050919050565b7f526172657a6120696e76616c69646100000000000000000000000000000000005f82015250565b5f614e51600f83613b49565b9150614e5c82614e1d565b602082019050919050565b5f6020820190508181035f830152614e7e81614e45565b9050919050565b614e8e82613b3f565b67ffffffffffffffff811115614ea757614ea6614255565b5b614eb1825461461a565b614ebc828285614a6f565b5f60209050601f831160018114614eed575f8415614edb578287015190505b614ee58582614add565b865550614f4c565b601f198416614efb8661495b565b5f5b82811015614f2257848901518255600182019150602085019450602081019050614efd565b86831015614f3f5784890151614f3b601f891682614ac1565b8355505b6001600288020188555050505b505050505050565b5f614f5e82613be9565b91507fffffffffffffffffffffffffffffffffffffffffffffffffffffffffffffffff8203614f9057614f8f6148c4565b5b600182019050919050565b5f81549050614fa98161461a565b9050919050565b818103614fbe575050615093565b614fc782614f9b565b67ffffffffffffffff811115614fe057614fdf614255565b5b614fea825461461a565b614ff5828285614a6f565b5f601f831160018114615022575f8415615010578287015490505b61501a8582614add565b86555061508c565b601f1984166150308761495b565b965061503b8661495b565b5f5b828110156150625784890154825560018201915060018501945060208101905061503d565b8683101561507f578489015461507b601f891682614ac1565b8355505b6001600288020188555050505b5050505050505b565b7f4e487b71000000000000000000000000000000000000000000000000000000005f52603160045260245ffd5b7f4552433732313a206f776e657220717565727920666f72206e6f6e65786973745f8201527f656e7420746f6b656e0000000000000000000000000000000000000000000000602082015250565b5f61511c602983613b49565b9150615127826150c2565b604082019050919050565b5f6020820190508181035f83015261514981615110565b9050919050565b7f4552433732313a2062616c616e636520717565727920666f7220746865207a655f8201527f726f206164647265737300000000000000000000000000000000000000000000602082015250565b5f6151aa602a83613b49565b91506151b582615150565b604082019050919050565b5f6020820190508181035f8301526151d78161519e565b9050919050565b7f4f776e61626c653a2063616c6c6572206973206e6f7420746865206f776e65725f82015250565b5f615212602083613b49565b915061521d826151de565b602082019050919050565b5f6020820190508181035f83015261523f81615206565b9050919050565b7f4552433732313a20617070726f766520746f2063616c6c6572000000000000005f82015250565b5f61527a601983613b49565b915061528582615246565b602082019050919050565b5f6020820190508181035f8301526152a78161526e565b9050919050565b7f536f6c6f20656c20647565c3b16f20707565646520706f6e657220656e2076655f8201527f6e74610000000000000000000000000000000000000000000000000000000000602082015250565b5f615308602383613b49565b9150615313826152ae565b604082019050919050565b5f6020820190508181035f830152615335816152fc565b9050919050565b7f4e4654206e6f20657374c3a120656e2076656e746100000000000000000000005f82015250565b5f615370601583613b49565b915061537b8261533c565b602082019050919050565b5f6020820190508181035f83015261539d81615364565b9050919050565b7f466f6e646f7320696e737566696369656e7465730000000000000000000000005f82015250565b5f6153d8601483613b49565b91506153e3826153a4565b602082019050919050565b5f6020820190508181035f830152615405816153cc565b9050919050565b7f416363657373436f6e74726f6c3a2073656e646572206d75737420626520616e5f8201527f2061646d696e20746f207265766f6b6500000000000000000000000000000000602082015250565b5f615466603083613b49565b91506154718261540c565b604082019050919050565b5f6020820190508181035f8301526154938161545a565b9050919050565b7f4f776e61626c653a206e6577206f776e657220697320746865207a65726f20615f8201527f6464726573730000000000000000000000000000000000000000000000000000602082015250565b5f6154f4602683613b49565b91506154ff8261549a565b604082019050919050565b5f6020820190508181035f830152615521816154e8565b9050919050565b7f4552433732313a206f70657261746f7220717565727920666f72206e6f6e65785f8201527f697374656e7420746f6b656e0000000000000000000000000000000000000000602082015250565b5f615582602c83613b49565b915061558d82615528565b604082019050919050565b5f6020820190508181035f8301526155af81615576565b9050919050565b7f4552433732313a207472616e73666572206f6620746f6b656e207468617420695f8201527f73206e6f74206f776e0000000000000000000000000000000000000000000000602082015250565b5f615610602983613b49565b915061561b826155b6565b604082019050919050565b5f6020820190508181035f83015261563d81615604565b9050919050565b7f4552433732313a207472616e7366657220746f20746865207a65726f206164645f8201527f7265737300000000000000000000000000000000000000000000000000000000602082015250565b5f61569e602483613b49565b91506156a982615644565b604082019050919050565b5f6020820190508181035f8301526156cb81615692565b9050919050565b5f6156dc82613be9565b91506156e783613be9565b92508282019050808211156156ff576156fe6148c4565b5b92915050565b7f4552433732313a207472616e7366657220746f206e6f6e2045524337323152655f8201527f63656976657220696d706c656d656e7465720000000000000000000000000000602082015250565b5f61575f603283613b49565b915061576a82615705565b604082019050919050565b5f6020820190508181035f83015261578c81615753565b9050919050565b5f81519050919050565b5f82825260208201905092915050565b5f6157b782615793565b6157c1818561579d565b93506157d1818560208601613b59565b6157da81613b81565b840191505092915050565b5f6080820190506157f85f830187613c77565b6158056020830186613c77565b6158126040830185613d07565b818103606083015261582481846157ad565b905095945050505050565b5f8151905061583d81613ab7565b92915050565b5f6020828403121561585857615857613a84565b5b5f6158658482850161582f565b91505092915050565b7f4552433732313a206d696e7420746f20746865207a65726f20616464726573735f82015250565b5f6158a2602083613b49565b91506158ad8261586e565b602082019050919050565b5f6020820190508181035f8301526158cf81615896565b9050919050565b7f4552433732313a20746f6b656e20616c7265616479206d696e746564000000005f82015250565b5f61590a601c83613b49565b9150615915826158d6565b602082019050919050565b5f6020820190508181035f830152615937816158fe565b905091905056fea2646970667358221220444f9e165003fd1e1f3046db8789b4f3b98e7984aaf008f0ffc1fb52860068a064736f6c63430008150033",
  "immutableReferences": {},
  "source": "// SPDX-License-Identifier: MIT\r\npragma solidity ^0.8.0;\r\n\r\nimport \"@openzeppelin/contracts/token/ERC721/ERC721.sol\";\r\nimport \"@openzeppelin/contracts/access/Ownable.sol\";\r\nimport \"@openzeppelin/contracts/access/AccessControl.sol\";\r\n\r\ncontract MyNFT is ERC721, AccessControl, Ownable {\r\n    uint256 public tokenId = 1;\r\n\r\n    // Definir el rol de admin usando AccessControl\r\n    bytes32 public constant ADMIN_ROLE = keccak256(\"ADMIN_ROLE\");\r\n\r\n    struct NFT {\r\n        uint256 tokenId;\r\n        string tokenName;\r\n        address owner;\r\n        string tokenURI;\r\n        uint8 rareza;   // Aadimos el atributo rareza\r\n        uint256 precio; // Precio del NFT, calculado en base a la rareza\r\n        bool enVenta;   // Estado de venta (si el NFT est disponible para comprar)\r\n    }\r\n\r\n    NFT[] public allTokens;\r\n    mapping(address => NFT[]) public ownerTokens; // Almacenamos los tokens de cada usuario\r\n    mapping(string => bool) public tokenExists;\r\n\r\n    // Constructor que otorga el rol de admin al propietario del contrato\r\n    constructor() ERC721(\"MyNFT\", \"NFT\") {\r\n        _setupRole(DEFAULT_ADMIN_ROLE, msg.sender);\r\n        _setupRole(ADMIN_ROLE, msg.sender);\r\n    }\r\n\r\n    // Modificador para restringir el acceso solo a admins\r\n    modifier onlyAdmin() {\r\n        require(hasRole(ADMIN_ROLE, msg.sender), \"Caller is not an admin\");\r\n        _;\r\n    }\r\n\r\n    // Funcin para que solo los admins puedan asignar roles\r\n    function grantAdminRole(address account) public onlyAdmin {\r\n        grantRole(ADMIN_ROLE, account);\r\n    }\r\n\r\n    // Funcin para obtener los tokens de un usuario\r\n    function getMyTokens() public view returns (NFT[] memory) {\r\n        return ownerTokens[msg.sender];\r\n    }\r\n\r\n    // Funcin para obtener todos los tokens creados\r\n    function getAllTokens() public view returns (NFT[] memory) {\r\n        return allTokens;\r\n    }\r\n\r\n    // Determinar precio en base a la rareza\r\n    function determinarPrecio(uint8 _rareza) internal pure returns (uint256) {\r\n        if (_rareza == 1) return 0.5 ether; // Comn\r\n        if (_rareza == 2) return 1 ether;   // Raro\r\n        if (_rareza == 3) return 2 ether;   // pico\r\n        if (_rareza == 4) return 5 ether;   // Legendario\r\n        return 0.5 ether; // Por defecto\r\n    }\r\n\r\n    // Crear un nuevo token NFT (con rareza y precio automtico basado en la rareza)\r\n    function mintToken(\r\n        string calldata _tokenName,\r\n        string calldata _tokenURI,\r\n        uint8 _rareza\r\n    ) public onlyAdmin {\r\n        require(!tokenExists[_tokenName], \"Token already exists\");\r\n        require(_rareza >= 1 && _rareza <= 4, \"Rareza invalida\");\r\n\r\n        uint256 precioFinal = determinarPrecio(_rareza);\r\n\r\n        _safeMint(msg.sender, tokenId);\r\n\r\n        NFT memory newToken = NFT(tokenId, _tokenName, msg.sender, _tokenURI, _rareza, precioFinal, true); // Marcamos en venta\r\n        allTokens.push(newToken);\r\n        ownerTokens[msg.sender].push(newToken);\r\n        tokenExists[_tokenName] = true;\r\n\r\n        tokenId++;\r\n    }\r\n\r\n    // Funcin para comprar un NFT directamente basado en su precio\r\n    function comprarNFT(uint256 _tokenId) public payable {\r\n        require(_exists(_tokenId), \"Token does not exist\");\r\n        NFT storage token = allTokens[_tokenId - 1]; // Obtener el NFT por ID\r\n        require(token.enVenta, unicode\"NFT no est en venta\");\r\n        require(msg.value >= token.precio, unicode\"Fondos insuficientes\");\r\n\r\n        // Transferir el NFT al comprador\r\n        address vendedor = ownerOf(_tokenId);\r\n        _transfer(vendedor, msg.sender, _tokenId);\r\n\r\n        // Transferir los fondos al vendedor\r\n        payable(vendedor).transfer(msg.value);\r\n\r\n        // Actualizar el estado del NFT\r\n        token.owner = msg.sender;\r\n        token.enVenta = false; // Ya no est en venta\r\n    }\r\n\r\n    // Funcin para permitir al propietario poner en venta un NFT nuevamente\r\n    function ponerEnVenta(uint256 _tokenId, uint256 _nuevoPrecio) public {\r\n        require(_exists(_tokenId), \"Token does not exist\");\r\n        require(ownerOf(_tokenId) == msg.sender, unicode\"Solo el dueo puede poner en venta\");\r\n\r\n        NFT storage token = allTokens[_tokenId - 1];\r\n        token.enVenta = true;\r\n        token.precio = _nuevoPrecio;\r\n    }\r\n\r\n    // Funcin para actualizar el tokenURI de un NFT existente (solo admins pueden actualizar)\r\n    function updateTokenURI(uint256 _tokenId, string calldata _newTokenURI) public onlyAdmin {\r\n        require(_exists(_tokenId), \"Token does not exist\");\r\n        allTokens[_tokenId - 1].tokenURI = _newTokenURI;\r\n    }\r\n\r\n    // Funcin para eliminar un token (solo admins pueden eliminar)\r\n    function deleteToken(uint256 _tokenId) public onlyAdmin {\r\n        require(_exists(_tokenId), \"Token does not exist\");\r\n\r\n        address owner = ownerOf(_tokenId);\r\n        \r\n        // Eliminar el token del dueo\r\n        for (uint i = 0; i < ownerTokens[owner].length; i++) {\r\n            if (ownerTokens[owner][i].tokenId == _tokenId) {\r\n                ownerTokens[owner][i] = ownerTokens[owner][ownerTokens[owner].length - 1];\r\n                ownerTokens[owner].pop();\r\n                break;\r\n            }\r\n        }\r\n\r\n        // Eliminar el token de allTokens\r\n        allTokens[_tokenId - 1] = allTokens[allTokens.length - 1];\r\n        allTokens.pop();\r\n\r\n        // Eliminar el token del contrato\r\n        _burn(_tokenId);\r\n    }\r\n\r\n    // Implementacin de la funcin para devolver la URI del token\r\n    function tokenURI(uint256 _tokenId) public view override returns (string memory) {\r\n        require(_exists(_tokenId), \"Token does not exist\");\r\n        return allTokens[_tokenId - 1].tokenURI;\r\n    }\r\n\r\n    // Sobrescribir supportsInterface para evitar conflictos entre ERC721 y AccessControl\r\n    function supportsInterface(bytes4 interfaceId) public view override(ERC721, AccessControl) returns (bool) {\r\n        return super.supportsInterface(interfaceId);\r\n    }\r\n}\r\n",
  "sourcePath": "D:\\descargas\\ntf-projecto\\servidor-ntf\\contracts\\MyNFT.sol",
  "compiler": {
    "name": "solc",
    "version": "0.8.21+commit.d9974bed.Emscripten.clang"
  },
  "schemaVersion": "3.4.16",
  "updatedAt": "2024-09-28T14:03:50.849Z",
  "devdoc": {
    "events": {
      "Approval(address,address,uint256)": {
        "details": "Emitted when `owner` enables `approved` to manage the `tokenId` token."
      },
      "ApprovalForAll(address,address,bool)": {
        "details": "Emitted when `owner` enables or disables (`approved`) `operator` to manage all of its assets."
      },
      "RoleAdminChanged(bytes32,bytes32,bytes32)": {
        "details": "Emitted when `newAdminRole` is set as ``role``'s admin role, replacing `previousAdminRole` `DEFAULT_ADMIN_ROLE` is the starting admin for all roles, despite {RoleAdminChanged} not being emitted signaling this. _Available since v3.1._"
      },
      "RoleGranted(bytes32,address,address)": {
        "details": "Emitted when `account` is granted `role`. `sender` is the account that originated the contract call, an admin role bearer except when using {_setupRole}."
      },
      "RoleRevoked(bytes32,address,address)": {
        "details": "Emitted when `account` is revoked `role`. `sender` is the account that originated the contract call:   - if using `revokeRole`, it is the admin role bearer   - if using `renounceRole`, it is the role bearer (i.e. `account`)"
      },
      "Transfer(address,address,uint256)": {
        "details": "Emitted when `tokenId` token is transferred from `from` to `to`."
      }
    },
    "kind": "dev",
    "methods": {
      "approve(address,uint256)": {
        "details": "See {IERC721-approve}."
      },
      "balanceOf(address)": {
        "details": "See {IERC721-balanceOf}."
      },
      "getApproved(uint256)": {
        "details": "See {IERC721-getApproved}."
      },
      "getRoleAdmin(bytes32)": {
        "details": "Returns the admin role that controls `role`. See {grantRole} and {revokeRole}. To change a role's admin, use {_setRoleAdmin}."
      },
      "grantRole(bytes32,address)": {
        "details": "Grants `role` to `account`. If `account` had not been already granted `role`, emits a {RoleGranted} event. Requirements: - the caller must have ``role``'s admin role."
      },
      "hasRole(bytes32,address)": {
        "details": "Returns `true` if `account` has been granted `role`."
      },
      "isApprovedForAll(address,address)": {
        "details": "See {IERC721-isApprovedForAll}."
      },
      "name()": {
        "details": "See {IERC721Metadata-name}."
      },
      "owner()": {
        "details": "Returns the address of the current owner."
      },
      "ownerOf(uint256)": {
        "details": "See {IERC721-ownerOf}."
      },
      "renounceOwnership()": {
        "details": "Leaves the contract without owner. It will not be possible to call `onlyOwner` functions anymore. Can only be called by the current owner. NOTE: Renouncing ownership will leave the contract without an owner, thereby removing any functionality that is only available to the owner."
      },
      "renounceRole(bytes32,address)": {
        "details": "Revokes `role` from the calling account. Roles are often managed via {grantRole} and {revokeRole}: this function's purpose is to provide a mechanism for accounts to lose their privileges if they are compromised (such as when a trusted device is misplaced). If the calling account had been granted `role`, emits a {RoleRevoked} event. Requirements: - the caller must be `account`."
      },
      "revokeRole(bytes32,address)": {
        "details": "Revokes `role` from `account`. If `account` had been granted `role`, emits a {RoleRevoked} event. Requirements: - the caller must have ``role``'s admin role."
      },
      "safeTransferFrom(address,address,uint256)": {
        "details": "See {IERC721-safeTransferFrom}."
      },
      "safeTransferFrom(address,address,uint256,bytes)": {
        "details": "See {IERC721-safeTransferFrom}."
      },
      "setApprovalForAll(address,bool)": {
        "details": "See {IERC721-setApprovalForAll}."
      },
      "symbol()": {
        "details": "See {IERC721Metadata-symbol}."
      },
      "transferFrom(address,address,uint256)": {
        "details": "See {IERC721-transferFrom}."
      },
      "transferOwnership(address)": {
        "details": "Transfers ownership of the contract to a new account (`newOwner`). Can only be called by the current owner."
      }
    },
    "version": 1
  },
  "userdoc": {
    "kind": "user",
    "methods": {},
    "version": 1
  }
}