{
  "_format": "hh-sol-artifact-1",
  "contractName": "SimpleNftLowerGas",
  "sourceName": "contracts/SimpleNftLowerGas.sol",
  "abi": [
    {
      "inputs": [],
      "stateMutability": "nonpayable",
      "type": "constructor"
    },
    {
      "anonymous": false,
      "inputs": [
        {
          "indexed": true,
          "internalType": "address",
          "name": "owner",
          "type": "address"
        },
        {
          "indexed": true,
          "internalType": "address",
          "name": "approved",
          "type": "address"
        },
        {
          "indexed": true,
          "internalType": "uint256",
          "name": "tokenId",
          "type": "uint256"
        }
      ],
      "name": "Approval",
      "type": "event"
    },
    {
      "anonymous": false,
      "inputs": [
        {
          "indexed": true,
          "internalType": "address",
          "name": "owner",
          "type": "address"
        },
        {
          "indexed": true,
          "internalType": "address",
          "name": "operator",
          "type": "address"
        },
        {
          "indexed": false,
          "internalType": "bool",
          "name": "approved",
          "type": "bool"
        }
      ],
      "name": "ApprovalForAll",
      "type": "event"
    },
    {
      "anonymous": false,
      "inputs": [
        {
          "indexed": true,
          "internalType": "address",
          "name": "previousOwner",
          "type": "address"
        },
        {
          "indexed": true,
          "internalType": "address",
          "name": "newOwner",
          "type": "address"
        }
      ],
      "name": "OwnershipTransferred",
      "type": "event"
    },
    {
      "anonymous": false,
      "inputs": [
        {
          "indexed": true,
          "internalType": "address",
          "name": "from",
          "type": "address"
        },
        {
          "indexed": true,
          "internalType": "address",
          "name": "to",
          "type": "address"
        },
        {
          "indexed": true,
          "internalType": "uint256",
          "name": "tokenId",
          "type": "uint256"
        }
      ],
      "name": "Transfer",
      "type": "event"
    },
    {
      "inputs": [
        {
          "internalType": "address",
          "name": "to",
          "type": "address"
        },
        {
          "internalType": "uint256",
          "name": "tokenId",
          "type": "uint256"
        }
      ],
      "name": "approve",
      "outputs": [],
      "stateMutability": "nonpayable",
      "type": "function"
    },
    {
      "inputs": [
        {
          "internalType": "address",
          "name": "owner",
          "type": "address"
        }
      ],
      "name": "balanceOf",
      "outputs": [
        {
          "internalType": "uint256",
          "name": "",
          "type": "uint256"
        }
      ],
      "stateMutability": "view",
      "type": "function"
    },
    {
      "inputs": [],
      "name": "cost",
      "outputs": [
        {
          "internalType": "uint256",
          "name": "",
          "type": "uint256"
        }
      ],
      "stateMutability": "view",
      "type": "function"
    },
    {
      "inputs": [
        {
          "internalType": "uint256",
          "name": "tokenId1",
          "type": "uint256"
        },
        {
          "internalType": "uint256",
          "name": "tokenId2",
          "type": "uint256"
        }
      ],
      "name": "fusionarNFTs",
      "outputs": [],
      "stateMutability": "nonpayable",
      "type": "function"
    },
    {
      "inputs": [
        {
          "internalType": "uint256",
          "name": "tokenId",
          "type": "uint256"
        }
      ],
      "name": "getApproved",
      "outputs": [
        {
          "internalType": "address",
          "name": "",
          "type": "address"
        }
      ],
      "stateMutability": "view",
      "type": "function"
    },
    {
      "inputs": [],
      "name": "hiddenMetadataUri",
      "outputs": [
        {
          "internalType": "string",
          "name": "",
          "type": "string"
        }
      ],
      "stateMutability": "view",
      "type": "function"
    },
    {
      "inputs": [
        {
          "internalType": "address",
          "name": "owner",
          "type": "address"
        },
        {
          "internalType": "address",
          "name": "operator",
          "type": "address"
        }
      ],
      "name": "isApprovedForAll",
      "outputs": [
        {
          "internalType": "bool",
          "name": "",
          "type": "bool"
        }
      ],
      "stateMutability": "view",
      "type": "function"
    },
    {
      "inputs": [],
      "name": "maxMintAmountPerTx",
      "outputs": [
        {
          "internalType": "uint256",
          "name": "",
          "type": "uint256"
        }
      ],
      "stateMutability": "view",
      "type": "function"
    },
    {
      "inputs": [],
      "name": "maxSupply",
      "outputs": [
        {
          "internalType": "uint256",
          "name": "",
          "type": "uint256"
        }
      ],
      "stateMutability": "view",
      "type": "function"
    },
    {
      "inputs": [
        {
          "internalType": "uint256",
          "name": "_mintAmount",
          "type": "uint256"
        },
        {
          "internalType": "enum SimpleNftLowerGas.Rareza",
          "name": "_rareza",
          "type": "uint8"
        }
      ],
      "name": "mint",
      "outputs": [],
      "stateMutability": "payable",
      "type": "function"
    },
    {
      "inputs": [
        {
          "internalType": "uint256",
          "name": "_mintAmount",
          "type": "uint256"
        },
        {
          "internalType": "address",
          "name": "_receiver",
          "type": "address"
        },
        {
          "internalType": "enum SimpleNftLowerGas.Rareza",
          "name": "_rareza",
          "type": "uint8"
        }
      ],
      "name": "mintForAddress",
      "outputs": [],
      "stateMutability": "nonpayable",
      "type": "function"
    },
    {
      "inputs": [],
      "name": "name",
      "outputs": [
        {
          "internalType": "string",
          "name": "",
          "type": "string"
        }
      ],
      "stateMutability": "view",
      "type": "function"
    },
    {
      "inputs": [
        {
          "internalType": "uint256",
          "name": "",
          "type": "uint256"
        }
      ],
      "name": "nftDetails",
      "outputs": [
        {
          "internalType": "enum SimpleNftLowerGas.Rareza",
          "name": "rareza",
          "type": "uint8"
        },
        {
          "internalType": "bool",
          "name": "fusionado",
          "type": "bool"
        }
      ],
      "stateMutability": "view",
      "type": "function"
    },
    {
      "inputs": [],
      "name": "owner",
      "outputs": [
        {
          "internalType": "address",
          "name": "",
          "type": "address"
        }
      ],
      "stateMutability": "view",
      "type": "function"
    },
    {
      "inputs": [
        {
          "internalType": "uint256",
          "name": "tokenId",
          "type": "uint256"
        }
      ],
      "name": "ownerOf",
      "outputs": [
        {
          "internalType": "address",
          "name": "",
          "type": "address"
        }
      ],
      "stateMutability": "view",
      "type": "function"
    },
    {
      "inputs": [],
      "name": "paused",
      "outputs": [
        {
          "internalType": "bool",
          "name": "",
          "type": "bool"
        }
      ],
      "stateMutability": "view",
      "type": "function"
    },
    {
      "inputs": [],
      "name": "renounceOwnership",
      "outputs": [],
      "stateMutability": "nonpayable",
      "type": "function"
    },
    {
      "inputs": [],
      "name": "revealed",
      "outputs": [
        {
          "internalType": "bool",
          "name": "",
          "type": "bool"
        }
      ],
      "stateMutability": "view",
      "type": "function"
    },
    {
      "inputs": [
        {
          "internalType": "address",
          "name": "from",
          "type": "address"
        },
        {
          "internalType": "address",
          "name": "to",
          "type": "address"
        },
        {
          "internalType": "uint256",
          "name": "tokenId",
          "type": "uint256"
        }
      ],
      "name": "safeTransferFrom",
      "outputs": [],
      "stateMutability": "nonpayable",
      "type": "function"
    },
    {
      "inputs": [
        {
          "internalType": "address",
          "name": "from",
          "type": "address"
        },
        {
          "internalType": "address",
          "name": "to",
          "type": "address"
        },
        {
          "internalType": "uint256",
          "name": "tokenId",
          "type": "uint256"
        },
        {
          "internalType": "bytes",
          "name": "data",
          "type": "bytes"
        }
      ],
      "name": "safeTransferFrom",
      "outputs": [],
      "stateMutability": "nonpayable",
      "type": "function"
    },
    {
      "inputs": [
        {
          "internalType": "address",
          "name": "operator",
          "type": "address"
        },
        {
          "internalType": "bool",
          "name": "approved",
          "type": "bool"
        }
      ],
      "name": "setApprovalForAll",
      "outputs": [],
      "stateMutability": "nonpayable",
      "type": "function"
    },
    {
      "inputs": [
        {
          "internalType": "uint256",
          "name": "_cost",
          "type": "uint256"
        }
      ],
      "name": "setCost",
      "outputs": [],
      "stateMutability": "nonpayable",
      "type": "function"
    },
    {
      "inputs": [
        {
          "internalType": "string",
          "name": "_hiddenMetadataUri",
          "type": "string"
        }
      ],
      "name": "setHiddenMetadataUri",
      "outputs": [],
      "stateMutability": "nonpayable",
      "type": "function"
    },
    {
      "inputs": [
        {
          "internalType": "uint256",
          "name": "_maxMintAmountPerTx",
          "type": "uint256"
        }
      ],
      "name": "setMaxMintAmountPerTx",
      "outputs": [],
      "stateMutability": "nonpayable",
      "type": "function"
    },
    {
      "inputs": [
        {
          "internalType": "bool",
          "name": "_state",
          "type": "bool"
        }
      ],
      "name": "setPaused",
      "outputs": [],
      "stateMutability": "nonpayable",
      "type": "function"
    },
    {
      "inputs": [
        {
          "internalType": "bool",
          "name": "_state",
          "type": "bool"
        }
      ],
      "name": "setRevealed",
      "outputs": [],
      "stateMutability": "nonpayable",
      "type": "function"
    },
    {
      "inputs": [
        {
          "internalType": "string",
          "name": "_uriPrefix",
          "type": "string"
        }
      ],
      "name": "setUriPrefix",
      "outputs": [],
      "stateMutability": "nonpayable",
      "type": "function"
    },
    {
      "inputs": [
        {
          "internalType": "string",
          "name": "_uriSuffix",
          "type": "string"
        }
      ],
      "name": "setUriSuffix",
      "outputs": [],
      "stateMutability": "nonpayable",
      "type": "function"
    },
    {
      "inputs": [
        {
          "internalType": "bytes4",
          "name": "interfaceId",
          "type": "bytes4"
        }
      ],
      "name": "supportsInterface",
      "outputs": [
        {
          "internalType": "bool",
          "name": "",
          "type": "bool"
        }
      ],
      "stateMutability": "view",
      "type": "function"
    },
    {
      "inputs": [],
      "name": "symbol",
      "outputs": [
        {
          "internalType": "string",
          "name": "",
          "type": "string"
        }
      ],
      "stateMutability": "view",
      "type": "function"
    },
    {
      "inputs": [
        {
          "internalType": "uint256",
          "name": "_tokenId",
          "type": "uint256"
        }
      ],
      "name": "tokenURI",
      "outputs": [
        {
          "internalType": "string",
          "name": "",
          "type": "string"
        }
      ],
      "stateMutability": "view",
      "type": "function"
    },
    {
      "inputs": [],
      "name": "totalSupply",
      "outputs": [
        {
          "internalType": "uint256",
          "name": "",
          "type": "uint256"
        }
      ],
      "stateMutability": "view",
      "type": "function"
    },
    {
      "inputs": [
        {
          "internalType": "address",
          "name": "from",
          "type": "address"
        },
        {
          "internalType": "address",
          "name": "to",
          "type": "address"
        },
        {
          "internalType": "uint256",
          "name": "tokenId",
          "type": "uint256"
        }
      ],
      "name": "transferFrom",
      "outputs": [],
      "stateMutability": "nonpayable",
      "type": "function"
    },
    {
      "inputs": [
        {
          "internalType": "address",
          "name": "newOwner",
          "type": "address"
        }
      ],
      "name": "transferOwnership",
      "outputs": [],
      "stateMutability": "nonpayable",
      "type": "function"
    },
    {
      "inputs": [],
      "name": "uriPrefix",
      "outputs": [
        {
          "internalType": "string",
          "name": "",
          "type": "string"
        }
      ],
      "stateMutability": "view",
      "type": "function"
    },
    {
      "inputs": [],
      "name": "uriSuffix",
      "outputs": [
        {
          "internalType": "string",
          "name": "",
          "type": "string"
        }
      ],
      "stateMutability": "view",
      "type": "function"
    },
    {
      "inputs": [
        {
          "internalType": "address",
          "name": "_owner",
          "type": "address"
        }
      ],
      "name": "walletOfOwner",
      "outputs": [
        {
          "internalType": "uint256[]",
          "name": "",
          "type": "uint256[]"
        }
      ],
      "stateMutability": "view",
      "type": "function"
    },
    {
      "inputs": [],
      "name": "withdraw",
      "outputs": [],
      "stateMutability": "nonpayable",
      "type": "function"
    }
  ],
  "bytecode": "0x6080604052604051806020016040528060008152506008908161002291906105a7565b506040518060400160405280600581526020017f2e6a736f6e0000000000000000000000000000000000000000000000000000008152506009908161006791906105a7565b50662386f26fc10000600b55612710600c556005600d556001600e60006101000a81548160ff0219169083151502179055506000600e60016101000a81548160ff0219169083151502179055503480156100c057600080fd5b506040518060400160405280600581526020017f4d794e46540000000000000000000000000000000000000000000000000000008152506040518060400160405280600481526020017f4d4e465400000000000000000000000000000000000000000000000000000000815250816000908161013c91906105a7565b50806001908161014c91906105a7565b50505061016b6101606101b460201b60201c565b6101bc60201b60201c565b6101af6040518060400160405280601a81526020017f697066733a2f2f5f5f4349445f5f2f68696464656e2e6a736f6e00000000000081525061028260201b60201c565b6106f6565b600033905090565b6000600660009054906101000a900473ffffffffffffffffffffffffffffffffffffffff16905081600660006101000a81548173ffffffffffffffffffffffffffffffffffffffff021916908373ffffffffffffffffffffffffffffffffffffffff1602179055508173ffffffffffffffffffffffffffffffffffffffff168173ffffffffffffffffffffffffffffffffffffffff167f8be0079c531659141344cd1fd0a4f28419497f9722a3daafe3b4186f6b6457e060405160405180910390a35050565b6102906102a360201b60201c565b80600a908161029f91906105a7565b5050565b6102b16101b460201b60201c565b73ffffffffffffffffffffffffffffffffffffffff166102d561032d60201b60201c565b73ffffffffffffffffffffffffffffffffffffffff161461032b576040517f08c379a0000000000000000000000000000000000000000000000000000000008152600401610322906106d6565b60405180910390fd5b565b6000600660009054906101000a900473ffffffffffffffffffffffffffffffffffffffff16905090565b600081519050919050565b7f4e487b7100000000000000000000000000000000000000000000000000000000600052604160045260246000fd5b7f4e487b7100000000000000000000000000000000000000000000000000000000600052602260045260246000fd5b600060028204905060018216806103d857607f821691505b6020821081036103eb576103ea610391565b5b50919050565b60008190508160005260206000209050919050565b60006020601f8301049050919050565b600082821b905092915050565b6000600883026104537fffffffffffffffffffffffffffffffffffffffffffffffffffffffffffffffff82610416565b61045d8683610416565b95508019841693508086168417925050509392505050565b6000819050919050565b6000819050919050565b60006104a461049f61049a84610475565b61047f565b610475565b9050919050565b6000819050919050565b6104be83610489565b6104d26104ca826104ab565b848454610423565b825550505050565b600090565b6104e76104da565b6104f28184846104b5565b505050565b5b818110156105165761050b6000826104df565b6001810190506104f8565b5050565b601f82111561055b5761052c816103f1565b61053584610406565b81016020851015610544578190505b61055861055085610406565b8301826104f7565b50505b505050565b600082821c905092915050565b600061057e60001984600802610560565b1980831691505092915050565b6000610597838361056d565b9150826002028217905092915050565b6105b082610357565b67ffffffffffffffff8111156105c9576105c8610362565b5b6105d382546103c0565b6105de82828561051a565b600060209050601f83116001811461061157600084156105ff578287015190505b610609858261058b565b865550610671565b601f19841661061f866103f1565b60005b8281101561064757848901518255600182019150602085019450602081019050610622565b868310156106645784890151610660601f89168261056d565b8355505b6001600288020188555050505b505050505050565b600082825260208201905092915050565b7f4f776e61626c653a2063616c6c6572206973206e6f7420746865206f776e6572600082015250565b60006106c0602083610679565b91506106cb8261068a565b602082019050919050565b600060208201905081810360008301526106ef816106b3565b9050919050565b614748806107056000396000f3fe6080604052600436106102255760003560e01c806362b99ad411610123578063a22cb465116100ab578063d5abeb011161006f578063d5abeb01146107f2578063e0a808531461081d578063e985e9c514610846578063f2fde38b14610883578063fb2f1ffb146108ac57610225565b8063a22cb4651461070f578063a45ba8e714610738578063b071401b14610763578063b88d4fde1461078c578063c87b56dd146107b557610225565b80637d4cd847116100f25780637d4cd847146106275780637ec4a659146106655780638da5cb5b1461068e57806394354fd0146106b957806395d89b41146106e457610225565b806362b99ad41461056b5780636352211e1461059657806370a08231146105d3578063715018a61461061057610225565b806323b872dd116101b157806344a0d68a1161017557806344a0d68a146104985780634fdd43cb146104c157806351830227146104ea5780635503a0e8146105155780635c975abb1461054057610225565b806323b872dd146103c95780633ccfd60b146103f257806341190bad1461040957806342842e0e14610432578063438b63001461045b57610225565b80631265f1fa116101f85780631265f1fa146102f857806313faede61461032157806316ba10e01461034c57806316c38b3c1461037557806318160ddd1461039e57610225565b806301ffc9a71461022a57806306fdde0314610267578063081812fc14610292578063095ea7b3146102cf575b600080fd5b34801561023657600080fd5b50610251600480360381019061024c9190612ce3565b6108c8565b60405161025e9190612d2b565b60405180910390f35b34801561027357600080fd5b5061027c6109aa565b6040516102899190612dd6565b60405180910390f35b34801561029e57600080fd5b506102b960048036038101906102b49190612e2e565b610a3c565b6040516102c69190612e9c565b60405180910390f35b3480156102db57600080fd5b506102f660048036038101906102f19190612ee3565b610a82565b005b34801561030457600080fd5b5061031f600480360381019061031a9190612f23565b610b99565b005b34801561032d57600080fd5b50610336610e5c565b6040516103439190612f72565b60405180910390f35b34801561035857600080fd5b50610373600480360381019061036e91906130c2565b610e62565b005b34801561038157600080fd5b5061039c60048036038101906103979190613137565b610e7d565b005b3480156103aa57600080fd5b506103b3610ea2565b6040516103c09190612f72565b60405180910390f35b3480156103d557600080fd5b506103f060048036038101906103eb9190613164565b610eb3565b005b3480156103fe57600080fd5b50610407610f13565b005b34801561041557600080fd5b50610430600480360381019061042b91906131dc565b610fd1565b005b34801561043e57600080fd5b5061045960048036038101906104549190613164565b611095565b005b34801561046757600080fd5b50610482600480360381019061047d919061322f565b6110b5565b60405161048f919061331a565b60405180910390f35b3480156104a457600080fd5b506104bf60048036038101906104ba9190612e2e565b6111bf565b005b3480156104cd57600080fd5b506104e860048036038101906104e391906130c2565b6111d1565b005b3480156104f657600080fd5b506104ff6111ec565b60405161050c9190612d2b565b60405180910390f35b34801561052157600080fd5b5061052a6111ff565b6040516105379190612dd6565b60405180910390f35b34801561054c57600080fd5b5061055561128d565b6040516105629190612d2b565b60405180910390f35b34801561057757600080fd5b506105806112a0565b60405161058d9190612dd6565b60405180910390f35b3480156105a257600080fd5b506105bd60048036038101906105b89190612e2e565b61132e565b6040516105ca9190612e9c565b60405180910390f35b3480156105df57600080fd5b506105fa60048036038101906105f5919061322f565b6113b4565b6040516106079190612f72565b60405180910390f35b34801561061c57600080fd5b5061062561146b565b005b34801561063357600080fd5b5061064e60048036038101906106499190612e2e565b61147f565b60405161065c9291906133b3565b60405180910390f35b34801561067157600080fd5b5061068c600480360381019061068791906130c2565b6114bd565b005b34801561069a57600080fd5b506106a36114d8565b6040516106b09190612e9c565b60405180910390f35b3480156106c557600080fd5b506106ce611502565b6040516106db9190612f72565b60405180910390f35b3480156106f057600080fd5b506106f9611508565b6040516107069190612dd6565b60405180910390f35b34801561071b57600080fd5b50610736600480360381019061073191906133dc565b61159a565b005b34801561074457600080fd5b5061074d6115b0565b60405161075a9190612dd6565b60405180910390f35b34801561076f57600080fd5b5061078a60048036038101906107859190612e2e565b61163e565b005b34801561079857600080fd5b506107b360048036038101906107ae91906134bd565b611650565b005b3480156107c157600080fd5b506107dc60048036038101906107d79190612e2e565b6116b2565b6040516107e99190612dd6565b60405180910390f35b3480156107fe57600080fd5b5061080761180a565b6040516108149190612f72565b60405180910390f35b34801561082957600080fd5b50610844600480360381019061083f9190613137565b611810565b005b34801561085257600080fd5b5061086d60048036038101906108689190613540565b611835565b60405161087a9190612d2b565b60405180910390f35b34801561088f57600080fd5b506108aa60048036038101906108a5919061322f565b6118c9565b005b6108c660048036038101906108c19190613580565b61194c565b005b60007f80ac58cd000000000000000000000000000000000000000000000000000000007bffffffffffffffffffffffffffffffffffffffffffffffffffffffff1916827bffffffffffffffffffffffffffffffffffffffffffffffffffffffff1916148061099357507f5b5e139f000000000000000000000000000000000000000000000000000000007bffffffffffffffffffffffffffffffffffffffffffffffffffffffff1916827bffffffffffffffffffffffffffffffffffffffffffffffffffffffff1916145b806109a357506109a282611aa7565b5b9050919050565b6060600080546109b9906135ef565b80601f01602080910402602001604051908101604052809291908181526020018280546109e5906135ef565b8015610a325780601f10610a0757610100808354040283529160200191610a32565b820191906000526020600020905b815481529060010190602001808311610a1557829003601f168201915b5050505050905090565b6000610a4782611b11565b6004600083815260200190815260200160002060009054906101000a900473ffffffffffffffffffffffffffffffffffffffff169050919050565b6000610a8d8261132e565b90508073ffffffffffffffffffffffffffffffffffffffff168373ffffffffffffffffffffffffffffffffffffffff1603610afd576040517f08c379a0000000000000000000000000000000000000000000000000000000008152600401610af490613692565b60405180910390fd5b8073ffffffffffffffffffffffffffffffffffffffff16610b1c611b5c565b73ffffffffffffffffffffffffffffffffffffffff161480610b4b5750610b4a81610b45611b5c565b611835565b5b610b8a576040517f08c379a0000000000000000000000000000000000000000000000000000000008152600401610b8190613724565b60405180910390fd5b610b948383611b64565b505050565b3373ffffffffffffffffffffffffffffffffffffffff16610bb98361132e565b73ffffffffffffffffffffffffffffffffffffffff16148015610c0f57503373ffffffffffffffffffffffffffffffffffffffff16610bf78261132e565b73ffffffffffffffffffffffffffffffffffffffff16145b610c4e576040517f08c379a0000000000000000000000000000000000000000000000000000000008152600401610c45906137b6565b60405180910390fd5b600f600082815260200190815260200160002060000160009054906101000a900460ff166003811115610c8457610c8361333c565b5b600f600084815260200190815260200160002060000160009054906101000a900460ff166003811115610cba57610cb961333c565b5b14610cfa576040517f08c379a0000000000000000000000000000000000000000000000000000000008152600401610cf190613848565b60405180910390fd5b600380811115610d0d57610d0c61333c565b5b600f600084815260200190815260200160002060000160009054906101000a900460ff166003811115610d4357610d4261333c565b5b03610d83576040517f08c379a0000000000000000000000000000000000000000000000000000000008152600401610d7a906138da565b60405180910390fd5b6001600f600084815260200190815260200160002060000160016101000a81548160ff0219169083151502179055506001600f600083815260200190815260200160002060000160016101000a81548160ff021916908315150217905550610dea82611c1d565b610df381611c1d565b60006001600f600085815260200190815260200160002060000160009054906101000a900460ff166003811115610e2d57610e2c61333c565b5b610e379190613929565b6003811115610e4957610e4861333c565b5b9050610e5733600183611d6b565b505050565b600b5481565b610e6a611e3c565b8060099081610e799190613b09565b5050565b610e85611e3c565b80600e60006101000a81548160ff02191690831515021790555050565b6000610eae6007611eba565b905090565b610ec4610ebe611b5c565b82611ec8565b610f03576040517f08c379a0000000000000000000000000000000000000000000000000000000008152600401610efa90613c4d565b60405180910390fd5b610f0e838383611f5d565b505050565b610f1b611e3c565b6000610f256114d8565b73ffffffffffffffffffffffffffffffffffffffff1647604051610f4890613c9e565b60006040518083038185875af1925050503d8060008114610f85576040519150601f19603f3d011682016040523d82523d6000602084013e610f8a565b606091505b5050905080610fce576040517f08c379a0000000000000000000000000000000000000000000000000000000008152600401610fc590613cff565b60405180910390fd5b50565b82600081118015610fe45750600d548111155b611023576040517f08c379a000000000000000000000000000000000000000000000000000000000815260040161101a90613d6b565b60405180910390fd5b600c54816110316007611eba565b61103b9190613929565b111561107c576040517f08c379a000000000000000000000000000000000000000000000000000000000815260040161107390613dd7565b60405180910390fd5b611084611e3c565b61108f838584611d6b565b50505050565b6110b083838360405180602001604052806000815250611650565b505050565b606060006110c2836113b4565b905060008167ffffffffffffffff8111156110e0576110df612f97565b5b60405190808252806020026020018201604052801561110e5781602001602082028036833780820191505090505b50905060006001905060005b838110801561112b5750600c548211155b156111b357600061113b8361132e565b90508673ffffffffffffffffffffffffffffffffffffffff168173ffffffffffffffffffffffffffffffffffffffff160361119f578284838151811061118457611183613df7565b5b602002602001018181525050818061119b90613e26565b9250505b82806111aa90613e26565b9350505061111a565b82945050505050919050565b6111c7611e3c565b80600b8190555050565b6111d9611e3c565b80600a90816111e89190613b09565b5050565b600e60019054906101000a900460ff1681565b6009805461120c906135ef565b80601f0160208091040260200160405190810160405280929190818152602001828054611238906135ef565b80156112855780601f1061125a57610100808354040283529160200191611285565b820191906000526020600020905b81548152906001019060200180831161126857829003601f168201915b505050505081565b600e60009054906101000a900460ff1681565b600880546112ad906135ef565b80601f01602080910402602001604051908101604052809291908181526020018280546112d9906135ef565b80156113265780601f106112fb57610100808354040283529160200191611326565b820191906000526020600020905b81548152906001019060200180831161130957829003601f168201915b505050505081565b60008061133a83612256565b9050600073ffffffffffffffffffffffffffffffffffffffff168173ffffffffffffffffffffffffffffffffffffffff16036113ab576040517f08c379a00000000000000000000000000000000000000000000000000000000081526004016113a290613eba565b60405180910390fd5b80915050919050565b60008073ffffffffffffffffffffffffffffffffffffffff168273ffffffffffffffffffffffffffffffffffffffff1603611424576040517f08c379a000000000000000000000000000000000000000000000000000000000815260040161141b90613f4c565b60405180910390fd5b600360008373ffffffffffffffffffffffffffffffffffffffff1673ffffffffffffffffffffffffffffffffffffffff168152602001908152602001600020549050919050565b611473611e3c565b61147d6000612293565b565b600f6020528060005260406000206000915090508060000160009054906101000a900460ff16908060000160019054906101000a900460ff16905082565b6114c5611e3c565b80600890816114d49190613b09565b5050565b6000600660009054906101000a900473ffffffffffffffffffffffffffffffffffffffff16905090565b600d5481565b606060018054611517906135ef565b80601f0160208091040260200160405190810160405280929190818152602001828054611543906135ef565b80156115905780601f1061156557610100808354040283529160200191611590565b820191906000526020600020905b81548152906001019060200180831161157357829003601f168201915b5050505050905090565b6115ac6115a5611b5c565b8383612359565b5050565b600a80546115bd906135ef565b80601f01602080910402602001604051908101604052809291908181526020018280546115e9906135ef565b80156116365780601f1061160b57610100808354040283529160200191611636565b820191906000526020600020905b81548152906001019060200180831161161957829003601f168201915b505050505081565b611646611e3c565b80600d8190555050565b61166161165b611b5c565b83611ec8565b6116a0576040517f08c379a000000000000000000000000000000000000000000000000000000000815260040161169790613c4d565b60405180910390fd5b6116ac848484846124c5565b50505050565b60606116bd82612521565b6116fc576040517f08c379a00000000000000000000000000000000000000000000000000000000081526004016116f390613fde565b60405180910390fd5b60001515600e60019054906101000a900460ff161515036117a957600a8054611724906135ef565b80601f0160208091040260200160405190810160405280929190818152602001828054611750906135ef565b801561179d5780601f106117725761010080835404028352916020019161179d565b820191906000526020600020905b81548152906001019060200180831161178057829003601f168201915b50505050509050611805565b60006117b3612562565b905060008151116117d35760405180602001604052806000815250611801565b806117dd846125f4565b60096040516020016117f1939291906140bd565b6040516020818303038152906040525b9150505b919050565b600c5481565b611818611e3c565b80600e60016101000a81548160ff02191690831515021790555050565b6000600560008473ffffffffffffffffffffffffffffffffffffffff1673ffffffffffffffffffffffffffffffffffffffff16815260200190815260200160002060008373ffffffffffffffffffffffffffffffffffffffff1673ffffffffffffffffffffffffffffffffffffffff16815260200190815260200160002060009054906101000a900460ff16905092915050565b6118d1611e3c565b600073ffffffffffffffffffffffffffffffffffffffff168173ffffffffffffffffffffffffffffffffffffffff1603611940576040517f08c379a000000000000000000000000000000000000000000000000000000000815260040161193790614160565b60405180910390fd5b61194981612293565b50565b8160008111801561195f5750600d548111155b61199e576040517f08c379a000000000000000000000000000000000000000000000000000000000815260040161199590613d6b565b60405180910390fd5b600c54816119ac6007611eba565b6119b69190613929565b11156119f7576040517f08c379a00000000000000000000000000000000000000000000000000000000081526004016119ee90613dd7565b60405180910390fd5b600e60009054906101000a900460ff1615611a47576040517f08c379a0000000000000000000000000000000000000000000000000000000008152600401611a3e906141cc565b60405180910390fd5b82600b54611a5591906141ec565b341015611a97576040517f08c379a0000000000000000000000000000000000000000000000000000000008152600401611a8e9061427a565b60405180910390fd5b611aa2338484611d6b565b505050565b60007f01ffc9a7000000000000000000000000000000000000000000000000000000007bffffffffffffffffffffffffffffffffffffffffffffffffffffffff1916827bffffffffffffffffffffffffffffffffffffffffffffffffffffffff1916149050919050565b611b1a81612521565b611b59576040517f08c379a0000000000000000000000000000000000000000000000000000000008152600401611b5090613eba565b60405180910390fd5b50565b600033905090565b816004600083815260200190815260200160002060006101000a81548173ffffffffffffffffffffffffffffffffffffffff021916908373ffffffffffffffffffffffffffffffffffffffff160217905550808273ffffffffffffffffffffffffffffffffffffffff16611bd78361132e565b73ffffffffffffffffffffffffffffffffffffffff167f8c5be1e5ebec7d5bd14f71427d1e84f3dd0314c0f7b2291e5b200ac8c7c3b92560405160405180910390a45050565b6000611c288261132e565b9050611c388160008460016126c2565b611c418261132e565b90506004600083815260200190815260200160002060006101000a81549073ffffffffffffffffffffffffffffffffffffffff02191690556001600360008373ffffffffffffffffffffffffffffffffffffffff1673ffffffffffffffffffffffffffffffffffffffff168152602001908152602001600020600082825403925050819055506002600083815260200190815260200160002060006101000a81549073ffffffffffffffffffffffffffffffffffffffff021916905581600073ffffffffffffffffffffffffffffffffffffffff168273ffffffffffffffffffffffffffffffffffffffff167fddf252ad1be2c89b69c2b068fc378daa952ba7f163c4a11628f55a4df523b3ef60405160405180910390a4611d678160008460016126c8565b5050565b60005b82811015611e3657611d8060076126ce565b6000611d8c6007611eba565b9050611d9885826126e4565b6040518060400160405280846003811115611db657611db561333c565b5b815260200160001515815250600f600083815260200190815260200160002060008201518160000160006101000a81548160ff02191690836003811115611e0057611dff61333c565b5b021790555060208201518160000160016101000a81548160ff021916908315150217905550905050508080600101915050611d6e565b50505050565b611e44611b5c565b73ffffffffffffffffffffffffffffffffffffffff16611e626114d8565b73ffffffffffffffffffffffffffffffffffffffff1614611eb8576040517f08c379a0000000000000000000000000000000000000000000000000000000008152600401611eaf906142e6565b60405180910390fd5b565b600081600001549050919050565b600080611ed48361132e565b90508073ffffffffffffffffffffffffffffffffffffffff168473ffffffffffffffffffffffffffffffffffffffff161480611f165750611f158185611835565b5b80611f5457508373ffffffffffffffffffffffffffffffffffffffff16611f3c84610a3c565b73ffffffffffffffffffffffffffffffffffffffff16145b91505092915050565b8273ffffffffffffffffffffffffffffffffffffffff16611f7d8261132e565b73ffffffffffffffffffffffffffffffffffffffff1614611fd3576040517f08c379a0000000000000000000000000000000000000000000000000000000008152600401611fca90614378565b60405180910390fd5b600073ffffffffffffffffffffffffffffffffffffffff168273ffffffffffffffffffffffffffffffffffffffff1603612042576040517f08c379a00000000000000000000000000000000000000000000000000000000081526004016120399061440a565b60405180910390fd5b61204f83838360016126c2565b8273ffffffffffffffffffffffffffffffffffffffff1661206f8261132e565b73ffffffffffffffffffffffffffffffffffffffff16146120c5576040517f08c379a00000000000000000000000000000000000000000000000000000000081526004016120bc90614378565b60405180910390fd5b6004600082815260200190815260200160002060006101000a81549073ffffffffffffffffffffffffffffffffffffffff02191690556001600360008573ffffffffffffffffffffffffffffffffffffffff1673ffffffffffffffffffffffffffffffffffffffff168152602001908152602001600020600082825403925050819055506001600360008473ffffffffffffffffffffffffffffffffffffffff1673ffffffffffffffffffffffffffffffffffffffff16815260200190815260200160002060008282540192505081905550816002600083815260200190815260200160002060006101000a81548173ffffffffffffffffffffffffffffffffffffffff021916908373ffffffffffffffffffffffffffffffffffffffff160217905550808273ffffffffffffffffffffffffffffffffffffffff168473ffffffffffffffffffffffffffffffffffffffff167fddf252ad1be2c89b69c2b068fc378daa952ba7f163c4a11628f55a4df523b3ef60405160405180910390a461225183838360016126c8565b505050565b60006002600083815260200190815260200160002060009054906101000a900473ffffffffffffffffffffffffffffffffffffffff169050919050565b6000600660009054906101000a900473ffffffffffffffffffffffffffffffffffffffff16905081600660006101000a81548173ffffffffffffffffffffffffffffffffffffffff021916908373ffffffffffffffffffffffffffffffffffffffff1602179055508173ffffffffffffffffffffffffffffffffffffffff168173ffffffffffffffffffffffffffffffffffffffff167f8be0079c531659141344cd1fd0a4f28419497f9722a3daafe3b4186f6b6457e060405160405180910390a35050565b8173ffffffffffffffffffffffffffffffffffffffff168373ffffffffffffffffffffffffffffffffffffffff16036123c7576040517f08c379a00000000000000000000000000000000000000000000000000000000081526004016123be90614476565b60405180910390fd5b80600560008573ffffffffffffffffffffffffffffffffffffffff1673ffffffffffffffffffffffffffffffffffffffff16815260200190815260200160002060008473ffffffffffffffffffffffffffffffffffffffff1673ffffffffffffffffffffffffffffffffffffffff16815260200190815260200160002060006101000a81548160ff0219169083151502179055508173ffffffffffffffffffffffffffffffffffffffff168373ffffffffffffffffffffffffffffffffffffffff167f17307eab39ab6107e8899845ad3d59bd9653f200f220920489ca2b5937696c31836040516124b89190612d2b565b60405180910390a3505050565b6124d0848484611f5d565b6124dc84848484612702565b61251b576040517f08c379a000000000000000000000000000000000000000000000000000000000815260040161251290614508565b60405180910390fd5b50505050565b60008073ffffffffffffffffffffffffffffffffffffffff1661254383612256565b73ffffffffffffffffffffffffffffffffffffffff1614159050919050565b606060088054612571906135ef565b80601f016020809104026020016040519081016040528092919081815260200182805461259d906135ef565b80156125ea5780601f106125bf576101008083540402835291602001916125ea565b820191906000526020600020905b8154815290600101906020018083116125cd57829003601f168201915b5050505050905090565b60606000600161260384612889565b01905060008167ffffffffffffffff81111561262257612621612f97565b5b6040519080825280601f01601f1916602001820160405280156126545781602001600182028036833780820191505090505b509050600082602001820190505b6001156126b7578080600190039150507f3031323334353637383961626364656600000000000000000000000000000000600a86061a8153600a85816126ab576126aa614528565b5b04945060008503612662575b819350505050919050565b50505050565b50505050565b6001816000016000828254019250508190555050565b6126fe8282604051806020016040528060008152506129dc565b5050565b60006127238473ffffffffffffffffffffffffffffffffffffffff16612a37565b1561287c578373ffffffffffffffffffffffffffffffffffffffff1663150b7a0261274c611b5c565b8786866040518563ffffffff1660e01b815260040161276e94939291906145ac565b6020604051808303816000875af19250505080156127aa57506040513d601f19601f820116820180604052508101906127a7919061460d565b60015b61282c573d80600081146127da576040519150601f19603f3d011682016040523d82523d6000602084013e6127df565b606091505b506000815103612824576040517f08c379a000000000000000000000000000000000000000000000000000000000815260040161281b90614508565b60405180910390fd5b805181602001fd5b63150b7a0260e01b7bffffffffffffffffffffffffffffffffffffffffffffffffffffffff1916817bffffffffffffffffffffffffffffffffffffffffffffffffffffffff191614915050612881565b600190505b949350505050565b600080600090507a184f03e93ff9f4daa797ed6e38ed64bf6a1f01000000000000000083106128e7577a184f03e93ff9f4daa797ed6e38ed64bf6a1f01000000000000000083816128dd576128dc614528565b5b0492506040810190505b6d04ee2d6d415b85acef81000000008310612924576d04ee2d6d415b85acef8100000000838161291a57612919614528565b5b0492506020810190505b662386f26fc10000831061295357662386f26fc10000838161294957612948614528565b5b0492506010810190505b6305f5e100831061297c576305f5e100838161297257612971614528565b5b0492506008810190505b61271083106129a157612710838161299757612996614528565b5b0492506004810190505b606483106129c457606483816129ba576129b9614528565b5b0492506002810190505b600a83106129d3576001810190505b80915050919050565b6129e68383612a5a565b6129f36000848484612702565b612a32576040517f08c379a0000000000000000000000000000000000000000000000000000000008152600401612a2990614508565b60405180910390fd5b505050565b6000808273ffffffffffffffffffffffffffffffffffffffff163b119050919050565b600073ffffffffffffffffffffffffffffffffffffffff168273ffffffffffffffffffffffffffffffffffffffff1603612ac9576040517f08c379a0000000000000000000000000000000000000000000000000000000008152600401612ac090614686565b60405180910390fd5b612ad281612521565b15612b12576040517f08c379a0000000000000000000000000000000000000000000000000000000008152600401612b09906146f2565b60405180910390fd5b612b206000838360016126c2565b612b2981612521565b15612b69576040517f08c379a0000000000000000000000000000000000000000000000000000000008152600401612b60906146f2565b60405180910390fd5b6001600360008473ffffffffffffffffffffffffffffffffffffffff1673ffffffffffffffffffffffffffffffffffffffff16815260200190815260200160002060008282540192505081905550816002600083815260200190815260200160002060006101000a81548173ffffffffffffffffffffffffffffffffffffffff021916908373ffffffffffffffffffffffffffffffffffffffff160217905550808273ffffffffffffffffffffffffffffffffffffffff16600073ffffffffffffffffffffffffffffffffffffffff167fddf252ad1be2c89b69c2b068fc378daa952ba7f163c4a11628f55a4df523b3ef60405160405180910390a4612c736000838360016126c8565b5050565b6000604051905090565b600080fd5b600080fd5b60007fffffffff0000000000000000000000000000000000000000000000000000000082169050919050565b612cc081612c8b565b8114612ccb57600080fd5b50565b600081359050612cdd81612cb7565b92915050565b600060208284031215612cf957612cf8612c81565b5b6000612d0784828501612cce565b91505092915050565b60008115159050919050565b612d2581612d10565b82525050565b6000602082019050612d406000830184612d1c565b92915050565b600081519050919050565b600082825260208201905092915050565b60005b83811015612d80578082015181840152602081019050612d65565b60008484015250505050565b6000601f19601f8301169050919050565b6000612da882612d46565b612db28185612d51565b9350612dc2818560208601612d62565b612dcb81612d8c565b840191505092915050565b60006020820190508181036000830152612df08184612d9d565b905092915050565b6000819050919050565b612e0b81612df8565b8114612e1657600080fd5b50565b600081359050612e2881612e02565b92915050565b600060208284031215612e4457612e43612c81565b5b6000612e5284828501612e19565b91505092915050565b600073ffffffffffffffffffffffffffffffffffffffff82169050919050565b6000612e8682612e5b565b9050919050565b612e9681612e7b565b82525050565b6000602082019050612eb16000830184612e8d565b92915050565b612ec081612e7b565b8114612ecb57600080fd5b50565b600081359050612edd81612eb7565b92915050565b60008060408385031215612efa57612ef9612c81565b5b6000612f0885828601612ece565b9250506020612f1985828601612e19565b9150509250929050565b60008060408385031215612f3a57612f39612c81565b5b6000612f4885828601612e19565b9250506020612f5985828601612e19565b9150509250929050565b612f6c81612df8565b82525050565b6000602082019050612f876000830184612f63565b92915050565b600080fd5b600080fd5b7f4e487b7100000000000000000000000000000000000000000000000000000000600052604160045260246000fd5b612fcf82612d8c565b810181811067ffffffffffffffff82111715612fee57612fed612f97565b5b80604052505050565b6000613001612c77565b905061300d8282612fc6565b919050565b600067ffffffffffffffff82111561302d5761302c612f97565b5b61303682612d8c565b9050602081019050919050565b82818337600083830152505050565b600061306561306084613012565b612ff7565b90508281526020810184848401111561308157613080612f92565b5b61308c848285613043565b509392505050565b600082601f8301126130a9576130a8612f8d565b5b81356130b9848260208601613052565b91505092915050565b6000602082840312156130d8576130d7612c81565b5b600082013567ffffffffffffffff8111156130f6576130f5612c86565b5b61310284828501613094565b91505092915050565b61311481612d10565b811461311f57600080fd5b50565b6000813590506131318161310b565b92915050565b60006020828403121561314d5761314c612c81565b5b600061315b84828501613122565b91505092915050565b60008060006060848603121561317d5761317c612c81565b5b600061318b86828701612ece565b935050602061319c86828701612ece565b92505060406131ad86828701612e19565b9150509250925092565b600481106131c457600080fd5b50565b6000813590506131d6816131b7565b92915050565b6000806000606084860312156131f5576131f4612c81565b5b600061320386828701612e19565b935050602061321486828701612ece565b9250506040613225868287016131c7565b9150509250925092565b60006020828403121561324557613244612c81565b5b600061325384828501612ece565b91505092915050565b600081519050919050565b600082825260208201905092915050565b6000819050602082019050919050565b61329181612df8565b82525050565b60006132a38383613288565b60208301905092915050565b6000602082019050919050565b60006132c78261325c565b6132d18185613267565b93506132dc83613278565b8060005b8381101561330d5781516132f48882613297565b97506132ff836132af565b9250506001810190506132e0565b5085935050505092915050565b6000602082019050818103600083015261333481846132bc565b905092915050565b7f4e487b7100000000000000000000000000000000000000000000000000000000600052602160045260246000fd5b6004811061337c5761337b61333c565b5b50565b600081905061338d8261336b565b919050565b600061339d8261337f565b9050919050565b6133ad81613392565b82525050565b60006040820190506133c860008301856133a4565b6133d56020830184612d1c565b9392505050565b600080604083850312156133f3576133f2612c81565b5b600061340185828601612ece565b925050602061341285828601613122565b9150509250929050565b600067ffffffffffffffff82111561343757613436612f97565b5b61344082612d8c565b9050602081019050919050565b600061346061345b8461341c565b612ff7565b90508281526020810184848401111561347c5761347b612f92565b5b613487848285613043565b509392505050565b600082601f8301126134a4576134a3612f8d565b5b81356134b484826020860161344d565b91505092915050565b600080600080608085870312156134d7576134d6612c81565b5b60006134e587828801612ece565b94505060206134f687828801612ece565b935050604061350787828801612e19565b925050606085013567ffffffffffffffff81111561352857613527612c86565b5b6135348782880161348f565b91505092959194509250565b6000806040838503121561355757613556612c81565b5b600061356585828601612ece565b925050602061357685828601612ece565b9150509250929050565b6000806040838503121561359757613596612c81565b5b60006135a585828601612e19565b92505060206135b6858286016131c7565b9150509250929050565b7f4e487b7100000000000000000000000000000000000000000000000000000000600052602260045260246000fd5b6000600282049050600182168061360757607f821691505b60208210810361361a576136196135c0565b5b50919050565b7f4552433732313a20617070726f76616c20746f2063757272656e74206f776e6560008201527f7200000000000000000000000000000000000000000000000000000000000000602082015250565b600061367c602183612d51565b915061368782613620565b604082019050919050565b600060208201905081810360008301526136ab8161366f565b9050919050565b7f4552433732313a20617070726f76652063616c6c6572206973206e6f7420746f60008201527f6b656e206f776e6572206f7220617070726f76656420666f7220616c6c000000602082015250565b600061370e603d83612d51565b9150613719826136b2565b604082019050919050565b6000602082019050818103600083015261373d81613701565b9050919050565b7f4465626573207365722070726f706965746172696f20646520616d626f73204e60008201527f4654730000000000000000000000000000000000000000000000000000000000602082015250565b60006137a0602383612d51565b91506137ab82613744565b604082019050919050565b600060208201905081810360008301526137cf81613793565b9050919050565b7f4c6f73204e46547320646562656e2074656e6572206c61206d69736d6120726160008201527f72657a6100000000000000000000000000000000000000000000000000000000602082015250565b6000613832602483612d51565b915061383d826137d6565b604082019050919050565b6000602082019050818103600083015261386181613825565b9050919050565b7f4e6f20736520707565646520667573696f6e617220756e204e4654204c65676560008201527f6e646172696f0000000000000000000000000000000000000000000000000000602082015250565b60006138c4602683612d51565b91506138cf82613868565b604082019050919050565b600060208201905081810360008301526138f3816138b7565b9050919050565b7f4e487b7100000000000000000000000000000000000000000000000000000000600052601160045260246000fd5b600061393482612df8565b915061393f83612df8565b9250828201905080821115613957576139566138fa565b5b92915050565b60008190508160005260206000209050919050565b60006020601f8301049050919050565b600082821b905092915050565b6000600883026139bf7fffffffffffffffffffffffffffffffffffffffffffffffffffffffffffffffff82613982565b6139c98683613982565b95508019841693508086168417925050509392505050565b6000819050919050565b6000613a06613a016139fc84612df8565b6139e1565b612df8565b9050919050565b6000819050919050565b613a20836139eb565b613a34613a2c82613a0d565b84845461398f565b825550505050565b600090565b613a49613a3c565b613a54818484613a17565b505050565b5b81811015613a7857613a6d600082613a41565b600181019050613a5a565b5050565b601f821115613abd57613a8e8161395d565b613a9784613972565b81016020851015613aa6578190505b613aba613ab285613972565b830182613a59565b50505b505050565b600082821c905092915050565b6000613ae060001984600802613ac2565b1980831691505092915050565b6000613af98383613acf565b9150826002028217905092915050565b613b1282612d46565b67ffffffffffffffff811115613b2b57613b2a612f97565b5b613b3582546135ef565b613b40828285613a7c565b600060209050601f831160018114613b735760008415613b61578287015190505b613b6b8582613aed565b865550613bd3565b601f198416613b818661395d565b60005b82811015613ba957848901518255600182019150602085019450602081019050613b84565b86831015613bc65784890151613bc2601f891682613acf565b8355505b6001600288020188555050505b505050505050565b7f4552433732313a2063616c6c6572206973206e6f7420746f6b656e206f776e6560008201527f72206f7220617070726f76656400000000000000000000000000000000000000602082015250565b6000613c37602d83612d51565b9150613c4282613bdb565b604082019050919050565b60006020820190508181036000830152613c6681613c2a565b9050919050565b600081905092915050565b50565b6000613c88600083613c6d565b9150613c9382613c78565b600082019050919050565b6000613ca982613c7b565b9150819050919050565b7f5472616e73666572206661696c65642e00000000000000000000000000000000600082015250565b6000613ce9601083612d51565b9150613cf482613cb3565b602082019050919050565b60006020820190508181036000830152613d1881613cdc565b9050919050565b7f496e76616c6964206d696e7420616d6f756e7400000000000000000000000000600082015250565b6000613d55601383612d51565b9150613d6082613d1f565b602082019050919050565b60006020820190508181036000830152613d8481613d48565b9050919050565b7f4d617820737570706c7920657863656564656400000000000000000000000000600082015250565b6000613dc1601383612d51565b9150613dcc82613d8b565b602082019050919050565b60006020820190508181036000830152613df081613db4565b9050919050565b7f4e487b7100000000000000000000000000000000000000000000000000000000600052603260045260246000fd5b6000613e3182612df8565b91507fffffffffffffffffffffffffffffffffffffffffffffffffffffffffffffffff8203613e6357613e626138fa565b5b600182019050919050565b7f4552433732313a20696e76616c696420746f6b656e2049440000000000000000600082015250565b6000613ea4601883612d51565b9150613eaf82613e6e565b602082019050919050565b60006020820190508181036000830152613ed381613e97565b9050919050565b7f4552433732313a2061646472657373207a65726f206973206e6f74206120766160008201527f6c6964206f776e65720000000000000000000000000000000000000000000000602082015250565b6000613f36602983612d51565b9150613f4182613eda565b604082019050919050565b60006020820190508181036000830152613f6581613f29565b9050919050565b7f4552433732314d657461646174613a2055524920717565727920666f72206e6f60008201527f6e6578697374656e7420746f6b656e0000000000000000000000000000000000602082015250565b6000613fc8602f83612d51565b9150613fd382613f6c565b604082019050919050565b60006020820190508181036000830152613ff781613fbb565b9050919050565b600081905092915050565b600061401482612d46565b61401e8185613ffe565b935061402e818560208601612d62565b80840191505092915050565b60008154614047816135ef565b6140518186613ffe565b9450600182166000811461406c5760018114614081576140b4565b60ff19831686528115158202860193506140b4565b61408a8561395d565b60005b838110156140ac5781548189015260018201915060208101905061408d565b838801955050505b50505092915050565b60006140c98286614009565b91506140d58285614009565b91506140e1828461403a565b9150819050949350505050565b7f4f776e61626c653a206e6577206f776e657220697320746865207a65726f206160008201527f6464726573730000000000000000000000000000000000000000000000000000602082015250565b600061414a602683612d51565b9150614155826140ee565b604082019050919050565b600060208201905081810360008301526141798161413d565b9050919050565b7f456c20636f6e747261746f20657374c3a120656e207061757361000000000000600082015250565b60006141b6601a83612d51565b91506141c182614180565b602082019050919050565b600060208201905081810360008301526141e5816141a9565b9050919050565b60006141f782612df8565b915061420283612df8565b925082820261421081612df8565b91508282048414831517614227576142266138fa565b5b5092915050565b7f466f6e646f7320696e737566696369656e746573000000000000000000000000600082015250565b6000614264601483612d51565b915061426f8261422e565b602082019050919050565b6000602082019050818103600083015261429381614257565b9050919050565b7f4f776e61626c653a2063616c6c6572206973206e6f7420746865206f776e6572600082015250565b60006142d0602083612d51565b91506142db8261429a565b602082019050919050565b600060208201905081810360008301526142ff816142c3565b9050919050565b7f4552433732313a207472616e736665722066726f6d20696e636f72726563742060008201527f6f776e6572000000000000000000000000000000000000000000000000000000602082015250565b6000614362602583612d51565b915061436d82614306565b604082019050919050565b6000602082019050818103600083015261439181614355565b9050919050565b7f4552433732313a207472616e7366657220746f20746865207a65726f2061646460008201527f7265737300000000000000000000000000000000000000000000000000000000602082015250565b60006143f4602483612d51565b91506143ff82614398565b604082019050919050565b60006020820190508181036000830152614423816143e7565b9050919050565b7f4552433732313a20617070726f766520746f2063616c6c657200000000000000600082015250565b6000614460601983612d51565b915061446b8261442a565b602082019050919050565b6000602082019050818103600083015261448f81614453565b9050919050565b7f4552433732313a207472616e7366657220746f206e6f6e20455243373231526560008201527f63656976657220696d706c656d656e7465720000000000000000000000000000602082015250565b60006144f2603283612d51565b91506144fd82614496565b604082019050919050565b60006020820190508181036000830152614521816144e5565b9050919050565b7f4e487b7100000000000000000000000000000000000000000000000000000000600052601260045260246000fd5b600081519050919050565b600082825260208201905092915050565b600061457e82614557565b6145888185614562565b9350614598818560208601612d62565b6145a181612d8c565b840191505092915050565b60006080820190506145c16000830187612e8d565b6145ce6020830186612e8d565b6145db6040830185612f63565b81810360608301526145ed8184614573565b905095945050505050565b60008151905061460781612cb7565b92915050565b60006020828403121561462357614622612c81565b5b6000614631848285016145f8565b91505092915050565b7f4552433732313a206d696e7420746f20746865207a65726f2061646472657373600082015250565b6000614670602083612d51565b915061467b8261463a565b602082019050919050565b6000602082019050818103600083015261469f81614663565b9050919050565b7f4552433732313a20746f6b656e20616c7265616479206d696e74656400000000600082015250565b60006146dc601c83612d51565b91506146e7826146a6565b602082019050919050565b6000602082019050818103600083015261470b816146cf565b905091905056fea2646970667358221220463c588f0f6aa476ebd0410d983d9aa5f8de3ddd2555656f5efdb3bc7a141f8164736f6c634300081b0033",
  "linkReferences": {},
  "deployedLinkReferences": {}
}