{
  "_format": "hh-sol-artifact-1",
  "contractName": "SimpleNFTWithJSON",
  "sourceName": "contracts/mynft.sol",
  "abi": [
    {
      "anonymous": false,
      "inputs": [
        {
          "indexed": true,
          "internalType": "address",
          "name": "previousOwner",
          "type": "address"
        },
        {
          "indexed": true,
          "internalType": "address",
          "name": "newOwner",
          "type": "address"
        }
      ],
      "name": "OwnershipTransferred",
      "type": "event"
    },
    {
      "inputs": [
        {
          "internalType": "uint256",
          "name": "nftId",
          "type": "uint256"
        },
        {
          "internalType": "address",
          "name": "newOwner",
          "type": "address"
        }
      ],
      "name": "comprarNFT",
      "outputs": [],
      "stateMutability": "payable",
      "type": "function"
    },
    {
      "inputs": [
        {
          "internalType": "uint256",
          "name": "nftId",
          "type": "uint256"
        }
      ],
      "name": "eliminarNFT",
      "outputs": [],
      "stateMutability": "nonpayable",
      "type": "function"
    },
    {
      "inputs": [
        {
          "internalType": "uint256",
          "name": "nftId",
          "type": "uint256"
        }
      ],
      "name": "getNFTDetails",
      "outputs": [
        {
          "internalType": "string",
          "name": "",
          "type": "string"
        },
        {
          "internalType": "uint256",
          "name": "",
          "type": "uint256"
        },
        {
          "internalType": "uint256",
          "name": "",
          "type": "uint256"
        },
        {
          "internalType": "bool",
          "name": "",
          "type": "bool"
        },
        {
          "internalType": "address",
          "name": "",
          "type": "address"
        }
      ],
      "stateMutability": "view",
      "type": "function"
    },
    {
      "inputs": [],
      "name": "listarNFTsEnVenta",
      "outputs": [
        {
          "components": [
            {
              "internalType": "string",
              "name": "jsonData",
              "type": "string"
            },
            {
              "internalType": "uint256",
              "name": "rareza",
              "type": "uint256"
            },
            {
              "internalType": "uint256",
              "name": "precio",
              "type": "uint256"
            },
            {
              "internalType": "bool",
              "name": "enVenta",
              "type": "bool"
            },
            {
              "internalType": "bool",
              "name": "exists",
              "type": "bool"
            },
            {
              "internalType": "address",
              "name": "creador",
              "type": "address"
            }
          ],
          "internalType": "struct SimpleNFTWithJSON.NFT[]",
          "name": "",
          "type": "tuple[]"
        }
      ],
      "stateMutability": "view",
      "type": "function"
    },
    {
      "inputs": [
        {
          "internalType": "address",
          "name": "propietario",
          "type": "address"
        }
      ],
      "name": "listarNFTsPorPropietario",
      "outputs": [
        {
          "components": [
            {
              "internalType": "string",
              "name": "jsonData",
              "type": "string"
            },
            {
              "internalType": "uint256",
              "name": "rareza",
              "type": "uint256"
            },
            {
              "internalType": "uint256",
              "name": "precio",
              "type": "uint256"
            },
            {
              "internalType": "bool",
              "name": "enVenta",
              "type": "bool"
            },
            {
              "internalType": "bool",
              "name": "exists",
              "type": "bool"
            },
            {
              "internalType": "address",
              "name": "creador",
              "type": "address"
            }
          ],
          "internalType": "struct SimpleNFTWithJSON.NFT[]",
          "name": "",
          "type": "tuple[]"
        }
      ],
      "stateMutability": "view",
      "type": "function"
    },
    {
      "inputs": [
        {
          "internalType": "uint256",
          "name": "",
          "type": "uint256"
        }
      ],
      "name": "nftOwners",
      "outputs": [
        {
          "internalType": "address",
          "name": "",
          "type": "address"
        }
      ],
      "stateMutability": "view",
      "type": "function"
    },
    {
      "inputs": [
        {
          "internalType": "uint256",
          "name": "",
          "type": "uint256"
        }
      ],
      "name": "nfts",
      "outputs": [
        {
          "internalType": "string",
          "name": "jsonData",
          "type": "string"
        },
        {
          "internalType": "uint256",
          "name": "rareza",
          "type": "uint256"
        },
        {
          "internalType": "uint256",
          "name": "precio",
          "type": "uint256"
        },
        {
          "internalType": "bool",
          "name": "enVenta",
          "type": "bool"
        },
        {
          "internalType": "bool",
          "name": "exists",
          "type": "bool"
        },
        {
          "internalType": "address",
          "name": "creador",
          "type": "address"
        }
      ],
      "stateMutability": "view",
      "type": "function"
    },
    {
      "inputs": [],
      "name": "owner",
      "outputs": [
        {
          "internalType": "address",
          "name": "",
          "type": "address"
        }
      ],
      "stateMutability": "view",
      "type": "function"
    },
    {
      "inputs": [],
      "name": "renounceOwnership",
      "outputs": [],
      "stateMutability": "nonpayable",
      "type": "function"
    },
    {
      "inputs": [
        {
          "internalType": "uint256",
          "name": "nftId",
          "type": "uint256"
        },
        {
          "internalType": "bool",
          "name": "_enVenta",
          "type": "bool"
        }
      ],
      "name": "setNFTEnVenta",
      "outputs": [],
      "stateMutability": "nonpayable",
      "type": "function"
    },
    {
      "inputs": [
        {
          "internalType": "string",
          "name": "_jsonData",
          "type": "string"
        },
        {
          "internalType": "uint256",
          "name": "_precio",
          "type": "uint256"
        }
      ],
      "name": "storeNFT",
      "outputs": [
        {
          "internalType": "uint256",
          "name": "",
          "type": "uint256"
        }
      ],
      "stateMutability": "nonpayable",
      "type": "function"
    },
    {
      "inputs": [],
      "name": "totalNFTs",
      "outputs": [
        {
          "internalType": "uint256",
          "name": "",
          "type": "uint256"
        }
      ],
      "stateMutability": "view",
      "type": "function"
    },
    {
      "inputs": [
        {
          "internalType": "address",
          "name": "newOwner",
          "type": "address"
        }
      ],
      "name": "transferOwnership",
      "outputs": [],
      "stateMutability": "nonpayable",
      "type": "function"
    }
  ],
  "bytecode": "0x608060405234801561001057600080fd5b5061002d61002261003260201b60201c565b61003a60201b60201c565b6100fe565b600033905090565b60008060009054906101000a900473ffffffffffffffffffffffffffffffffffffffff169050816000806101000a81548173ffffffffffffffffffffffffffffffffffffffff021916908373ffffffffffffffffffffffffffffffffffffffff1602179055508173ffffffffffffffffffffffffffffffffffffffff168173ffffffffffffffffffffffffffffffffffffffff167f8be0079c531659141344cd1fd0a4f28419497f9722a3daafe3b4186f6b6457e060405160405180910390a35050565b6123fe8061010d6000396000f3fe6080604052600436106100c25760003560e01c8063715018a61161007f578063bbd94c2f11610059578063bbd94c2f14610276578063c7229506146102b3578063e1d51c08146102de578063f2fde38b14610307576100c2565b8063715018a6146101f357806382260f351461020a5780638da5cb5b1461024b576100c2565b8063018f1e89146100c75780630d0e96da146100f0578063265aa6211461011b578063289c68561461015d578063314582611461019a57806338143c4a146101d7575b600080fd5b3480156100d357600080fd5b506100ee60048036038101906100e991906115ae565b610330565b005b3480156100fc57600080fd5b50610105610469565b60405161011291906115fd565b60405180910390f35b34801561012757600080fd5b50610142600480360381019061013d9190611618565b61046f565b60405161015496959493929190611725565b60405180910390f35b34801561016957600080fd5b50610184600480360381019061017f91906118c2565b61056d565b60405161019191906115fd565b60405180910390f35b3480156101a657600080fd5b506101c160048036038101906101bc919061194a565b6106ff565b6040516101ce9190611b39565b60405180910390f35b6101f160048036038101906101ec9190611b5b565b610a60565b005b3480156101ff57600080fd5b50610208610bf5565b005b34801561021657600080fd5b50610231600480360381019061022c9190611618565b610c09565b604051610242959493929190611b9b565b60405180910390f35b34801561025757600080fd5b50610260610df5565b60405161026d9190611bf5565b60405180910390f35b34801561028257600080fd5b5061029d60048036038101906102989190611618565b610e1e565b6040516102aa9190611bf5565b60405180910390f35b3480156102bf57600080fd5b506102c8610e51565b6040516102d59190611b39565b60405180910390f35b3480156102ea57600080fd5b5061030560048036038101906103009190611618565b611134565b005b34801561031357600080fd5b5061032e6004803603810190610329919061194a565b6112c0565b005b6002600083815260200190815260200160002060030160019054906101000a900460ff16610393576040517f08c379a000000000000000000000000000000000000000000000000000000000815260040161038a90611c5c565b60405180910390fd5b3373ffffffffffffffffffffffffffffffffffffffff166002600084815260200190815260200160002060030160029054906101000a900473ffffffffffffffffffffffffffffffffffffffff1673ffffffffffffffffffffffffffffffffffffffff1614610437576040517f08c379a000000000000000000000000000000000000000000000000000000000815260040161042e90611cee565b60405180910390fd5b806002600084815260200190815260200160002060030160006101000a81548160ff0219169083151502179055505050565b60015481565b600260205280600052604060002060009150905080600001805461049290611d3d565b80601f01602080910402602001604051908101604052809291908181526020018280546104be90611d3d565b801561050b5780601f106104e05761010080835404028352916020019161050b565b820191906000526020600020905b8154815290600101906020018083116104ee57829003601f168201915b5050505050908060010154908060020154908060030160009054906101000a900460ff16908060030160019054906101000a900460ff16908060030160029054906101000a900473ffffffffffffffffffffffffffffffffffffffff16905086565b60006001600081548092919061058290611d9d565b91905055506040518060c001604052808481526020016105a0611343565b81526020018381526020016001151581526020016001151581526020013373ffffffffffffffffffffffffffffffffffffffff1681525060026000600154815260200190815260200160002060008201518160000190816106019190611f91565b50602082015181600101556040820151816002015560608201518160030160006101000a81548160ff02191690831515021790555060808201518160030160016101000a81548160ff02191690831515021790555060a08201518160030160026101000a81548173ffffffffffffffffffffffffffffffffffffffff021916908373ffffffffffffffffffffffffffffffffffffffff1602179055509050503360036000600154815260200190815260200160002060006101000a81548173ffffffffffffffffffffffffffffffffffffffff021916908373ffffffffffffffffffffffffffffffffffffffff160217905550600154905092915050565b6060600080600190505b60015481116107c7578373ffffffffffffffffffffffffffffffffffffffff166003600083815260200190815260200160002060009054906101000a900473ffffffffffffffffffffffffffffffffffffffff1673ffffffffffffffffffffffffffffffffffffffff161480156107a057506002600082815260200190815260200160002060030160019054906101000a900460ff165b156107b45781806107b090611d9d565b9250505b80806107bf90611d9d565b915050610709565b5060008167ffffffffffffffff8111156107e4576107e3611797565b5b60405190808252806020026020018201604052801561081d57816020015b61080a6114dc565b8152602001906001900390816108025790505b509050600080600190505b6001548111610a54578573ffffffffffffffffffffffffffffffffffffffff166003600083815260200190815260200160002060009054906101000a900473ffffffffffffffffffffffffffffffffffffffff1673ffffffffffffffffffffffffffffffffffffffff161480156108bf57506002600082815260200190815260200160002060030160019054906101000a900460ff165b15610a4157600260008281526020019081526020016000206040518060c00160405290816000820180546108f290611d3d565b80601f016020809104026020016040519081016040528092919081815260200182805461091e90611d3d565b801561096b5780601f106109405761010080835404028352916020019161096b565b820191906000526020600020905b81548152906001019060200180831161094e57829003601f168201915b5050505050815260200160018201548152602001600282015481526020016003820160009054906101000a900460ff161515151581526020016003820160019054906101000a900460ff161515151581526020016003820160029054906101000a900473ffffffffffffffffffffffffffffffffffffffff1673ffffffffffffffffffffffffffffffffffffffff1673ffffffffffffffffffffffffffffffffffffffff1681525050838381518110610a2757610a26612063565b5b60200260200101819052508180610a3d90611d9d565b9250505b8080610a4c90611d9d565b915050610828565b50819350505050919050565b6002600083815260200190815260200160002060030160019054906101000a900460ff16610ac3576040517f08c379a0000000000000000000000000000000000000000000000000000000008152600401610aba90611c5c565b60405180910390fd5b6002600083815260200190815260200160002060020154341015610b1c576040517f08c379a0000000000000000000000000000000000000000000000000000000008152600401610b13906120de565b60405180910390fd5b6000610b26610df5565b90508073ffffffffffffffffffffffffffffffffffffffff166108fc349081150290604051600060405180830381858888f19350505050158015610b6e573d6000803e3d6000fd5b50816003600085815260200190815260200160002060006101000a81548173ffffffffffffffffffffffffffffffffffffffff021916908373ffffffffffffffffffffffffffffffffffffffff16021790555060006002600085815260200190815260200160002060030160006101000a81548160ff021916908315150217905550505050565b610bfd611392565b610c076000611410565b565b60606000806000806002600087815260200190815260200160002060030160019054906101000a900460ff16610c74576040517f08c379a0000000000000000000000000000000000000000000000000000000008152600401610c6b90611c5c565b60405180910390fd5b6000600260008881526020019081526020016000206040518060c0016040529081600082018054610ca490611d3d565b80601f0160208091040260200160405190810160405280929190818152602001828054610cd090611d3d565b8015610d1d5780601f10610cf257610100808354040283529160200191610d1d565b820191906000526020600020905b815481529060010190602001808311610d0057829003601f168201915b5050505050815260200160018201548152602001600282015481526020016003820160009054906101000a900460ff161515151581526020016003820160019054906101000a900460ff161515151581526020016003820160029054906101000a900473ffffffffffffffffffffffffffffffffffffffff1673ffffffffffffffffffffffffffffffffffffffff1673ffffffffffffffffffffffffffffffffffffffff1681525050905080600001518160200151826040015183606001518460a00151955095509550955095505091939590929450565b60008060009054906101000a900473ffffffffffffffffffffffffffffffffffffffff16905090565b60036020528060005260406000206000915054906101000a900473ffffffffffffffffffffffffffffffffffffffff1681565b6060600080600190505b6001548111610edb576002600082815260200190815260200160002060030160009054906101000a900460ff168015610eb457506002600082815260200190815260200160002060030160019054906101000a900460ff165b15610ec8578180610ec490611d9d565b9250505b8080610ed390611d9d565b915050610e5b565b5060008167ffffffffffffffff811115610ef857610ef7611797565b5b604051908082528060200260200182016040528015610f3157816020015b610f1e6114dc565b815260200190600190039081610f165790505b509050600080600190505b600154811161112a576002600082815260200190815260200160002060030160009054906101000a900460ff168015610f9557506002600082815260200190815260200160002060030160019054906101000a900460ff165b1561111757600260008281526020019081526020016000206040518060c0016040529081600082018054610fc890611d3d565b80601f0160208091040260200160405190810160405280929190818152602001828054610ff490611d3d565b80156110415780601f1061101657610100808354040283529160200191611041565b820191906000526020600020905b81548152906001019060200180831161102457829003601f168201915b5050505050815260200160018201548152602001600282015481526020016003820160009054906101000a900460ff161515151581526020016003820160019054906101000a900460ff161515151581526020016003820160029054906101000a900473ffffffffffffffffffffffffffffffffffffffff1673ffffffffffffffffffffffffffffffffffffffff1673ffffffffffffffffffffffffffffffffffffffff16815250508383815181106110fd576110fc612063565b5b6020026020010181905250818061111390611d9d565b9250505b808061112290611d9d565b915050610f3c565b5081935050505090565b6002600082815260200190815260200160002060030160019054906101000a900460ff16611197576040517f08c379a000000000000000000000000000000000000000000000000000000000815260040161118e90611c5c565b60405180910390fd5b3373ffffffffffffffffffffffffffffffffffffffff166002600083815260200190815260200160002060030160029054906101000a900473ffffffffffffffffffffffffffffffffffffffff1673ffffffffffffffffffffffffffffffffffffffff161461123b576040517f08c379a000000000000000000000000000000000000000000000000000000000815260040161123290612170565b60405180910390fd5b60006002600083815260200190815260200160002060030160016101000a81548160ff02191690831515021790555060006003600083815260200190815260200160002060006101000a81548173ffffffffffffffffffffffffffffffffffffffff021916908373ffffffffffffffffffffffffffffffffffffffff16021790555050565b6112c8611392565b600073ffffffffffffffffffffffffffffffffffffffff168173ffffffffffffffffffffffffffffffffffffffff1603611337576040517f08c379a000000000000000000000000000000000000000000000000000000000815260040161132e90612202565b60405180910390fd5b61134081611410565b50565b60006001600442336001546040516020016113609392919061228b565b6040516020818303038152906040528051906020012060001c61138391906122f7565b61138d9190612328565b905090565b61139a6114d4565b73ffffffffffffffffffffffffffffffffffffffff166113b8610df5565b73ffffffffffffffffffffffffffffffffffffffff161461140e576040517f08c379a0000000000000000000000000000000000000000000000000000000008152600401611405906123a8565b60405180910390fd5b565b60008060009054906101000a900473ffffffffffffffffffffffffffffffffffffffff169050816000806101000a81548173ffffffffffffffffffffffffffffffffffffffff021916908373ffffffffffffffffffffffffffffffffffffffff1602179055508173ffffffffffffffffffffffffffffffffffffffff168173ffffffffffffffffffffffffffffffffffffffff167f8be0079c531659141344cd1fd0a4f28419497f9722a3daafe3b4186f6b6457e060405160405180910390a35050565b600033905090565b6040518060c00160405280606081526020016000815260200160008152602001600015158152602001600015158152602001600073ffffffffffffffffffffffffffffffffffffffff1681525090565b6000604051905090565b600080fd5b600080fd5b6000819050919050565b61155381611540565b811461155e57600080fd5b50565b6000813590506115708161154a565b92915050565b60008115159050919050565b61158b81611576565b811461159657600080fd5b50565b6000813590506115a881611582565b92915050565b600080604083850312156115c5576115c4611536565b5b60006115d385828601611561565b92505060206115e485828601611599565b9150509250929050565b6115f781611540565b82525050565b600060208201905061161260008301846115ee565b92915050565b60006020828403121561162e5761162d611536565b5b600061163c84828501611561565b91505092915050565b600081519050919050565b600082825260208201905092915050565b60005b8381101561167f578082015181840152602081019050611664565b60008484015250505050565b6000601f19601f8301169050919050565b60006116a782611645565b6116b18185611650565b93506116c1818560208601611661565b6116ca8161168b565b840191505092915050565b6116de81611576565b82525050565b600073ffffffffffffffffffffffffffffffffffffffff82169050919050565b600061170f826116e4565b9050919050565b61171f81611704565b82525050565b600060c082019050818103600083015261173f818961169c565b905061174e60208301886115ee565b61175b60408301876115ee565b61176860608301866116d5565b61177560808301856116d5565b61178260a0830184611716565b979650505050505050565b600080fd5b600080fd5b7f4e487b7100000000000000000000000000000000000000000000000000000000600052604160045260246000fd5b6117cf8261168b565b810181811067ffffffffffffffff821117156117ee576117ed611797565b5b80604052505050565b600061180161152c565b905061180d82826117c6565b919050565b600067ffffffffffffffff82111561182d5761182c611797565b5b6118368261168b565b9050602081019050919050565b82818337600083830152505050565b600061186561186084611812565b6117f7565b90508281526020810184848401111561188157611880611792565b5b61188c848285611843565b509392505050565b600082601f8301126118a9576118a861178d565b5b81356118b9848260208601611852565b91505092915050565b600080604083850312156118d9576118d8611536565b5b600083013567ffffffffffffffff8111156118f7576118f661153b565b5b61190385828601611894565b925050602061191485828601611561565b9150509250929050565b61192781611704565b811461193257600080fd5b50565b6000813590506119448161191e565b92915050565b6000602082840312156119605761195f611536565b5b600061196e84828501611935565b91505092915050565b600081519050919050565b600082825260208201905092915050565b6000819050602082019050919050565b600082825260208201905092915050565b60006119bf82611645565b6119c981856119a3565b93506119d9818560208601611661565b6119e28161168b565b840191505092915050565b6119f681611540565b82525050565b611a0581611576565b82525050565b611a1481611704565b82525050565b600060c0830160008301518482036000860152611a3782826119b4565b9150506020830151611a4c60208601826119ed565b506040830151611a5f60408601826119ed565b506060830151611a7260608601826119fc565b506080830151611a8560808601826119fc565b5060a0830151611a9860a0860182611a0b565b508091505092915050565b6000611aaf8383611a1a565b905092915050565b6000602082019050919050565b6000611acf82611977565b611ad98185611982565b935083602082028501611aeb85611993565b8060005b85811015611b275784840389528151611b088582611aa3565b9450611b1383611ab7565b925060208a01995050600181019050611aef565b50829750879550505050505092915050565b60006020820190508181036000830152611b538184611ac4565b905092915050565b60008060408385031215611b7257611b71611536565b5b6000611b8085828601611561565b9250506020611b9185828601611935565b9150509250929050565b600060a0820190508181036000830152611bb5818861169c565b9050611bc460208301876115ee565b611bd160408301866115ee565b611bde60608301856116d5565b611beb6080830184611716565b9695505050505050565b6000602082019050611c0a6000830184611716565b92915050565b7f456c204e4654206e6f2065786973746500000000000000000000000000000000600082015250565b6000611c46601083611650565b9150611c5182611c10565b602082019050919050565b60006020820190508181036000830152611c7581611c39565b9050919050565b7f536f6c6f20656c2063726561646f722070756564652063616d6269617220656c60008201527f2065737461646f2064652076656e746100000000000000000000000000000000602082015250565b6000611cd8603083611650565b9150611ce382611c7c565b604082019050919050565b60006020820190508181036000830152611d0781611ccb565b9050919050565b7f4e487b7100000000000000000000000000000000000000000000000000000000600052602260045260246000fd5b60006002820490506001821680611d5557607f821691505b602082108103611d6857611d67611d0e565b5b50919050565b7f4e487b7100000000000000000000000000000000000000000000000000000000600052601160045260246000fd5b6000611da882611540565b91507fffffffffffffffffffffffffffffffffffffffffffffffffffffffffffffffff8203611dda57611dd9611d6e565b5b600182019050919050565b60008190508160005260206000209050919050565b60006020601f8301049050919050565b600082821b905092915050565b600060088302611e477fffffffffffffffffffffffffffffffffffffffffffffffffffffffffffffffff82611e0a565b611e518683611e0a565b95508019841693508086168417925050509392505050565b6000819050919050565b6000611e8e611e89611e8484611540565b611e69565b611540565b9050919050565b6000819050919050565b611ea883611e73565b611ebc611eb482611e95565b848454611e17565b825550505050565b600090565b611ed1611ec4565b611edc818484611e9f565b505050565b5b81811015611f0057611ef5600082611ec9565b600181019050611ee2565b5050565b601f821115611f4557611f1681611de5565b611f1f84611dfa565b81016020851015611f2e578190505b611f42611f3a85611dfa565b830182611ee1565b50505b505050565b600082821c905092915050565b6000611f6860001984600802611f4a565b1980831691505092915050565b6000611f818383611f57565b9150826002028217905092915050565b611f9a82611645565b67ffffffffffffffff811115611fb357611fb2611797565b5b611fbd8254611d3d565b611fc8828285611f04565b600060209050601f831160018114611ffb5760008415611fe9578287015190505b611ff38582611f75565b86555061205b565b601f19841661200986611de5565b60005b828110156120315784890151825560018201915060208501945060208101905061200c565b8683101561204e578489015161204a601f891682611f57565b8355505b6001600288020188555050505b505050505050565b7f4e487b7100000000000000000000000000000000000000000000000000000000600052603260045260246000fd5b7f466f6e646f7320696e737566696369656e746573000000000000000000000000600082015250565b60006120c8601483611650565b91506120d382612092565b602082019050919050565b600060208201905081810360008301526120f7816120bb565b9050919050565b7f536f6c6f20656c2063726561646f7220707565646520656c696d696e6172206560008201527f737465204e465400000000000000000000000000000000000000000000000000602082015250565b600061215a602783611650565b9150612165826120fe565b604082019050919050565b600060208201905081810360008301526121898161214d565b9050919050565b7f4f776e61626c653a206e6577206f776e657220697320746865207a65726f206160008201527f6464726573730000000000000000000000000000000000000000000000000000602082015250565b60006121ec602683611650565b91506121f782612190565b604082019050919050565b6000602082019050818103600083015261221b816121df565b9050919050565b6000819050919050565b61223d61223882611540565b612222565b82525050565b60008160601b9050919050565b600061225b82612243565b9050919050565b600061226d82612250565b9050919050565b61228561228082611704565b612262565b82525050565b6000612297828661222c565b6020820191506122a78285612274565b6014820191506122b7828461222c565b602082019150819050949350505050565b7f4e487b7100000000000000000000000000000000000000000000000000000000600052601260045260246000fd5b600061230282611540565b915061230d83611540565b92508261231d5761231c6122c8565b5b828206905092915050565b600061233382611540565b915061233e83611540565b925082820190508082111561235657612355611d6e565b5b92915050565b7f4f776e61626c653a2063616c6c6572206973206e6f7420746865206f776e6572600082015250565b6000612392602083611650565b915061239d8261235c565b602082019050919050565b600060208201905081810360008301526123c181612385565b905091905056fea2646970667358221220fea1d8f956c8a38034fad9f539c47a6bde78211d28d8b1bd76e9fb3a8ac25fc264736f6c634300081b0033",
  "linkReferences": {},
  "deployedLinkReferences": {}
}