{
  "_format": "hh-sol-artifact-1",
  "contractName": "SimpleNftLowerGas",
  "sourceName": "contracts/SimpleNftLowerGas.sol",
  "abi": [
    {
      "inputs": [],
      "stateMutability": "nonpayable",
      "type": "constructor"
    },
    {
      "anonymous": false,
      "inputs": [
        {
          "indexed": true,
          "internalType": "address",
          "name": "owner",
          "type": "address"
        },
        {
          "indexed": true,
          "internalType": "address",
          "name": "approved",
          "type": "address"
        },
        {
          "indexed": true,
          "internalType": "uint256",
          "name": "tokenId",
          "type": "uint256"
        }
      ],
      "name": "Approval",
      "type": "event"
    },
    {
      "anonymous": false,
      "inputs": [
        {
          "indexed": true,
          "internalType": "address",
          "name": "owner",
          "type": "address"
        },
        {
          "indexed": true,
          "internalType": "address",
          "name": "operator",
          "type": "address"
        },
        {
          "indexed": false,
          "internalType": "bool",
          "name": "approved",
          "type": "bool"
        }
      ],
      "name": "ApprovalForAll",
      "type": "event"
    },
    {
      "anonymous": false,
      "inputs": [
        {
          "indexed": true,
          "internalType": "address",
          "name": "previousOwner",
          "type": "address"
        },
        {
          "indexed": true,
          "internalType": "address",
          "name": "newOwner",
          "type": "address"
        }
      ],
      "name": "OwnershipTransferred",
      "type": "event"
    },
    {
      "anonymous": false,
      "inputs": [
        {
          "indexed": true,
          "internalType": "address",
          "name": "from",
          "type": "address"
        },
        {
          "indexed": true,
          "internalType": "address",
          "name": "to",
          "type": "address"
        },
        {
          "indexed": true,
          "internalType": "uint256",
          "name": "tokenId",
          "type": "uint256"
        }
      ],
      "name": "Transfer",
      "type": "event"
    },
    {
      "inputs": [
        {
          "internalType": "address",
          "name": "to",
          "type": "address"
        },
        {
          "internalType": "uint256",
          "name": "tokenId",
          "type": "uint256"
        }
      ],
      "name": "approve",
      "outputs": [],
      "stateMutability": "nonpayable",
      "type": "function"
    },
    {
      "inputs": [
        {
          "internalType": "address",
          "name": "owner",
          "type": "address"
        }
      ],
      "name": "balanceOf",
      "outputs": [
        {
          "internalType": "uint256",
          "name": "",
          "type": "uint256"
        }
      ],
      "stateMutability": "view",
      "type": "function"
    },
    {
      "inputs": [],
      "name": "cost",
      "outputs": [
        {
          "internalType": "uint256",
          "name": "",
          "type": "uint256"
        }
      ],
      "stateMutability": "view",
      "type": "function"
    },
    {
      "inputs": [
        {
          "internalType": "uint256",
          "name": "tokenId1",
          "type": "uint256"
        },
        {
          "internalType": "uint256",
          "name": "tokenId2",
          "type": "uint256"
        }
      ],
      "name": "fusionarNFTs",
      "outputs": [],
      "stateMutability": "nonpayable",
      "type": "function"
    },
    {
      "inputs": [
        {
          "internalType": "uint256",
          "name": "tokenId",
          "type": "uint256"
        }
      ],
      "name": "getApproved",
      "outputs": [
        {
          "internalType": "address",
          "name": "",
          "type": "address"
        }
      ],
      "stateMutability": "view",
      "type": "function"
    },
    {
      "inputs": [],
      "name": "hiddenMetadataUri",
      "outputs": [
        {
          "internalType": "string",
          "name": "",
          "type": "string"
        }
      ],
      "stateMutability": "view",
      "type": "function"
    },
    {
      "inputs": [
        {
          "internalType": "address",
          "name": "owner",
          "type": "address"
        },
        {
          "internalType": "address",
          "name": "operator",
          "type": "address"
        }
      ],
      "name": "isApprovedForAll",
      "outputs": [
        {
          "internalType": "bool",
          "name": "",
          "type": "bool"
        }
      ],
      "stateMutability": "view",
      "type": "function"
    },
    {
      "inputs": [],
      "name": "maxMintAmountPerTx",
      "outputs": [
        {
          "internalType": "uint256",
          "name": "",
          "type": "uint256"
        }
      ],
      "stateMutability": "view",
      "type": "function"
    },
    {
      "inputs": [],
      "name": "maxSupply",
      "outputs": [
        {
          "internalType": "uint256",
          "name": "",
          "type": "uint256"
        }
      ],
      "stateMutability": "view",
      "type": "function"
    },
    {
      "inputs": [
        {
          "internalType": "uint256",
          "name": "_mintAmount",
          "type": "uint256"
        },
        {
          "internalType": "enum SimpleNftLowerGas.Rareza",
          "name": "_rareza",
          "type": "uint8"
        },
        {
          "internalType": "string",
          "name": "_tokenURI",
          "type": "string"
        },
        {
          "internalType": "string",
          "name": "_pais",
          "type": "string"
        },
        {
          "internalType": "string",
          "name": "_paisaje",
          "type": "string"
        }
      ],
      "name": "mint",
      "outputs": [],
      "stateMutability": "payable",
      "type": "function"
    },
    {
      "inputs": [
        {
          "internalType": "uint256",
          "name": "_mintAmount",
          "type": "uint256"
        },
        {
          "internalType": "address",
          "name": "_receiver",
          "type": "address"
        },
        {
          "internalType": "enum SimpleNftLowerGas.Rareza",
          "name": "_rareza",
          "type": "uint8"
        },
        {
          "internalType": "string",
          "name": "_tokenURI",
          "type": "string"
        },
        {
          "internalType": "string",
          "name": "_pais",
          "type": "string"
        },
        {
          "internalType": "string",
          "name": "_paisaje",
          "type": "string"
        }
      ],
      "name": "mintForAddress",
      "outputs": [],
      "stateMutability": "nonpayable",
      "type": "function"
    },
    {
      "inputs": [],
      "name": "name",
      "outputs": [
        {
          "internalType": "string",
          "name": "",
          "type": "string"
        }
      ],
      "stateMutability": "view",
      "type": "function"
    },
    {
      "inputs": [
        {
          "internalType": "uint256",
          "name": "",
          "type": "uint256"
        }
      ],
      "name": "nftDetails",
      "outputs": [
        {
          "internalType": "enum SimpleNftLowerGas.Rareza",
          "name": "rareza",
          "type": "uint8"
        },
        {
          "internalType": "bool",
          "name": "fusionado",
          "type": "bool"
        },
        {
          "internalType": "string",
          "name": "pais",
          "type": "string"
        },
        {
          "internalType": "string",
          "name": "paisaje",
          "type": "string"
        }
      ],
      "stateMutability": "view",
      "type": "function"
    },
    {
      "inputs": [],
      "name": "owner",
      "outputs": [
        {
          "internalType": "address",
          "name": "",
          "type": "address"
        }
      ],
      "stateMutability": "view",
      "type": "function"
    },
    {
      "inputs": [
        {
          "internalType": "uint256",
          "name": "tokenId",
          "type": "uint256"
        }
      ],
      "name": "ownerOf",
      "outputs": [
        {
          "internalType": "address",
          "name": "",
          "type": "address"
        }
      ],
      "stateMutability": "view",
      "type": "function"
    },
    {
      "inputs": [],
      "name": "paused",
      "outputs": [
        {
          "internalType": "bool",
          "name": "",
          "type": "bool"
        }
      ],
      "stateMutability": "view",
      "type": "function"
    },
    {
      "inputs": [],
      "name": "renounceOwnership",
      "outputs": [],
      "stateMutability": "nonpayable",
      "type": "function"
    },
    {
      "inputs": [],
      "name": "revealed",
      "outputs": [
        {
          "internalType": "bool",
          "name": "",
          "type": "bool"
        }
      ],
      "stateMutability": "view",
      "type": "function"
    },
    {
      "inputs": [
        {
          "internalType": "address",
          "name": "from",
          "type": "address"
        },
        {
          "internalType": "address",
          "name": "to",
          "type": "address"
        },
        {
          "internalType": "uint256",
          "name": "tokenId",
          "type": "uint256"
        }
      ],
      "name": "safeTransferFrom",
      "outputs": [],
      "stateMutability": "nonpayable",
      "type": "function"
    },
    {
      "inputs": [
        {
          "internalType": "address",
          "name": "from",
          "type": "address"
        },
        {
          "internalType": "address",
          "name": "to",
          "type": "address"
        },
        {
          "internalType": "uint256",
          "name": "tokenId",
          "type": "uint256"
        },
        {
          "internalType": "bytes",
          "name": "data",
          "type": "bytes"
        }
      ],
      "name": "safeTransferFrom",
      "outputs": [],
      "stateMutability": "nonpayable",
      "type": "function"
    },
    {
      "inputs": [
        {
          "internalType": "address",
          "name": "operator",
          "type": "address"
        },
        {
          "internalType": "bool",
          "name": "approved",
          "type": "bool"
        }
      ],
      "name": "setApprovalForAll",
      "outputs": [],
      "stateMutability": "nonpayable",
      "type": "function"
    },
    {
      "inputs": [
        {
          "internalType": "uint256",
          "name": "_cost",
          "type": "uint256"
        }
      ],
      "name": "setCost",
      "outputs": [],
      "stateMutability": "nonpayable",
      "type": "function"
    },
    {
      "inputs": [
        {
          "internalType": "string",
          "name": "_hiddenMetadataUri",
          "type": "string"
        }
      ],
      "name": "setHiddenMetadataUri",
      "outputs": [],
      "stateMutability": "nonpayable",
      "type": "function"
    },
    {
      "inputs": [
        {
          "internalType": "uint256",
          "name": "_maxMintAmountPerTx",
          "type": "uint256"
        }
      ],
      "name": "setMaxMintAmountPerTx",
      "outputs": [],
      "stateMutability": "nonpayable",
      "type": "function"
    },
    {
      "inputs": [
        {
          "internalType": "bool",
          "name": "_state",
          "type": "bool"
        }
      ],
      "name": "setPaused",
      "outputs": [],
      "stateMutability": "nonpayable",
      "type": "function"
    },
    {
      "inputs": [
        {
          "internalType": "bool",
          "name": "_state",
          "type": "bool"
        }
      ],
      "name": "setRevealed",
      "outputs": [],
      "stateMutability": "nonpayable",
      "type": "function"
    },
    {
      "inputs": [
        {
          "internalType": "uint256",
          "name": "_tokenId",
          "type": "uint256"
        },
        {
          "internalType": "string",
          "name": "_tokenURI",
          "type": "string"
        }
      ],
      "name": "setTokenURI",
      "outputs": [],
      "stateMutability": "nonpayable",
      "type": "function"
    },
    {
      "inputs": [
        {
          "internalType": "string",
          "name": "_uriPrefix",
          "type": "string"
        }
      ],
      "name": "setUriPrefix",
      "outputs": [],
      "stateMutability": "nonpayable",
      "type": "function"
    },
    {
      "inputs": [
        {
          "internalType": "string",
          "name": "_uriSuffix",
          "type": "string"
        }
      ],
      "name": "setUriSuffix",
      "outputs": [],
      "stateMutability": "nonpayable",
      "type": "function"
    },
    {
      "inputs": [
        {
          "internalType": "bytes4",
          "name": "interfaceId",
          "type": "bytes4"
        }
      ],
      "name": "supportsInterface",
      "outputs": [
        {
          "internalType": "bool",
          "name": "",
          "type": "bool"
        }
      ],
      "stateMutability": "view",
      "type": "function"
    },
    {
      "inputs": [],
      "name": "symbol",
      "outputs": [
        {
          "internalType": "string",
          "name": "",
          "type": "string"
        }
      ],
      "stateMutability": "view",
      "type": "function"
    },
    {
      "inputs": [
        {
          "internalType": "uint256",
          "name": "_tokenId",
          "type": "uint256"
        }
      ],
      "name": "tokenURI",
      "outputs": [
        {
          "internalType": "string",
          "name": "",
          "type": "string"
        }
      ],
      "stateMutability": "view",
      "type": "function"
    },
    {
      "inputs": [
        {
          "internalType": "address",
          "name": "from",
          "type": "address"
        },
        {
          "internalType": "address",
          "name": "to",
          "type": "address"
        },
        {
          "internalType": "uint256",
          "name": "tokenId",
          "type": "uint256"
        }
      ],
      "name": "transferFrom",
      "outputs": [],
      "stateMutability": "nonpayable",
      "type": "function"
    },
    {
      "inputs": [
        {
          "internalType": "address",
          "name": "newOwner",
          "type": "address"
        }
      ],
      "name": "transferOwnership",
      "outputs": [],
      "stateMutability": "nonpayable",
      "type": "function"
    },
    {
      "inputs": [],
      "name": "uriPrefix",
      "outputs": [
        {
          "internalType": "string",
          "name": "",
          "type": "string"
        }
      ],
      "stateMutability": "view",
      "type": "function"
    },
    {
      "inputs": [],
      "name": "uriSuffix",
      "outputs": [
        {
          "internalType": "string",
          "name": "",
          "type": "string"
        }
      ],
      "stateMutability": "view",
      "type": "function"
    },
    {
      "inputs": [
        {
          "internalType": "address",
          "name": "_owner",
          "type": "address"
        }
      ],
      "name": "walletOfOwner",
      "outputs": [
        {
          "internalType": "uint256[]",
          "name": "",
          "type": "uint256[]"
        }
      ],
      "stateMutability": "view",
      "type": "function"
    },
    {
      "inputs": [],
      "name": "withdraw",
      "outputs": [],
      "stateMutability": "nonpayable",
      "type": "function"
    }
  ],
  "bytecode": "0x6080604052604051806020016040528060008152506008908161002291906105a7565b506040518060400160405280600581526020017f2e6a736f6e0000000000000000000000000000000000000000000000000000008152506009908161006791906105a7565b50662386f26fc10000600b55612710600c556005600d556001600e60006101000a81548160ff0219169083151502179055506000600e60016101000a81548160ff0219169083151502179055503480156100c057600080fd5b506040518060400160405280600581526020017f4d794e46540000000000000000000000000000000000000000000000000000008152506040518060400160405280600481526020017f4d4e465400000000000000000000000000000000000000000000000000000000815250816000908161013c91906105a7565b50806001908161014c91906105a7565b50505061016b6101606101b460201b60201c565b6101bc60201b60201c565b6101af6040518060400160405280601a81526020017f697066733a2f2f5f5f4349445f5f2f68696464656e2e6a736f6e00000000000081525061028260201b60201c565b6106f6565b600033905090565b6000600660009054906101000a900473ffffffffffffffffffffffffffffffffffffffff16905081600660006101000a81548173ffffffffffffffffffffffffffffffffffffffff021916908373ffffffffffffffffffffffffffffffffffffffff1602179055508173ffffffffffffffffffffffffffffffffffffffff168173ffffffffffffffffffffffffffffffffffffffff167f8be0079c531659141344cd1fd0a4f28419497f9722a3daafe3b4186f6b6457e060405160405180910390a35050565b6102906102a360201b60201c565b80600a908161029f91906105a7565b5050565b6102b16101b460201b60201c565b73ffffffffffffffffffffffffffffffffffffffff166102d561032d60201b60201c565b73ffffffffffffffffffffffffffffffffffffffff161461032b576040517f08c379a0000000000000000000000000000000000000000000000000000000008152600401610322906106d6565b60405180910390fd5b565b6000600660009054906101000a900473ffffffffffffffffffffffffffffffffffffffff16905090565b600081519050919050565b7f4e487b7100000000000000000000000000000000000000000000000000000000600052604160045260246000fd5b7f4e487b7100000000000000000000000000000000000000000000000000000000600052602260045260246000fd5b600060028204905060018216806103d857607f821691505b6020821081036103eb576103ea610391565b5b50919050565b60008190508160005260206000209050919050565b60006020601f8301049050919050565b600082821b905092915050565b6000600883026104537fffffffffffffffffffffffffffffffffffffffffffffffffffffffffffffffff82610416565b61045d8683610416565b95508019841693508086168417925050509392505050565b6000819050919050565b6000819050919050565b60006104a461049f61049a84610475565b61047f565b610475565b9050919050565b6000819050919050565b6104be83610489565b6104d26104ca826104ab565b848454610423565b825550505050565b600090565b6104e76104da565b6104f28184846104b5565b505050565b5b818110156105165761050b6000826104df565b6001810190506104f8565b5050565b601f82111561055b5761052c816103f1565b61053584610406565b81016020851015610544578190505b61055861055085610406565b8301826104f7565b50505b505050565b600082821c905092915050565b600061057e60001984600802610560565b1980831691505092915050565b6000610597838361056d565b9150826002028217905092915050565b6105b082610357565b67ffffffffffffffff8111156105c9576105c8610362565b5b6105d382546103c0565b6105de82828561051a565b600060209050601f83116001811461061157600084156105ff578287015190505b610609858261058b565b865550610671565b601f19841661061f866103f1565b60005b8281101561064757848901518255600182019150602085019450602081019050610622565b868310156106645784890151610660601f89168261056d565b8355505b6001600288020188555050505b505050505050565b600082825260208201905092915050565b7f4f776e61626c653a2063616c6c6572206973206e6f7420746865206f776e6572600082015250565b60006106c0602083610679565b91506106cb8261068a565b602082019050919050565b600060208201905081810360008301526106ef816106b3565b9050919050565b614751806107056000396000f3fe6080604052600436106102255760003560e01c80635c975abb1161012357806395d89b41116100ab578063c87b56dd1161006f578063c87b56dd146107d1578063d5abeb011461080e578063e0a8085314610839578063e985e9c514610862578063f2fde38b1461089f57610225565b806395d89b4114610700578063a22cb4651461072b578063a45ba8e714610754578063b071401b1461077f578063b88d4fde146107a857610225565b8063715018a6116100f2578063715018a61461062a5780637d4cd847146106415780637ec4a659146106815780638da5cb5b146106aa57806394354fd0146106d557610225565b80635c975abb1461055a57806362b99ad4146105855780636352211e146105b057806370a08231146105ed57610225565b80632062537f116101b1578063438b630011610175578063438b63001461047557806344a0d68a146104b25780634fdd43cb146104db57806351830227146105045780635503a0e81461052f57610225565b80632062537f146103c757806323b872dd146103e3578063298810c61461040c5780633ccfd60b1461043557806342842e0e1461044c57610225565b80631265f1fa116101f85780631265f1fa146102f857806313faede614610321578063162094c41461034c57806316ba10e01461037557806316c38b3c1461039e57610225565b806301ffc9a71461022a57806306fdde0314610267578063081812fc14610292578063095ea7b3146102cf575b600080fd5b34801561023657600080fd5b50610251600480360381019061024c9190612c68565b6108c8565b60405161025e9190612cb0565b60405180910390f35b34801561027357600080fd5b5061027c6109aa565b6040516102899190612d5b565b60405180910390f35b34801561029e57600080fd5b506102b960048036038101906102b49190612db3565b610a3c565b6040516102c69190612e21565b60405180910390f35b3480156102db57600080fd5b506102f660048036038101906102f19190612e68565b610a82565b005b34801561030457600080fd5b5061031f600480360381019061031a9190612ea8565b610b99565b005b34801561032d57600080fd5b50610336610e8c565b6040516103439190612ef7565b60405180910390f35b34801561035857600080fd5b50610373600480360381019061036e9190613047565b610e92565b005b34801561038157600080fd5b5061039c600480360381019061039791906130a3565b610ebf565b005b3480156103aa57600080fd5b506103c560048036038101906103c09190613118565b610eda565b005b6103e160048036038101906103dc919061316a565b610eff565b005b3480156103ef57600080fd5b5061040a60048036038101906104059190613239565b611060565b005b34801561041857600080fd5b50610433600480360381019061042e919061328c565b6110c0565b005b34801561044157600080fd5b5061044a61118a565b005b34801561045857600080fd5b50610473600480360381019061046e9190613239565b611248565b005b34801561048157600080fd5b5061049c6004803603810190610497919061336d565b611268565b6040516104a99190613458565b60405180910390f35b3480156104be57600080fd5b506104d960048036038101906104d49190612db3565b611372565b005b3480156104e757600080fd5b5061050260048036038101906104fd91906130a3565b611384565b005b34801561051057600080fd5b5061051961139f565b6040516105269190612cb0565b60405180910390f35b34801561053b57600080fd5b506105446113b2565b6040516105519190612d5b565b60405180910390f35b34801561056657600080fd5b5061056f611440565b60405161057c9190612cb0565b60405180910390f35b34801561059157600080fd5b5061059a611453565b6040516105a79190612d5b565b60405180910390f35b3480156105bc57600080fd5b506105d760048036038101906105d29190612db3565b6114e1565b6040516105e49190612e21565b60405180910390f35b3480156105f957600080fd5b50610614600480360381019061060f919061336d565b611567565b6040516106219190612ef7565b60405180910390f35b34801561063657600080fd5b5061063f61161e565b005b34801561064d57600080fd5b5061066860048036038101906106639190612db3565b611632565b60405161067894939291906134f1565b60405180910390f35b34801561068d57600080fd5b506106a860048036038101906106a391906130a3565b61178c565b005b3480156106b657600080fd5b506106bf6117a7565b6040516106cc9190612e21565b60405180910390f35b3480156106e157600080fd5b506106ea6117d1565b6040516106f79190612ef7565b60405180910390f35b34801561070c57600080fd5b506107156117d7565b6040516107229190612d5b565b60405180910390f35b34801561073757600080fd5b50610752600480360381019061074d9190613544565b611869565b005b34801561076057600080fd5b5061076961187f565b6040516107769190612d5b565b60405180910390f35b34801561078b57600080fd5b506107a660048036038101906107a19190612db3565b61190d565b005b3480156107b457600080fd5b506107cf60048036038101906107ca9190613625565b61191f565b005b3480156107dd57600080fd5b506107f860048036038101906107f39190612db3565b611981565b6040516108059190612d5b565b60405180910390f35b34801561081a57600080fd5b50610823611b41565b6040516108309190612ef7565b60405180910390f35b34801561084557600080fd5b50610860600480360381019061085b9190613118565b611b47565b005b34801561086e57600080fd5b50610889600480360381019061088491906136a8565b611b6c565b6040516108969190612cb0565b60405180910390f35b3480156108ab57600080fd5b506108c660048036038101906108c1919061336d565b611c00565b005b60007f80ac58cd000000000000000000000000000000000000000000000000000000007bffffffffffffffffffffffffffffffffffffffffffffffffffffffff1916827bffffffffffffffffffffffffffffffffffffffffffffffffffffffff1916148061099357507f5b5e139f000000000000000000000000000000000000000000000000000000007bffffffffffffffffffffffffffffffffffffffffffffffffffffffff1916827bffffffffffffffffffffffffffffffffffffffffffffffffffffffff1916145b806109a357506109a282611c83565b5b9050919050565b6060600080546109b990613717565b80601f01602080910402602001604051908101604052809291908181526020018280546109e590613717565b8015610a325780601f10610a0757610100808354040283529160200191610a32565b820191906000526020600020905b815481529060010190602001808311610a1557829003601f168201915b5050505050905090565b6000610a4782611ced565b6004600083815260200190815260200160002060009054906101000a900473ffffffffffffffffffffffffffffffffffffffff169050919050565b6000610a8d826114e1565b90508073ffffffffffffffffffffffffffffffffffffffff168373ffffffffffffffffffffffffffffffffffffffff1603610afd576040517f08c379a0000000000000000000000000000000000000000000000000000000008152600401610af4906137ba565b60405180910390fd5b8073ffffffffffffffffffffffffffffffffffffffff16610b1c611d38565b73ffffffffffffffffffffffffffffffffffffffff161480610b4b5750610b4a81610b45611d38565b611b6c565b5b610b8a576040517f08c379a0000000000000000000000000000000000000000000000000000000008152600401610b819061384c565b60405180910390fd5b610b948383611d40565b505050565b3373ffffffffffffffffffffffffffffffffffffffff16610bb9836114e1565b73ffffffffffffffffffffffffffffffffffffffff16148015610c0f57503373ffffffffffffffffffffffffffffffffffffffff16610bf7826114e1565b73ffffffffffffffffffffffffffffffffffffffff16145b610c4e576040517f08c379a0000000000000000000000000000000000000000000000000000000008152600401610c45906138de565b60405180910390fd5b600f600082815260200190815260200160002060000160009054906101000a900460ff166003811115610c8457610c8361347a565b5b600f600084815260200190815260200160002060000160009054906101000a900460ff166003811115610cba57610cb961347a565b5b14610cfa576040517f08c379a0000000000000000000000000000000000000000000000000000000008152600401610cf190613970565b60405180910390fd5b600380811115610d0d57610d0c61347a565b5b600f600084815260200190815260200160002060000160009054906101000a900460ff166003811115610d4357610d4261347a565b5b03610d83576040517f08c379a0000000000000000000000000000000000000000000000000000000008152600401610d7a90613a02565b60405180910390fd5b6001600f600084815260200190815260200160002060000160016101000a81548160ff0219169083151502179055506001600f600083815260200190815260200160002060000160016101000a81548160ff021916908315150217905550610dea82611df9565b610df381611df9565b60006001600f600085815260200190815260200160002060000160009054906101000a900460ff166003811115610e2d57610e2c61347a565b5b610e379190613a51565b6003811115610e4957610e4861347a565b5b9050610e8733600183604051806020016040528060008152506040518060200160405280600081525060405180602001604052806000815250611f47565b505050565b600b5481565b610e9a612074565b80601060008481526020019081526020016000209081610eba9190613c31565b505050565b610ec7612074565b8060099081610ed69190613c31565b5050565b610ee2612074565b80600e60006101000a81548160ff02191690831515021790555050565b84600081118015610f125750600d548111155b610f51576040517f08c379a0000000000000000000000000000000000000000000000000000000008152600401610f4890613d4f565b60405180910390fd5b600c5481610f5f60076120f2565b610f699190613a51565b1115610faa576040517f08c379a0000000000000000000000000000000000000000000000000000000008152600401610fa190613dbb565b60405180910390fd5b600e60009054906101000a900460ff1615610ffa576040517f08c379a0000000000000000000000000000000000000000000000000000000008152600401610ff190613e27565b60405180910390fd5b85600b546110089190613e47565b34101561104a576040517f08c379a000000000000000000000000000000000000000000000000000000000815260040161104190613ed5565b60405180910390fd5b611058338787878787611f47565b505050505050565b61107161106b611d38565b82612100565b6110b0576040517f08c379a00000000000000000000000000000000000000000000000000000000081526004016110a790613f67565b60405180910390fd5b6110bb838383612195565b505050565b856000811180156110d35750600d548111155b611112576040517f08c379a000000000000000000000000000000000000000000000000000000000815260040161110990613d4f565b60405180910390fd5b600c548161112060076120f2565b61112a9190613a51565b111561116b576040517f08c379a000000000000000000000000000000000000000000000000000000000815260040161116290613dbb565b60405180910390fd5b611173612074565b611181868887878787611f47565b50505050505050565b611192612074565b600061119c6117a7565b73ffffffffffffffffffffffffffffffffffffffff16476040516111bf90613fb8565b60006040518083038185875af1925050503d80600081146111fc576040519150601f19603f3d011682016040523d82523d6000602084013e611201565b606091505b5050905080611245576040517f08c379a000000000000000000000000000000000000000000000000000000000815260040161123c90614019565b60405180910390fd5b50565b6112638383836040518060200160405280600081525061191f565b505050565b6060600061127583611567565b905060008167ffffffffffffffff81111561129357611292612f1c565b5b6040519080825280602002602001820160405280156112c15781602001602082028036833780820191505090505b50905060006001905060005b83811080156112de5750600c548211155b156113665760006112ee836114e1565b90508673ffffffffffffffffffffffffffffffffffffffff168173ffffffffffffffffffffffffffffffffffffffff1603611352578284838151811061133757611336614039565b5b602002602001018181525050818061134e90614068565b9250505b828061135d90614068565b935050506112cd565b82945050505050919050565b61137a612074565b80600b8190555050565b61138c612074565b80600a908161139b9190613c31565b5050565b600e60019054906101000a900460ff1681565b600980546113bf90613717565b80601f01602080910402602001604051908101604052809291908181526020018280546113eb90613717565b80156114385780601f1061140d57610100808354040283529160200191611438565b820191906000526020600020905b81548152906001019060200180831161141b57829003601f168201915b505050505081565b600e60009054906101000a900460ff1681565b6008805461146090613717565b80601f016020809104026020016040519081016040528092919081815260200182805461148c90613717565b80156114d95780601f106114ae576101008083540402835291602001916114d9565b820191906000526020600020905b8154815290600101906020018083116114bc57829003601f168201915b505050505081565b6000806114ed8361248e565b9050600073ffffffffffffffffffffffffffffffffffffffff168173ffffffffffffffffffffffffffffffffffffffff160361155e576040517f08c379a0000000000000000000000000000000000000000000000000000000008152600401611555906140fc565b60405180910390fd5b80915050919050565b60008073ffffffffffffffffffffffffffffffffffffffff168273ffffffffffffffffffffffffffffffffffffffff16036115d7576040517f08c379a00000000000000000000000000000000000000000000000000000000081526004016115ce9061418e565b60405180910390fd5b600360008373ffffffffffffffffffffffffffffffffffffffff1673ffffffffffffffffffffffffffffffffffffffff168152602001908152602001600020549050919050565b611626612074565b61163060006124cb565b565b600f6020528060005260406000206000915090508060000160009054906101000a900460ff16908060000160019054906101000a900460ff169080600101805461167b90613717565b80601f01602080910402602001604051908101604052809291908181526020018280546116a790613717565b80156116f45780601f106116c9576101008083540402835291602001916116f4565b820191906000526020600020905b8154815290600101906020018083116116d757829003601f168201915b50505050509080600201805461170990613717565b80601f016020809104026020016040519081016040528092919081815260200182805461173590613717565b80156117825780601f1061175757610100808354040283529160200191611782565b820191906000526020600020905b81548152906001019060200180831161176557829003601f168201915b5050505050905084565b611794612074565b80600890816117a39190613c31565b5050565b6000600660009054906101000a900473ffffffffffffffffffffffffffffffffffffffff16905090565b600d5481565b6060600180546117e690613717565b80601f016020809104026020016040519081016040528092919081815260200182805461181290613717565b801561185f5780601f106118345761010080835404028352916020019161185f565b820191906000526020600020905b81548152906001019060200180831161184257829003601f168201915b5050505050905090565b61187b611874611d38565b8383612591565b5050565b600a805461188c90613717565b80601f01602080910402602001604051908101604052809291908181526020018280546118b890613717565b80156119055780601f106118da57610100808354040283529160200191611905565b820191906000526020600020905b8154815290600101906020018083116118e857829003601f168201915b505050505081565b611915612074565b80600d8190555050565b61193061192a611d38565b83612100565b61196f576040517f08c379a000000000000000000000000000000000000000000000000000000000815260040161196690613f67565b60405180910390fd5b61197b848484846126fd565b50505050565b606061198c82612759565b6119cb576040517f08c379a00000000000000000000000000000000000000000000000000000000081526004016119c290614220565b60405180910390fd5b60001515600e60019054906101000a900460ff16151503611a7857600a80546119f390613717565b80601f0160208091040260200160405190810160405280929190818152602001828054611a1f90613717565b8015611a6c5780601f10611a4157610100808354040283529160200191611a6c565b820191906000526020600020905b815481529060010190602001808311611a4f57829003601f168201915b50505050509050611b3c565b6000601060008481526020019081526020016000208054611a9890613717565b80601f0160208091040260200160405190810160405280929190818152602001828054611ac490613717565b8015611b115780601f10611ae657610100808354040283529160200191611b11565b820191906000526020600020905b815481529060010190602001808311611af457829003601f168201915b505050505090506000815111611b365760405180602001604052806000815250611b38565b805b9150505b919050565b600c5481565b611b4f612074565b80600e60016101000a81548160ff02191690831515021790555050565b6000600560008473ffffffffffffffffffffffffffffffffffffffff1673ffffffffffffffffffffffffffffffffffffffff16815260200190815260200160002060008373ffffffffffffffffffffffffffffffffffffffff1673ffffffffffffffffffffffffffffffffffffffff16815260200190815260200160002060009054906101000a900460ff16905092915050565b611c08612074565b600073ffffffffffffffffffffffffffffffffffffffff168173ffffffffffffffffffffffffffffffffffffffff1603611c77576040517f08c379a0000000000000000000000000000000000000000000000000000000008152600401611c6e906142b2565b60405180910390fd5b611c80816124cb565b50565b60007f01ffc9a7000000000000000000000000000000000000000000000000000000007bffffffffffffffffffffffffffffffffffffffffffffffffffffffff1916827bffffffffffffffffffffffffffffffffffffffffffffffffffffffff1916149050919050565b611cf681612759565b611d35576040517f08c379a0000000000000000000000000000000000000000000000000000000008152600401611d2c906140fc565b60405180910390fd5b50565b600033905090565b816004600083815260200190815260200160002060006101000a81548173ffffffffffffffffffffffffffffffffffffffff021916908373ffffffffffffffffffffffffffffffffffffffff160217905550808273ffffffffffffffffffffffffffffffffffffffff16611db3836114e1565b73ffffffffffffffffffffffffffffffffffffffff167f8c5be1e5ebec7d5bd14f71427d1e84f3dd0314c0f7b2291e5b200ac8c7c3b92560405160405180910390a45050565b6000611e04826114e1565b9050611e1481600084600161279a565b611e1d826114e1565b90506004600083815260200190815260200160002060006101000a81549073ffffffffffffffffffffffffffffffffffffffff02191690556001600360008373ffffffffffffffffffffffffffffffffffffffff1673ffffffffffffffffffffffffffffffffffffffff168152602001908152602001600020600082825403925050819055506002600083815260200190815260200160002060006101000a81549073ffffffffffffffffffffffffffffffffffffffff021916905581600073ffffffffffffffffffffffffffffffffffffffff168273ffffffffffffffffffffffffffffffffffffffff167fddf252ad1be2c89b69c2b068fc378daa952ba7f163c4a11628f55a4df523b3ef60405160405180910390a4611f438160008460016127a0565b5050565b60005b8581101561206b57611f5c60076127a6565b6000611f6860076120f2565b9050611f7488826127bc565b6040518060800160405280876003811115611f9257611f9161347a565b5b815260200160001515815260200185815260200184815250600f600083815260200190815260200160002060008201518160000160006101000a81548160ff02191690836003811115611fe857611fe761347a565b5b021790555060208201518160000160016101000a81548160ff02191690831515021790555060408201518160010190816120229190613c31565b5060608201518160020190816120389190613c31565b509050508460106000838152602001908152602001600020908161205c9190613c31565b50508080600101915050611f4a565b50505050505050565b61207c611d38565b73ffffffffffffffffffffffffffffffffffffffff1661209a6117a7565b73ffffffffffffffffffffffffffffffffffffffff16146120f0576040517f08c379a00000000000000000000000000000000000000000000000000000000081526004016120e79061431e565b60405180910390fd5b565b600081600001549050919050565b60008061210c836114e1565b90508073ffffffffffffffffffffffffffffffffffffffff168473ffffffffffffffffffffffffffffffffffffffff16148061214e575061214d8185611b6c565b5b8061218c57508373ffffffffffffffffffffffffffffffffffffffff1661217484610a3c565b73ffffffffffffffffffffffffffffffffffffffff16145b91505092915050565b8273ffffffffffffffffffffffffffffffffffffffff166121b5826114e1565b73ffffffffffffffffffffffffffffffffffffffff161461220b576040517f08c379a0000000000000000000000000000000000000000000000000000000008152600401612202906143b0565b60405180910390fd5b600073ffffffffffffffffffffffffffffffffffffffff168273ffffffffffffffffffffffffffffffffffffffff160361227a576040517f08c379a000000000000000000000000000000000000000000000000000000000815260040161227190614442565b60405180910390fd5b612287838383600161279a565b8273ffffffffffffffffffffffffffffffffffffffff166122a7826114e1565b73ffffffffffffffffffffffffffffffffffffffff16146122fd576040517f08c379a00000000000000000000000000000000000000000000000000000000081526004016122f4906143b0565b60405180910390fd5b6004600082815260200190815260200160002060006101000a81549073ffffffffffffffffffffffffffffffffffffffff02191690556001600360008573ffffffffffffffffffffffffffffffffffffffff1673ffffffffffffffffffffffffffffffffffffffff168152602001908152602001600020600082825403925050819055506001600360008473ffffffffffffffffffffffffffffffffffffffff1673ffffffffffffffffffffffffffffffffffffffff16815260200190815260200160002060008282540192505081905550816002600083815260200190815260200160002060006101000a81548173ffffffffffffffffffffffffffffffffffffffff021916908373ffffffffffffffffffffffffffffffffffffffff160217905550808273ffffffffffffffffffffffffffffffffffffffff168473ffffffffffffffffffffffffffffffffffffffff167fddf252ad1be2c89b69c2b068fc378daa952ba7f163c4a11628f55a4df523b3ef60405160405180910390a461248983838360016127a0565b505050565b60006002600083815260200190815260200160002060009054906101000a900473ffffffffffffffffffffffffffffffffffffffff169050919050565b6000600660009054906101000a900473ffffffffffffffffffffffffffffffffffffffff16905081600660006101000a81548173ffffffffffffffffffffffffffffffffffffffff021916908373ffffffffffffffffffffffffffffffffffffffff1602179055508173ffffffffffffffffffffffffffffffffffffffff168173ffffffffffffffffffffffffffffffffffffffff167f8be0079c531659141344cd1fd0a4f28419497f9722a3daafe3b4186f6b6457e060405160405180910390a35050565b8173ffffffffffffffffffffffffffffffffffffffff168373ffffffffffffffffffffffffffffffffffffffff16036125ff576040517f08c379a00000000000000000000000000000000000000000000000000000000081526004016125f6906144ae565b60405180910390fd5b80600560008573ffffffffffffffffffffffffffffffffffffffff1673ffffffffffffffffffffffffffffffffffffffff16815260200190815260200160002060008473ffffffffffffffffffffffffffffffffffffffff1673ffffffffffffffffffffffffffffffffffffffff16815260200190815260200160002060006101000a81548160ff0219169083151502179055508173ffffffffffffffffffffffffffffffffffffffff168373ffffffffffffffffffffffffffffffffffffffff167f17307eab39ab6107e8899845ad3d59bd9653f200f220920489ca2b5937696c31836040516126f09190612cb0565b60405180910390a3505050565b612708848484612195565b612714848484846127da565b612753576040517f08c379a000000000000000000000000000000000000000000000000000000000815260040161274a90614540565b60405180910390fd5b50505050565b60008073ffffffffffffffffffffffffffffffffffffffff1661277b8361248e565b73ffffffffffffffffffffffffffffffffffffffff1614159050919050565b50505050565b50505050565b6001816000016000828254019250508190555050565b6127d6828260405180602001604052806000815250612961565b5050565b60006127fb8473ffffffffffffffffffffffffffffffffffffffff166129bc565b15612954578373ffffffffffffffffffffffffffffffffffffffff1663150b7a02612824611d38565b8786866040518563ffffffff1660e01b815260040161284694939291906145b5565b6020604051808303816000875af192505050801561288257506040513d601f19601f8201168201806040525081019061287f9190614616565b60015b612904573d80600081146128b2576040519150601f19603f3d011682016040523d82523d6000602084013e6128b7565b606091505b5060008151036128fc576040517f08c379a00000000000000000000000000000000000000000000000000000000081526004016128f390614540565b60405180910390fd5b805181602001fd5b63150b7a0260e01b7bffffffffffffffffffffffffffffffffffffffffffffffffffffffff1916817bffffffffffffffffffffffffffffffffffffffffffffffffffffffff191614915050612959565b600190505b949350505050565b61296b83836129df565b61297860008484846127da565b6129b7576040517f08c379a00000000000000000000000000000000000000000000000000000000081526004016129ae90614540565b60405180910390fd5b505050565b6000808273ffffffffffffffffffffffffffffffffffffffff163b119050919050565b600073ffffffffffffffffffffffffffffffffffffffff168273ffffffffffffffffffffffffffffffffffffffff1603612a4e576040517f08c379a0000000000000000000000000000000000000000000000000000000008152600401612a459061468f565b60405180910390fd5b612a5781612759565b15612a97576040517f08c379a0000000000000000000000000000000000000000000000000000000008152600401612a8e906146fb565b60405180910390fd5b612aa560008383600161279a565b612aae81612759565b15612aee576040517f08c379a0000000000000000000000000000000000000000000000000000000008152600401612ae5906146fb565b60405180910390fd5b6001600360008473ffffffffffffffffffffffffffffffffffffffff1673ffffffffffffffffffffffffffffffffffffffff16815260200190815260200160002060008282540192505081905550816002600083815260200190815260200160002060006101000a81548173ffffffffffffffffffffffffffffffffffffffff021916908373ffffffffffffffffffffffffffffffffffffffff160217905550808273ffffffffffffffffffffffffffffffffffffffff16600073ffffffffffffffffffffffffffffffffffffffff167fddf252ad1be2c89b69c2b068fc378daa952ba7f163c4a11628f55a4df523b3ef60405160405180910390a4612bf86000838360016127a0565b5050565b6000604051905090565b600080fd5b600080fd5b60007fffffffff0000000000000000000000000000000000000000000000000000000082169050919050565b612c4581612c10565b8114612c5057600080fd5b50565b600081359050612c6281612c3c565b92915050565b600060208284031215612c7e57612c7d612c06565b5b6000612c8c84828501612c53565b91505092915050565b60008115159050919050565b612caa81612c95565b82525050565b6000602082019050612cc56000830184612ca1565b92915050565b600081519050919050565b600082825260208201905092915050565b60005b83811015612d05578082015181840152602081019050612cea565b60008484015250505050565b6000601f19601f8301169050919050565b6000612d2d82612ccb565b612d378185612cd6565b9350612d47818560208601612ce7565b612d5081612d11565b840191505092915050565b60006020820190508181036000830152612d758184612d22565b905092915050565b6000819050919050565b612d9081612d7d565b8114612d9b57600080fd5b50565b600081359050612dad81612d87565b92915050565b600060208284031215612dc957612dc8612c06565b5b6000612dd784828501612d9e565b91505092915050565b600073ffffffffffffffffffffffffffffffffffffffff82169050919050565b6000612e0b82612de0565b9050919050565b612e1b81612e00565b82525050565b6000602082019050612e366000830184612e12565b92915050565b612e4581612e00565b8114612e5057600080fd5b50565b600081359050612e6281612e3c565b92915050565b60008060408385031215612e7f57612e7e612c06565b5b6000612e8d85828601612e53565b9250506020612e9e85828601612d9e565b9150509250929050565b60008060408385031215612ebf57612ebe612c06565b5b6000612ecd85828601612d9e565b9250506020612ede85828601612d9e565b9150509250929050565b612ef181612d7d565b82525050565b6000602082019050612f0c6000830184612ee8565b92915050565b600080fd5b600080fd5b7f4e487b7100000000000000000000000000000000000000000000000000000000600052604160045260246000fd5b612f5482612d11565b810181811067ffffffffffffffff82111715612f7357612f72612f1c565b5b80604052505050565b6000612f86612bfc565b9050612f928282612f4b565b919050565b600067ffffffffffffffff821115612fb257612fb1612f1c565b5b612fbb82612d11565b9050602081019050919050565b82818337600083830152505050565b6000612fea612fe584612f97565b612f7c565b90508281526020810184848401111561300657613005612f17565b5b613011848285612fc8565b509392505050565b600082601f83011261302e5761302d612f12565b5b813561303e848260208601612fd7565b91505092915050565b6000806040838503121561305e5761305d612c06565b5b600061306c85828601612d9e565b925050602083013567ffffffffffffffff81111561308d5761308c612c0b565b5b61309985828601613019565b9150509250929050565b6000602082840312156130b9576130b8612c06565b5b600082013567ffffffffffffffff8111156130d7576130d6612c0b565b5b6130e384828501613019565b91505092915050565b6130f581612c95565b811461310057600080fd5b50565b600081359050613112816130ec565b92915050565b60006020828403121561312e5761312d612c06565b5b600061313c84828501613103565b91505092915050565b6004811061315257600080fd5b50565b60008135905061316481613145565b92915050565b600080600080600060a0868803121561318657613185612c06565b5b600061319488828901612d9e565b95505060206131a588828901613155565b945050604086013567ffffffffffffffff8111156131c6576131c5612c0b565b5b6131d288828901613019565b935050606086013567ffffffffffffffff8111156131f3576131f2612c0b565b5b6131ff88828901613019565b925050608086013567ffffffffffffffff8111156132205761321f612c0b565b5b61322c88828901613019565b9150509295509295909350565b60008060006060848603121561325257613251612c06565b5b600061326086828701612e53565b935050602061327186828701612e53565b925050604061328286828701612d9e565b9150509250925092565b60008060008060008060c087890312156132a9576132a8612c06565b5b60006132b789828a01612d9e565b96505060206132c889828a01612e53565b95505060406132d989828a01613155565b945050606087013567ffffffffffffffff8111156132fa576132f9612c0b565b5b61330689828a01613019565b935050608087013567ffffffffffffffff81111561332757613326612c0b565b5b61333389828a01613019565b92505060a087013567ffffffffffffffff81111561335457613353612c0b565b5b61336089828a01613019565b9150509295509295509295565b60006020828403121561338357613382612c06565b5b600061339184828501612e53565b91505092915050565b600081519050919050565b600082825260208201905092915050565b6000819050602082019050919050565b6133cf81612d7d565b82525050565b60006133e183836133c6565b60208301905092915050565b6000602082019050919050565b60006134058261339a565b61340f81856133a5565b935061341a836133b6565b8060005b8381101561344b57815161343288826133d5565b975061343d836133ed565b92505060018101905061341e565b5085935050505092915050565b6000602082019050818103600083015261347281846133fa565b905092915050565b7f4e487b7100000000000000000000000000000000000000000000000000000000600052602160045260246000fd5b600481106134ba576134b961347a565b5b50565b60008190506134cb826134a9565b919050565b60006134db826134bd565b9050919050565b6134eb816134d0565b82525050565b600060808201905061350660008301876134e2565b6135136020830186612ca1565b81810360408301526135258185612d22565b905081810360608301526135398184612d22565b905095945050505050565b6000806040838503121561355b5761355a612c06565b5b600061356985828601612e53565b925050602061357a85828601613103565b9150509250929050565b600067ffffffffffffffff82111561359f5761359e612f1c565b5b6135a882612d11565b9050602081019050919050565b60006135c86135c384613584565b612f7c565b9050828152602081018484840111156135e4576135e3612f17565b5b6135ef848285612fc8565b509392505050565b600082601f83011261360c5761360b612f12565b5b813561361c8482602086016135b5565b91505092915050565b6000806000806080858703121561363f5761363e612c06565b5b600061364d87828801612e53565b945050602061365e87828801612e53565b935050604061366f87828801612d9e565b925050606085013567ffffffffffffffff8111156136905761368f612c0b565b5b61369c878288016135f7565b91505092959194509250565b600080604083850312156136bf576136be612c06565b5b60006136cd85828601612e53565b92505060206136de85828601612e53565b9150509250929050565b7f4e487b7100000000000000000000000000000000000000000000000000000000600052602260045260246000fd5b6000600282049050600182168061372f57607f821691505b602082108103613742576137416136e8565b5b50919050565b7f4552433732313a20617070726f76616c20746f2063757272656e74206f776e6560008201527f7200000000000000000000000000000000000000000000000000000000000000602082015250565b60006137a4602183612cd6565b91506137af82613748565b604082019050919050565b600060208201905081810360008301526137d381613797565b9050919050565b7f4552433732313a20617070726f76652063616c6c6572206973206e6f7420746f60008201527f6b656e206f776e6572206f7220617070726f76656420666f7220616c6c000000602082015250565b6000613836603d83612cd6565b9150613841826137da565b604082019050919050565b6000602082019050818103600083015261386581613829565b9050919050565b7f4465626573207365722070726f706965746172696f20646520616d626f73204e60008201527f4654730000000000000000000000000000000000000000000000000000000000602082015250565b60006138c8602383612cd6565b91506138d38261386c565b604082019050919050565b600060208201905081810360008301526138f7816138bb565b9050919050565b7f4c6f73204e46547320646562656e2074656e6572206c61206d69736d6120726160008201527f72657a6100000000000000000000000000000000000000000000000000000000602082015250565b600061395a602483612cd6565b9150613965826138fe565b604082019050919050565b600060208201905081810360008301526139898161394d565b9050919050565b7f4e6f20736520707565646520667573696f6e617220756e204e4654204c65676560008201527f6e646172696f0000000000000000000000000000000000000000000000000000602082015250565b60006139ec602683612cd6565b91506139f782613990565b604082019050919050565b60006020820190508181036000830152613a1b816139df565b9050919050565b7f4e487b7100000000000000000000000000000000000000000000000000000000600052601160045260246000fd5b6000613a5c82612d7d565b9150613a6783612d7d565b9250828201905080821115613a7f57613a7e613a22565b5b92915050565b60008190508160005260206000209050919050565b60006020601f8301049050919050565b600082821b905092915050565b600060088302613ae77fffffffffffffffffffffffffffffffffffffffffffffffffffffffffffffffff82613aaa565b613af18683613aaa565b95508019841693508086168417925050509392505050565b6000819050919050565b6000613b2e613b29613b2484612d7d565b613b09565b612d7d565b9050919050565b6000819050919050565b613b4883613b13565b613b5c613b5482613b35565b848454613ab7565b825550505050565b600090565b613b71613b64565b613b7c818484613b3f565b505050565b5b81811015613ba057613b95600082613b69565b600181019050613b82565b5050565b601f821115613be557613bb681613a85565b613bbf84613a9a565b81016020851015613bce578190505b613be2613bda85613a9a565b830182613b81565b50505b505050565b600082821c905092915050565b6000613c0860001984600802613bea565b1980831691505092915050565b6000613c218383613bf7565b9150826002028217905092915050565b613c3a82612ccb565b67ffffffffffffffff811115613c5357613c52612f1c565b5b613c5d8254613717565b613c68828285613ba4565b600060209050601f831160018114613c9b5760008415613c89578287015190505b613c938582613c15565b865550613cfb565b601f198416613ca986613a85565b60005b82811015613cd157848901518255600182019150602085019450602081019050613cac565b86831015613cee5784890151613cea601f891682613bf7565b8355505b6001600288020188555050505b505050505050565b7f496e76616c6964206d696e7420616d6f756e7400000000000000000000000000600082015250565b6000613d39601383612cd6565b9150613d4482613d03565b602082019050919050565b60006020820190508181036000830152613d6881613d2c565b9050919050565b7f4d617820737570706c7920657863656564656400000000000000000000000000600082015250565b6000613da5601383612cd6565b9150613db082613d6f565b602082019050919050565b60006020820190508181036000830152613dd481613d98565b9050919050565b7f456c20636f6e747261746f20657374c3a120656e207061757361000000000000600082015250565b6000613e11601a83612cd6565b9150613e1c82613ddb565b602082019050919050565b60006020820190508181036000830152613e4081613e04565b9050919050565b6000613e5282612d7d565b9150613e5d83612d7d565b9250828202613e6b81612d7d565b91508282048414831517613e8257613e81613a22565b5b5092915050565b7f466f6e646f7320696e737566696369656e746573000000000000000000000000600082015250565b6000613ebf601483612cd6565b9150613eca82613e89565b602082019050919050565b60006020820190508181036000830152613eee81613eb2565b9050919050565b7f4552433732313a2063616c6c6572206973206e6f7420746f6b656e206f776e6560008201527f72206f7220617070726f76656400000000000000000000000000000000000000602082015250565b6000613f51602d83612cd6565b9150613f5c82613ef5565b604082019050919050565b60006020820190508181036000830152613f8081613f44565b9050919050565b600081905092915050565b50565b6000613fa2600083613f87565b9150613fad82613f92565b600082019050919050565b6000613fc382613f95565b9150819050919050565b7f5472616e73666572206661696c65642e00000000000000000000000000000000600082015250565b6000614003601083612cd6565b915061400e82613fcd565b602082019050919050565b6000602082019050818103600083015261403281613ff6565b9050919050565b7f4e487b7100000000000000000000000000000000000000000000000000000000600052603260045260246000fd5b600061407382612d7d565b91507fffffffffffffffffffffffffffffffffffffffffffffffffffffffffffffffff82036140a5576140a4613a22565b5b600182019050919050565b7f4552433732313a20696e76616c696420746f6b656e2049440000000000000000600082015250565b60006140e6601883612cd6565b91506140f1826140b0565b602082019050919050565b60006020820190508181036000830152614115816140d9565b9050919050565b7f4552433732313a2061646472657373207a65726f206973206e6f74206120766160008201527f6c6964206f776e65720000000000000000000000000000000000000000000000602082015250565b6000614178602983612cd6565b91506141838261411c565b604082019050919050565b600060208201905081810360008301526141a78161416b565b9050919050565b7f4552433732314d657461646174613a2055524920717565727920666f72206e6f60008201527f6e6578697374656e7420746f6b656e0000000000000000000000000000000000602082015250565b600061420a602f83612cd6565b9150614215826141ae565b604082019050919050565b60006020820190508181036000830152614239816141fd565b9050919050565b7f4f776e61626c653a206e6577206f776e657220697320746865207a65726f206160008201527f6464726573730000000000000000000000000000000000000000000000000000602082015250565b600061429c602683612cd6565b91506142a782614240565b604082019050919050565b600060208201905081810360008301526142cb8161428f565b9050919050565b7f4f776e61626c653a2063616c6c6572206973206e6f7420746865206f776e6572600082015250565b6000614308602083612cd6565b9150614313826142d2565b602082019050919050565b60006020820190508181036000830152614337816142fb565b9050919050565b7f4552433732313a207472616e736665722066726f6d20696e636f72726563742060008201527f6f776e6572000000000000000000000000000000000000000000000000000000602082015250565b600061439a602583612cd6565b91506143a58261433e565b604082019050919050565b600060208201905081810360008301526143c98161438d565b9050919050565b7f4552433732313a207472616e7366657220746f20746865207a65726f2061646460008201527f7265737300000000000000000000000000000000000000000000000000000000602082015250565b600061442c602483612cd6565b9150614437826143d0565b604082019050919050565b6000602082019050818103600083015261445b8161441f565b9050919050565b7f4552433732313a20617070726f766520746f2063616c6c657200000000000000600082015250565b6000614498601983612cd6565b91506144a382614462565b602082019050919050565b600060208201905081810360008301526144c78161448b565b9050919050565b7f4552433732313a207472616e7366657220746f206e6f6e20455243373231526560008201527f63656976657220696d706c656d656e7465720000000000000000000000000000602082015250565b600061452a603283612cd6565b9150614535826144ce565b604082019050919050565b600060208201905081810360008301526145598161451d565b9050919050565b600081519050919050565b600082825260208201905092915050565b600061458782614560565b614591818561456b565b93506145a1818560208601612ce7565b6145aa81612d11565b840191505092915050565b60006080820190506145ca6000830187612e12565b6145d76020830186612e12565b6145e46040830185612ee8565b81810360608301526145f6818461457c565b905095945050505050565b60008151905061461081612c3c565b92915050565b60006020828403121561462c5761462b612c06565b5b600061463a84828501614601565b91505092915050565b7f4552433732313a206d696e7420746f20746865207a65726f2061646472657373600082015250565b6000614679602083612cd6565b915061468482614643565b602082019050919050565b600060208201905081810360008301526146a88161466c565b9050919050565b7f4552433732313a20746f6b656e20616c7265616479206d696e74656400000000600082015250565b60006146e5601c83612cd6565b91506146f0826146af565b602082019050919050565b60006020820190508181036000830152614714816146d8565b905091905056fea2646970667358221220d963fc9ff8be72d7c3365613ea72d5018155654711039693df534108f35d2f7464736f6c634300081b0033",
  "linkReferences": {},
  "deployedLinkReferences": {}
}